{
  "address": "0xe7f1725E7734CE288F8367e1Bb143E90bb3F0512",
  "abi": [
    {
      "inputs": [
        {
          "internalType": "address",
          "name": "priceFeed",
          "type": "address"
        }
      ],
      "stateMutability": "nonpayable",
      "type": "constructor"
    },
    {
      "inputs": [
        {
          "internalType": "string",
          "name": "location",
          "type": "string"
        },
        {
          "internalType": "address",
          "name": "addr",
          "type": "address"
        }
      ],
      "name": "Error__AddressAlreadyAnOwner",
      "type": "error"
    },
    {
      "inputs": [
        {
          "internalType": "string",
          "name": "location",
          "type": "string"
        },
        {
          "internalType": "address",
          "name": "addr",
          "type": "address"
        }
      ],
      "name": "Error__AddressNotFoundAsGuardian",
      "type": "error"
    },
    {
      "inputs": [
        {
          "internalType": "string",
          "name": "location",
          "type": "string"
        },
        {
          "internalType": "address",
          "name": "guardian",
          "type": "address"
        }
      ],
      "name": "Error__AlreadyConfirmedByGuardian",
      "type": "error"
    },
    {
      "inputs": [
        {
          "internalType": "string",
          "name": "location",
          "type": "string"
        },
        {
          "internalType": "uint256",
          "name": "balance",
          "type": "uint256"
        }
      ],
      "name": "Error__BalanceIsZero",
      "type": "error"
    },
    {
      "inputs": [
        {
          "internalType": "string",
          "name": "location",
          "type": "string"
        }
      ],
      "name": "Error__CanOnlyAddAfterDelayPeriod",
      "type": "error"
    },
    {
      "inputs": [
        {
          "internalType": "string",
          "name": "location",
          "type": "string"
        }
      ],
      "name": "Error__CanOnlyChangeAfterDelayPeriod",
      "type": "error"
    },
    {
      "inputs": [
        {
          "internalType": "string",
          "name": "location",
          "type": "string"
        }
      ],
      "name": "Error__CanOnlyRemoveAfterDelayPeriod",
      "type": "error"
    },
    {
      "inputs": [
        {
          "internalType": "string",
          "name": "location",
          "type": "string"
        },
        {
          "internalType": "uint256",
          "name": "amount",
          "type": "uint256"
        }
      ],
      "name": "Error__DailyTransferLimitExceed",
      "type": "error"
    },
    {
      "inputs": [
        {
          "internalType": "string",
          "name": "location",
          "type": "string"
        }
      ],
      "name": "Error__GuardianDoesNotExist",
      "type": "error"
    },
    {
      "inputs": [
        {
          "internalType": "string",
          "name": "location",
          "type": "string"
        }
      ],
      "name": "Error__GuardiansListIsEmpty",
      "type": "error"
    },
    {
      "inputs": [
        {
          "internalType": "string",
          "name": "location",
          "type": "string"
        },
        {
          "internalType": "uint256",
          "name": "amount",
          "type": "uint256"
        }
      ],
      "name": "Error__InvalidAmount",
      "type": "error"
    },
    {
      "inputs": [
        {
          "internalType": "string",
          "name": "location",
          "type": "string"
        },
        {
          "internalType": "uint256",
          "name": "limit",
          "type": "uint256"
        }
      ],
      "name": "Error__InvalidLimit",
      "type": "error"
    },
    {
      "inputs": [
        {
          "internalType": "string",
          "name": "location",
          "type": "string"
        }
      ],
      "name": "Error__RequestTimeExpired",
      "type": "error"
    },
    {
      "inputs": [
        {
          "internalType": "string",
          "name": "location",
          "type": "string"
        },
        {
          "internalType": "uint256",
          "name": "confirmations",
          "type": "uint256"
        }
      ],
      "name": "Error__RequiredConfirmationsNotMet",
      "type": "error"
    },
    {
      "inputs": [
        {
          "internalType": "string",
          "name": "location",
          "type": "string"
        }
      ],
      "name": "Error__TransactionFailed",
      "type": "error"
    },
    {
      "inputs": [
        {
          "internalType": "string",
          "name": "location",
          "type": "string"
        }
      ],
      "name": "Error__UpdateNotRequested",
      "type": "error"
    },
    {
      "inputs": [
        {
          "internalType": "string",
          "name": "location",
          "type": "string"
        }
      ],
      "name": "Error__UpdateNotRequestedByOwner",
      "type": "error"
    },
    {
      "anonymous": false,
      "inputs": [
        {
          "indexed": true,
          "internalType": "address",
          "name": "previousOwner",
          "type": "address"
        },
        {
          "indexed": true,
          "internalType": "address",
          "name": "newOwner",
          "type": "address"
        }
      ],
      "name": "OwnershipTransferred",
      "type": "event"
    },
    {
      "stateMutability": "payable",
      "type": "fallback"
    },
    {
      "inputs": [
        {
          "internalType": "address",
          "name": "guardian",
          "type": "address"
        }
      ],
      "name": "addGuardian",
      "outputs": [],
      "stateMutability": "nonpayable",
      "type": "function"
    },
    {
      "inputs": [
        {
          "internalType": "address",
          "name": "from",
          "type": "address"
        },
        {
          "internalType": "address",
          "name": "to",
          "type": "address"
        }
      ],
      "name": "changeGuardian",
      "outputs": [],
      "stateMutability": "nonpayable",
      "type": "function"
    },
    {
      "inputs": [],
      "name": "confirmAndUpdate",
      "outputs": [],
      "stateMutability": "nonpayable",
      "type": "function"
    },
    {
      "inputs": [],
      "name": "confirmDailyTransferLimitRequest",
      "outputs": [],
      "stateMutability": "nonpayable",
      "type": "function"
    },
    {
      "inputs": [],
      "name": "confirmUpdateOwnerRequest",
      "outputs": [],
      "stateMutability": "nonpayable",
      "type": "function"
    },
    {
      "inputs": [],
      "name": "getAddGuardianDelay",
      "outputs": [
        {
          "internalType": "uint256",
          "name": "",
          "type": "uint256"
        }
      ],
      "stateMutability": "view",
      "type": "function"
    },
    {
      "inputs": [],
      "name": "getBalance",
      "outputs": [
        {
          "internalType": "uint256",
          "name": "",
          "type": "uint256"
        }
      ],
      "stateMutability": "view",
      "type": "function"
    },
    {
      "inputs": [],
      "name": "getBalanceInUSD",
      "outputs": [
        {
          "internalType": "uint256",
          "name": "",
          "type": "uint256"
        }
      ],
      "stateMutability": "view",
      "type": "function"
    },
    {
      "inputs": [],
      "name": "getChangeGuardianDelay",
      "outputs": [
        {
          "internalType": "uint256",
          "name": "",
          "type": "uint256"
        }
      ],
      "stateMutability": "view",
      "type": "function"
    },
    {
      "inputs": [],
      "name": "getDailyTransferLimit",
      "outputs": [
        {
          "internalType": "uint256",
          "name": "",
          "type": "uint256"
        }
      ],
      "stateMutability": "view",
      "type": "function"
    },
    {
      "inputs": [],
      "name": "getDailyTransferLimitInUSD",
      "outputs": [
        {
          "internalType": "uint256",
          "name": "",
          "type": "uint256"
        }
      ],
      "stateMutability": "view",
      "type": "function"
    },
    {
      "inputs": [],
      "name": "getDailyTransferLimitUpdateConfirmationTime",
      "outputs": [
        {
          "internalType": "uint256",
          "name": "",
          "type": "uint256"
        }
      ],
      "stateMutability": "view",
      "type": "function"
    },
    {
      "inputs": [],
      "name": "getDailyTransferLimitUpdateRequestStatus",
      "outputs": [
        {
          "internalType": "bool",
          "name": "",
          "type": "bool"
        }
      ],
      "stateMutability": "view",
      "type": "function"
    },
    {
      "inputs": [
        {
          "internalType": "address",
          "name": "guardian",
          "type": "address"
        }
      ],
      "name": "getGuardianConfirmationStatus",
      "outputs": [
        {
          "internalType": "bool",
          "name": "",
          "type": "bool"
        }
      ],
      "stateMutability": "view",
      "type": "function"
    },
    {
      "inputs": [],
      "name": "getGuardians",
      "outputs": [
        {
          "internalType": "address[]",
          "name": "",
          "type": "address[]"
        }
      ],
      "stateMutability": "view",
      "type": "function"
    },
    {
      "inputs": [],
      "name": "getIsOwnerUpdateRequested",
      "outputs": [
        {
          "internalType": "bool",
          "name": "",
          "type": "bool"
        }
      ],
      "stateMutability": "view",
      "type": "function"
    },
    {
      "inputs": [
        {
          "internalType": "address",
          "name": "guardian",
          "type": "address"
        }
      ],
      "name": "getIsOwnershipConfimedByGuardian",
      "outputs": [
        {
          "internalType": "bool",
          "name": "",
          "type": "bool"
        }
      ],
      "stateMutability": "view",
      "type": "function"
    },
    {
      "inputs": [],
      "name": "getLastDailyTransferUpdateRequestTime",
      "outputs": [
        {
          "internalType": "uint256",
          "name": "",
          "type": "uint256"
        }
      ],
      "stateMutability": "view",
      "type": "function"
    },
    {
      "inputs": [],
      "name": "getLastGuardianAddTime",
      "outputs": [
        {
          "internalType": "uint256",
          "name": "",
          "type": "uint256"
        }
      ],
      "stateMutability": "view",
      "type": "function"
    },
    {
      "inputs": [],
      "name": "getLastGuardianChangeTime",
      "outputs": [
        {
          "internalType": "uint256",
          "name": "",
          "type": "uint256"
        }
      ],
      "stateMutability": "view",
      "type": "function"
    },
    {
      "inputs": [],
      "name": "getLastGuardianRemovalTime",
      "outputs": [
        {
          "internalType": "uint256",
          "name": "",
          "type": "uint256"
        }
      ],
      "stateMutability": "view",
      "type": "function"
    },
    {
      "inputs": [],
      "name": "getLastOwnerUpdateRequestTime",
      "outputs": [
        {
          "internalType": "uint256",
          "name": "",
          "type": "uint256"
        }
      ],
      "stateMutability": "view",
      "type": "function"
    },
    {
      "inputs": [],
      "name": "getNoOfConfirmations",
      "outputs": [
        {
          "internalType": "uint256",
          "name": "",
          "type": "uint256"
        }
      ],
      "stateMutability": "view",
      "type": "function"
    },
    {
      "inputs": [],
      "name": "getOwnerUpdateConfirmationTime",
      "outputs": [
        {
          "internalType": "uint256",
          "name": "",
          "type": "uint256"
        }
      ],
      "stateMutability": "view",
      "type": "function"
    },
    {
      "inputs": [],
      "name": "getPrice",
      "outputs": [
        {
          "internalType": "uint256",
          "name": "",
          "type": "uint256"
        }
      ],
      "stateMutability": "view",
      "type": "function"
    },
    {
      "inputs": [],
      "name": "getRemoveGuardianDelay",
      "outputs": [
        {
          "internalType": "uint256",
          "name": "",
          "type": "uint256"
        }
      ],
      "stateMutability": "view",
      "type": "function"
    },
    {
      "inputs": [],
      "name": "getRequiredConfirmations",
      "outputs": [
        {
          "internalType": "uint256",
          "name": "",
          "type": "uint256"
        }
      ],
      "stateMutability": "view",
      "type": "function"
    },
    {
      "inputs": [],
      "name": "owner",
      "outputs": [
        {
          "internalType": "address",
          "name": "",
          "type": "address"
        }
      ],
      "stateMutability": "view",
      "type": "function"
    },
    {
      "inputs": [
        {
          "internalType": "address",
          "name": "guardian",
          "type": "address"
        }
      ],
      "name": "removeGuardian",
      "outputs": [],
      "stateMutability": "nonpayable",
      "type": "function"
    },
    {
      "inputs": [],
      "name": "renounceOwnership",
      "outputs": [],
      "stateMutability": "nonpayable",
      "type": "function"
    },
    {
      "inputs": [
        {
          "internalType": "uint256",
          "name": "limit",
          "type": "uint256"
        }
      ],
      "name": "requestToUpdateDailyTransferLimit",
      "outputs": [],
      "stateMutability": "nonpayable",
      "type": "function"
    },
    {
      "inputs": [
        {
          "internalType": "address",
          "name": "newOwnerAddress",
          "type": "address"
        }
      ],
      "name": "requestToUpdateOwner",
      "outputs": [],
      "stateMutability": "nonpayable",
      "type": "function"
    },
    {
      "inputs": [
        {
          "internalType": "address",
          "name": "to",
          "type": "address"
        },
        {
          "internalType": "uint256",
          "name": "amount",
          "type": "uint256"
        }
      ],
      "name": "send",
      "outputs": [],
      "stateMutability": "nonpayable",
      "type": "function"
    },
    {
      "inputs": [
        {
          "internalType": "address",
          "name": "to",
          "type": "address"
        }
      ],
      "name": "sendAll",
      "outputs": [],
      "stateMutability": "nonpayable",
      "type": "function"
    },
    {
      "inputs": [
        {
          "internalType": "address",
          "name": "newOwner",
          "type": "address"
        }
      ],
      "name": "transferOwnership",
      "outputs": [],
      "stateMutability": "nonpayable",
      "type": "function"
    },
    {
      "inputs": [
        {
          "internalType": "address",
          "name": "_priceFeed",
          "type": "address"
        }
      ],
      "name": "updateETHUSDPriceFeed",
      "outputs": [],
      "stateMutability": "nonpayable",
      "type": "function"
    },
    {
      "stateMutability": "payable",
      "type": "receive"
    }
  ],
  "transactionHash": "0xdba2f5848a69ad80ce0146c8493932f58d73792947071c5fa927f028208f16b9",
  "args": [
    "0x5FbDB2315678afecb367f032d93F642f64180aa3"
  ],
  "numDeployments": 1,
  "solcInputHash": "3f01edcb96e4e1b1c54b4727ac1e3553",
  "bytecode": "0x60806040523480156200001157600080fd5b50604051620031b9380380620031b983398181016040528101906200003791906200023a565b80620000586200004c6200010460201b60201c565b6200010c60201b60201c565b600180819055504260088190555042600381905550620151806002819055504260058190555062015180600481905550426007819055506203f48060068190555080601160006101000a81548173ffffffffffffffffffffffffffffffffffffffff021916908373ffffffffffffffffffffffffffffffffffffffff160217905550670de0b6b3a7640000600b8190555062015180600e8190555050611c20601381905550506200026c565b600033905090565b60008060009054906101000a900473ffffffffffffffffffffffffffffffffffffffff169050816000806101000a81548173ffffffffffffffffffffffffffffffffffffffff021916908373ffffffffffffffffffffffffffffffffffffffff1602179055508173ffffffffffffffffffffffffffffffffffffffff168173ffffffffffffffffffffffffffffffffffffffff167f8be0079c531659141344cd1fd0a4f28419497f9722a3daafe3b4186f6b6457e060405160405180910390a35050565b600080fd5b600073ffffffffffffffffffffffffffffffffffffffff82169050919050565b60006200020282620001d5565b9050919050565b6200021481620001f5565b81146200022057600080fd5b50565b600081519050620002348162000209565b92915050565b600060208284031215620002535762000252620001d0565b5b6000620002638482850162000223565b91505092915050565b612f3d806200027c6000396000f3fe6080604052600436106102135760003560e01c80638da5cb5b11610118578063d0679d34116100a0578063e9316a211161006f578063e9316a2114610729578063ecfba8f514610754578063ef6492491461077f578063f2fde38b146107aa578063fb549788146107d35761021a565b8063d0679d3414610671578063d23773611461069a578063d660c45d146106c3578063daf3ce6a146106ec5761021a565b8063a526d83b116100e7578063a526d83b1461058a578063a85ae377146105b3578063af630ad3146105de578063b9e1c79814610609578063bbe4424a146106465761021a565b80638da5cb5b146104de5780638fc270b7146105095780639204f4771461053457806398d5fdca1461055f5761021a565b80632b28d0cc1161019b5780637388fe861161016a5780637388fe861461041f57806379f9c22f1461044a5780637d09f5dd1461047357806383b40cc91461049e5780638636068c146104c75761021a565b80632b28d0cc14610389578063673d4ec8146103b457806371404156146103df578063715018a6146104085761021a565b806314cbc763116101e257806314cbc763146102c657806315c1bc3e146102f157806324cb76041461031c57806326c886df146103475780632ad2ed901461035e5761021a565b80630665f04b1461021c57806306c4df831461024757806310a0cf171461027257806312065fe01461029b5761021a565b3661021a57005b005b34801561022857600080fd5b506102316107ea565b60405161023e919061262c565b60405180910390f35b34801561025357600080fd5b5061025c610878565b6040516102699190612667565b60405180910390f35b34801561027e57600080fd5b50610299600480360381019061029491906126b3565b610882565b005b3480156102a757600080fd5b506102b0610a61565b6040516102bd9190612667565b60405180910390f35b3480156102d257600080fd5b506102db610a69565b6040516102e89190612667565b60405180910390f35b3480156102fd57600080fd5b50610306610a73565b6040516103139190612667565b60405180910390f35b34801561032857600080fd5b50610331610a7d565b60405161033e9190612667565b60405180910390f35b34801561035357600080fd5b5061035c610a87565b005b34801561036a57600080fd5b50610373610cab565b6040516103809190612667565b60405180910390f35b34801561039557600080fd5b5061039e610cc8565b6040516103ab9190612667565b60405180910390f35b3480156103c057600080fd5b506103c9610cd2565b6040516103d691906126fb565b60405180910390f35b3480156103eb57600080fd5b50610406600480360381019061040191906126b3565b610ce9565b005b34801561041457600080fd5b5061041d610fe4565b005b34801561042b57600080fd5b50610434610ff8565b6040516104419190612667565b60405180910390f35b34801561045657600080fd5b50610471600480360381019061046c91906126b3565b611015565b005b34801561047f57600080fd5b50610488611061565b6040516104959190612667565b60405180910390f35b3480156104aa57600080fd5b506104c560048036038101906104c09190612716565b61106b565b005b3480156104d357600080fd5b506104dc61128f565b005b3480156104ea57600080fd5b506104f361150a565b6040516105009190612765565b60405180910390f35b34801561051557600080fd5b5061051e611533565b60405161052b91906126fb565b60405180910390f35b34801561054057600080fd5b5061054961154a565b6040516105569190612667565b60405180910390f35b34801561056b57600080fd5b50610574611584565b6040516105819190612667565b60405180910390f35b34801561059657600080fd5b506105b160048036038101906105ac91906126b3565b611635565b005b3480156105bf57600080fd5b506105c8611714565b6040516105d59190612667565b60405180910390f35b3480156105ea57600080fd5b506105f361171e565b6040516106009190612667565b60405180910390f35b34801561061557600080fd5b50610630600480360381019061062b91906126b3565b611728565b60405161063d91906126fb565b60405180910390f35b34801561065257600080fd5b5061065b61177e565b6040516106689190612667565b60405180910390f35b34801561067d57600080fd5b50610698600480360381019061069391906127ac565b611788565b005b3480156106a657600080fd5b506106c160048036038101906106bc91906127ec565b6118dd565b005b3480156106cf57600080fd5b506106ea60048036038101906106e591906126b3565b611956565b005b3480156106f857600080fd5b50610713600480360381019061070e91906126b3565b611ab0565b60405161072091906126fb565b60405180910390f35b34801561073557600080fd5b5061073e611b06565b60405161074b9190612667565b60405180910390f35b34801561076057600080fd5b50610769611b23565b6040516107769190612667565b60405180910390f35b34801561078b57600080fd5b50610794611b2d565b6040516107a19190612667565b60405180910390f35b3480156107b657600080fd5b506107d160048036038101906107cc91906126b3565b611b65565b005b3480156107df57600080fd5b506107e8611be8565b005b6060600a80548060200260200160405190810160405280929190818152602001828054801561086e57602002820191906000526020600020905b8160009054906101000a900473ffffffffffffffffffffffffffffffffffffffff1673ffffffffffffffffffffffffffffffffffffffff1681526020019060010190808311610824575b5050505050905090565b6000601254905090565b61088a61150a565b73ffffffffffffffffffffffffffffffffffffffff168173ffffffffffffffffffffffffffffffffffffffff16036108f957806040517fa4f2199f0000000000000000000000000000000000000000000000000000000081526004016108f09190612876565b60405180910390fd5b6000600a8054905011610941576040517fe9e10a64000000000000000000000000000000000000000000000000000000008152600401610938906128a4565b60405180910390fd5b61094a33611e66565b61098b57336040517f8e8bbab90000000000000000000000000000000000000000000000000000000081526004016109829190612876565b60405180910390fd5b4260128190555080601560016101000a81548173ffffffffffffffffffffffffffffffffffffffff021916908373ffffffffffffffffffffffffffffffffffffffff1602179055506001601660003373ffffffffffffffffffffffffffffffffffffffff1673ffffffffffffffffffffffffffffffffffffffff16815260200190815260200160002060006101000a81548160ff02191690831515021790555060146000815480929190610a3e906128f3565b91905055506001601560006101000a81548160ff02191690831515021790555050565b600047905090565b6000600654905090565b6000600b54905090565b6000600954905090565b6000600a8054905011610acf576040517fe9e10a64000000000000000000000000000000000000000000000000000000008152600401610ac690612987565b60405180910390fd5b600f60009054906101000a900460ff16610b1e576040517fe4363ca3000000000000000000000000000000000000000000000000000000008152600401610b1590612987565b60405180910390fd5b600e54600d54610b2e91906129a7565b421115610b7857610b3d611f75565b6040517f5130ce4e000000000000000000000000000000000000000000000000000000008152600401610b6f90612987565b60405180910390fd5b601060003373ffffffffffffffffffffffffffffffffffffffff1673ffffffffffffffffffffffffffffffffffffffff16815260200190815260200160002060009054906101000a900460ff1615610c0757336040517f40b28742000000000000000000000000000000000000000000000000000000008152600401610bfe91906129db565b60405180910390fd5b610c1033611e66565b610c5157336040517f8e8bbab9000000000000000000000000000000000000000000000000000000008152600401610c4891906129db565b60405180910390fd5b6001601060003373ffffffffffffffffffffffffffffffffffffffff1673ffffffffffffffffffffffffffffffffffffffff16815260200190815260200160002060006101000a81548160ff021916908315150217905550565b600060085460075414610cc057600754610cc3565b60005b905090565b6000601354905090565b6000601560009054906101000a900460ff16905090565b610cf161211d565b610cf961219b565b600654600754610d0991906129a7565b421015610d4b576040517f2ab71fd6000000000000000000000000000000000000000000000000000000008152600401610d4290612a55565b60405180910390fd5b6000600a8054905011610d93576040517fe9e10a64000000000000000000000000000000000000000000000000000000008152600401610d8a90612a55565b60405180910390fd5b610d9c81611e66565b610ddb576040517f47637222000000000000000000000000000000000000000000000000000000008152600401610dd290612a55565b60405180910390fd5b6000600a805480602002602001604051908101604052809291908181526020018280548015610e5f57602002820191906000526020600020905b8160009054906101000a900473ffffffffffffffffffffffffffffffffffffffff1673ffffffffffffffffffffffffffffffffffffffff1681526020019060010190808311610e15575b50505050509050600060018251610e769190612a75565b67ffffffffffffffff811115610e8f57610e8e612aa9565b5b604051908082528060200260200182016040528015610ebd5781602001602082028036833780820191505090505b50905060008060005b8451811015610faf578573ffffffffffffffffffffffffffffffffffffffff16858281518110610ef957610ef8612ad8565b5b602002602001015173ffffffffffffffffffffffffffffffffffffffff1603610f255760019150610f9c565b848181518110610f3857610f37612ad8565b5b6020026020010151848481518110610f5357610f52612ad8565b5b602002602001019073ffffffffffffffffffffffffffffffffffffffff16908173ffffffffffffffffffffffffffffffffffffffff16815250508280610f98906128f3565b9350505b8080610fa7906128f3565b915050610ec6565b508015610fd55782600a9080519060200190610fcc929190612495565b50426007819055505b50505050610fe16121ea565b50565b610fec61211d565b610ff660006121f3565b565b60006008546003541461100d57600354611010565b60005b905090565b61101d61211d565b80601160006101000a81548173ffffffffffffffffffffffffffffffffffffffff021916908373ffffffffffffffffffffffffffffffffffffffff16021790555050565b6000600d54905090565b61107361211d565b61107b61219b565b60045460055461108b91906129a7565b4210156110cd576040517f0e7f7d150000000000000000000000000000000000000000000000000000000081526004016110c490612a55565b60405180910390fd5b6000600a80548060200260200160405190810160405280929190818152602001828054801561115157602002820191906000526020600020905b8160009054906101000a900473ffffffffffffffffffffffffffffffffffffffff1673ffffffffffffffffffffffffffffffffffffffff1681526020019060010190808311611107575b505050505090506000805b825181101561121c578473ffffffffffffffffffffffffffffffffffffffff1683828151811061118f5761118e612ad8565b5b602002602001015173ffffffffffffffffffffffffffffffffffffffff16036112095760019150838382815181106111ca576111c9612ad8565b5b602002602001019073ffffffffffffffffffffffffffffffffffffffff16908173ffffffffffffffffffffffffffffffffffffffff168152505061121c565b8080611214906128f3565b91505061115c565b5080156112465781600a9080519060200190611239929190612495565b5042600581905550611281565b6040517f4763722200000000000000000000000000000000000000000000000000000000815260040161127890612a55565b60405180910390fd5b505061128b6121ea565b5050565b6000600a80549050116112d7576040517fe9e10a640000000000000000000000000000000000000000000000000000000081526004016112ce906128a4565b60405180910390fd5b601560009054906101000a900460ff16611326576040517f7bd1f7a200000000000000000000000000000000000000000000000000000000815260040161131d906128a4565b60405180910390fd5b601660003373ffffffffffffffffffffffffffffffffffffffff1673ffffffffffffffffffffffffffffffffffffffff16815260200190815260200160002060009054906101000a900460ff16156113b557336040517f40b287420000000000000000000000000000000000000000000000000000000081526004016113ac9190612876565b60405180910390fd5b6013546012546113c591906129a7565b42111561140f576113d46122b7565b6040517f5130ce4e000000000000000000000000000000000000000000000000000000008152600401611406906128a4565b60405180910390fd5b61141833611e66565b61145957336040517f8e8bbab90000000000000000000000000000000000000000000000000000000081526004016114509190612876565b60405180910390fd5b6001601660003373ffffffffffffffffffffffffffffffffffffffff1673ffffffffffffffffffffffffffffffffffffffff16815260200190815260200160002060006101000a81548160ff021916908315150217905550601460008154809291906114c4906128f3565b919050555060095460145410611508576114ff601560019054906101000a900473ffffffffffffffffffffffffffffffffffffffff166121f3565b6115076122b7565b5b565b60008060009054906101000a900473ffffffffffffffffffffffffffffffffffffffff16905090565b6000600f60009054906101000a900460ff16905090565b600080611555611584565b90506000670de0b6b3a7640000600b54836115709190612b07565b61157a9190612b78565b9050809250505090565b600080601160009054906101000a900473ffffffffffffffffffffffffffffffffffffffff1673ffffffffffffffffffffffffffffffffffffffff1663feaf968c6040518163ffffffff1660e01b815260040160a060405180830381865afa1580156115f4573d6000803e3d6000fd5b505050506040513d601f19601f820116820180604052508101906116189190612c36565b5050509150506402540be4008161162f9190612cb1565b91505090565b61163d61211d565b61164561219b565b60025460035461165591906129a7565b421015611697576040517fdd49edf800000000000000000000000000000000000000000000000000000000815260040161168e90612a55565b60405180910390fd5b600a819080600181540180825580915050600190039060005260206000200160009091909190916101000a81548173ffffffffffffffffffffffffffffffffffffffff021916908373ffffffffffffffffffffffffffffffffffffffff16021790555042600381905550611709612467565b6117116121ea565b50565b6000600254905090565b6000600e54905090565b6000601660008373ffffffffffffffffffffffffffffffffffffffff1673ffffffffffffffffffffffffffffffffffffffff16815260200190815260200160002060009054906101000a900460ff169050919050565b6000601454905090565b61179061211d565b61179861219b565b600081116117dd57806040517fc816f5c80000000000000000000000000000000000000000000000000000000081526004016117d49190612d29565b60405180910390fd5b600b5481111561182457806040517fd8dde22d00000000000000000000000000000000000000000000000000000000815260040161181b9190612d29565b60405180910390fd5b60008273ffffffffffffffffffffffffffffffffffffffff168260405161184a90612d88565b60006040518083038185875af1925050503d8060008114611887576040519150601f19603f3d011682016040523d82523d6000602084013e61188c565b606091505b50509050806118d0576040517f5b0ecddc0000000000000000000000000000000000000000000000000000000081526004016118c790612987565b60405180910390fd5b506118d96121ea565b5050565b6118e561211d565b6000811161192a57806040517f60fe2e4f0000000000000000000000000000000000000000000000000000000081526004016119219190612d29565b60405180910390fd5b42600d8190555080600c819055506001600f60006101000a81548160ff02191690831515021790555050565b61195e61211d565b61196661219b565b6000479050600081116119b057806040517f25ba08f50000000000000000000000000000000000000000000000000000000081526004016119a79190612d29565b60405180910390fd5b600b548111156119f757806040517fd8dde22d0000000000000000000000000000000000000000000000000000000081526004016119ee9190612d29565b60405180910390fd5b60008273ffffffffffffffffffffffffffffffffffffffff1682604051611a1d90612d88565b60006040518083038185875af1925050503d8060008114611a5a576040519150601f19603f3d011682016040523d82523d6000602084013e611a5f565b606091505b5050905080611aa3576040517f5b0ecddc000000000000000000000000000000000000000000000000000000008152600401611a9a90612987565b60405180910390fd5b5050611aad6121ea565b50565b6000601060008373ffffffffffffffffffffffffffffffffffffffff1673ffffffffffffffffffffffffffffffffffffffff16815260200190815260200160002060009054906101000a900460ff169050919050565b600060085460055414611b1b57600554611b1e565b60005b905090565b6000600454905090565b600080611b38611584565b90506000670de0b6b3a76400004783611b519190612b07565b611b5b9190612b78565b9050809250505090565b611b6d61211d565b600073ffffffffffffffffffffffffffffffffffffffff168173ffffffffffffffffffffffffffffffffffffffff1603611bdc576040517f08c379a0000000000000000000000000000000000000000000000000000000008152600401611bd390612e0f565b60405180910390fd5b611be5816121f3565b50565b611bf061211d565b6000600a8054905011611c38576040517fe9e10a64000000000000000000000000000000000000000000000000000000008152600401611c2f90612987565b60405180910390fd5b600f60009054906101000a900460ff16611c87576040517fe4363ca3000000000000000000000000000000000000000000000000000000008152600401611c7e90612987565b60405180910390fd5b600e54600d54611c9791906129a7565b421115611ce157611ca6611f75565b6040517f5130ce4e000000000000000000000000000000000000000000000000000000008152600401611cd890612987565b60405180910390fd5b6000600a805480602002602001604051908101604052809291908181526020018280548015611d6557602002820191906000526020600020905b8160009054906101000a900473ffffffffffffffffffffffffffffffffffffffff1673ffffffffffffffffffffffffffffffffffffffff1681526020019060010190808311611d1b575b505050505090506000805b8251811015611e075760106000848381518110611d9057611d8f612ad8565b5b602002602001015173ffffffffffffffffffffffffffffffffffffffff1673ffffffffffffffffffffffffffffffffffffffff16815260200190815260200160002060009054906101000a900460ff1615611df4578180611df0906128f3565b9250505b8080611dff906128f3565b915050611d70565b50600954811015611e51576009546040517f9dd75b3a000000000000000000000000000000000000000000000000000000008152600401611e489190612d29565b60405180910390fd5b600c54600b81905550611e62611f75565b5050565b600080600a805480602002602001604051908101604052809291908181526020018280548015611eeb57602002820191906000526020600020905b8160009054906101000a900473ffffffffffffffffffffffffffffffffffffffff1673ffffffffffffffffffffffffffffffffffffffff1681526020019060010190808311611ea1575b5050505050905060005b8151811015611f6957818181518110611f1157611f10612ad8565b5b602002602001015173ffffffffffffffffffffffffffffffffffffffff168473ffffffffffffffffffffffffffffffffffffffff1603611f5657600192505050611f70565b8080611f61906128f3565b915050611ef5565b5060009150505b919050565b6000600f60006101000a81548160ff0219169083151502179055506000600a80548060200260200160405190810160405280929190818152602001828054801561201457602002820191906000526020600020905b8160009054906101000a900473ffffffffffffffffffffffffffffffffffffffff1673ffffffffffffffffffffffffffffffffffffffff1681526020019060010190808311611fca575b5050505050905060005b8151811015612119576010600083838151811061203e5761203d612ad8565b5b602002602001015173ffffffffffffffffffffffffffffffffffffffff1673ffffffffffffffffffffffffffffffffffffffff16815260200190815260200160002060009054906101000a900460ff1615612106576000601060008484815181106120ac576120ab612ad8565b5b602002602001015173ffffffffffffffffffffffffffffffffffffffff1673ffffffffffffffffffffffffffffffffffffffff16815260200190815260200160002060006101000a81548160ff0219169083151502179055505b8080612111906128f3565b91505061201e565b5050565b61212561248d565b73ffffffffffffffffffffffffffffffffffffffff1661214361150a565b73ffffffffffffffffffffffffffffffffffffffff1614612199576040517f08c379a000000000000000000000000000000000000000000000000000000000815260040161219090612e7b565b60405180910390fd5b565b6002600154036121e0576040517f08c379a00000000000000000000000000000000000000000000000000000000081526004016121d790612ee7565b60405180910390fd5b6002600181905550565b60018081905550565b60008060009054906101000a900473ffffffffffffffffffffffffffffffffffffffff169050816000806101000a81548173ffffffffffffffffffffffffffffffffffffffff021916908373ffffffffffffffffffffffffffffffffffffffff1602179055508173ffffffffffffffffffffffffffffffffffffffff168173ffffffffffffffffffffffffffffffffffffffff167f8be0079c531659141344cd1fd0a4f28419497f9722a3daafe3b4186f6b6457e060405160405180910390a35050565b6000601560006101000a81548160ff02191690831515021790555060006014819055506000600a80548060200260200160405190810160405280929190818152602001828054801561235e57602002820191906000526020600020905b8160009054906101000a900473ffffffffffffffffffffffffffffffffffffffff1673ffffffffffffffffffffffffffffffffffffffff1681526020019060010190808311612314575b5050505050905060005b8151811015612463576016600083838151811061238857612387612ad8565b5b602002602001015173ffffffffffffffffffffffffffffffffffffffff1673ffffffffffffffffffffffffffffffffffffffff16815260200190815260200160002060009054906101000a900460ff1615612450576000601660008484815181106123f6576123f5612ad8565b5b602002602001015173ffffffffffffffffffffffffffffffffffffffff1673ffffffffffffffffffffffffffffffffffffffff16815260200190815260200160002060006101000a81548160ff0219169083151502179055505b808061245b906128f3565b915050612368565b5050565b60016002600a8054905061247b9190612b78565b61248591906129a7565b600981905550565b600033905090565b82805482825590600052602060002090810192821561250e579160200282015b8281111561250d5782518260006101000a81548173ffffffffffffffffffffffffffffffffffffffff021916908373ffffffffffffffffffffffffffffffffffffffff160217905550916020019190600101906124b5565b5b50905061251b919061251f565b5090565b5b80821115612538576000816000905550600101612520565b5090565b600081519050919050565b600082825260208201905092915050565b6000819050602082019050919050565b600073ffffffffffffffffffffffffffffffffffffffff82169050919050565b600061259382612568565b9050919050565b6125a381612588565b82525050565b60006125b5838361259a565b60208301905092915050565b6000602082019050919050565b60006125d98261253c565b6125e38185612547565b93506125ee83612558565b8060005b8381101561261f57815161260688826125a9565b9750612611836125c1565b9250506001810190506125f2565b5085935050505092915050565b6000602082019050818103600083015261264681846125ce565b905092915050565b6000819050919050565b6126618161264e565b82525050565b600060208201905061267c6000830184612658565b92915050565b600080fd5b61269081612588565b811461269b57600080fd5b50565b6000813590506126ad81612687565b92915050565b6000602082840312156126c9576126c8612682565b5b60006126d78482850161269e565b91505092915050565b60008115159050919050565b6126f5816126e0565b82525050565b600060208201905061271060008301846126ec565b92915050565b6000806040838503121561272d5761272c612682565b5b600061273b8582860161269e565b925050602061274c8582860161269e565b9150509250929050565b61275f81612588565b82525050565b600060208201905061277a6000830184612756565b92915050565b6127898161264e565b811461279457600080fd5b50565b6000813590506127a681612780565b92915050565b600080604083850312156127c3576127c2612682565b5b60006127d18582860161269e565b92505060206127e285828601612797565b9150509250929050565b60006020828403121561280257612801612682565b5b600061281084828501612797565b91505092915050565b600082825260208201905092915050565b7f4f776e6572736869704d616e6167657200000000000000000000000000000000600082015250565b6000612860601083612819565b915061286b8261282a565b602082019050919050565b6000604082019050818103600083015261288f81612853565b905061289e6020830184612756565b92915050565b600060208201905081810360008301526128bd81612853565b9050919050565b7f4e487b7100000000000000000000000000000000000000000000000000000000600052601160045260246000fd5b60006128fe8261264e565b91507fffffffffffffffffffffffffffffffffffffffffffffffffffffffffffffffff82036129305761292f6128c4565b5b600182019050919050565b7f46756e64734d616e616765720000000000000000000000000000000000000000600082015250565b6000612971600c83612819565b915061297c8261293b565b602082019050919050565b600060208201905081810360008301526129a081612964565b9050919050565b60006129b28261264e565b91506129bd8361264e565b92508282019050808211156129d5576129d46128c4565b5b92915050565b600060408201905081810360008301526129f481612964565b9050612a036020830184612756565b92915050565b7f477561726469616e734d616e6167657200000000000000000000000000000000600082015250565b6000612a3f601083612819565b9150612a4a82612a09565b602082019050919050565b60006020820190508181036000830152612a6e81612a32565b9050919050565b6000612a808261264e565b9150612a8b8361264e565b9250828203905081811115612aa357612aa26128c4565b5b92915050565b7f4e487b7100000000000000000000000000000000000000000000000000000000600052604160045260246000fd5b7f4e487b7100000000000000000000000000000000000000000000000000000000600052603260045260246000fd5b6000612b128261264e565b9150612b1d8361264e565b9250828202612b2b8161264e565b91508282048414831517612b4257612b416128c4565b5b5092915050565b7f4e487b7100000000000000000000000000000000000000000000000000000000600052601260045260246000fd5b6000612b838261264e565b9150612b8e8361264e565b925082612b9e57612b9d612b49565b5b828204905092915050565b600069ffffffffffffffffffff82169050919050565b612bc881612ba9565b8114612bd357600080fd5b50565b600081519050612be581612bbf565b92915050565b6000819050919050565b612bfe81612beb565b8114612c0957600080fd5b50565b600081519050612c1b81612bf5565b92915050565b600081519050612c3081612780565b92915050565b600080600080600060a08688031215612c5257612c51612682565b5b6000612c6088828901612bd6565b9550506020612c7188828901612c0c565b9450506040612c8288828901612c21565b9350506060612c9388828901612c21565b9250506080612ca488828901612bd6565b9150509295509295909350565b6000612cbc82612beb565b9150612cc783612beb565b9250828202612cd581612beb565b91507f80000000000000000000000000000000000000000000000000000000000000008414600084121615612d0d57612d0c6128c4565b5b8282058414831517612d2257612d216128c4565b5b5092915050565b60006040820190508181036000830152612d4281612964565b9050612d516020830184612658565b92915050565b600081905092915050565b50565b6000612d72600083612d57565b9150612d7d82612d62565b600082019050919050565b6000612d9382612d65565b9150819050919050565b7f4f776e61626c653a206e6577206f776e657220697320746865207a65726f206160008201527f6464726573730000000000000000000000000000000000000000000000000000602082015250565b6000612df9602683612819565b9150612e0482612d9d565b604082019050919050565b60006020820190508181036000830152612e2881612dec565b9050919050565b7f4f776e61626c653a2063616c6c6572206973206e6f7420746865206f776e6572600082015250565b6000612e65602083612819565b9150612e7082612e2f565b602082019050919050565b60006020820190508181036000830152612e9481612e58565b9050919050565b7f5265656e7472616e637947756172643a207265656e7472616e742063616c6c00600082015250565b6000612ed1601f83612819565b9150612edc82612e9b565b602082019050919050565b60006020820190508181036000830152612f0081612ec4565b905091905056fea26469706673582212209161c0e55538454f0b663591f2b66ea96ecc3cff8d3f0e03ee558f0a765be66f64736f6c63430008110033",
  "devdoc": {
    "kind": "dev",
    "methods": {
      "owner()": {
        "details": "Returns the address of the current owner."
      },
      "renounceOwnership()": {
        "details": "Leaves the contract without owner. It will not be possible to call `onlyOwner` functions anymore. Can only be called by the current owner. NOTE: Renouncing ownership will leave the contract without an owner, thereby removing any functionality that is only available to the owner."
      },
      "transferOwnership(address)": {
        "details": "Transfers ownership of the contract to a new account (`newOwner`). Can only be called by the current owner."
      }
    },
    "version": 1
  },
  "userdoc": {
    "kind": "user",
    "methods": {},
    "version": 1
  },
  "storageLayout": {
    "storage": [
      {
        "astId": 53,
        "contract": "contracts/Guardian.sol:Guardian",
        "label": "_owner",
        "offset": 0,
        "slot": "0",
        "type": "t_address"
      },
      {
        "astId": 169,
        "contract": "contracts/Guardian.sol:Guardian",
        "label": "_status",
        "offset": 0,
        "slot": "1",
        "type": "t_uint256"
      },
      {
        "astId": 892,
        "contract": "contracts/Guardian.sol:Guardian",
        "label": "addGuardianDelay",
        "offset": 0,
        "slot": "2",
        "type": "t_uint256"
      },
      {
        "astId": 894,
        "contract": "contracts/Guardian.sol:Guardian",
        "label": "lastGuardianAddTime",
        "offset": 0,
        "slot": "3",
        "type": "t_uint256"
      },
      {
        "astId": 896,
        "contract": "contracts/Guardian.sol:Guardian",
        "label": "changeGuardianDelay",
        "offset": 0,
        "slot": "4",
        "type": "t_uint256"
      },
      {
        "astId": 898,
        "contract": "contracts/Guardian.sol:Guardian",
        "label": "lastGuardianChangeTime",
        "offset": 0,
        "slot": "5",
        "type": "t_uint256"
      },
      {
        "astId": 900,
        "contract": "contracts/Guardian.sol:Guardian",
        "label": "removeGuardianDelay",
        "offset": 0,
        "slot": "6",
        "type": "t_uint256"
      },
      {
        "astId": 902,
        "contract": "contracts/Guardian.sol:Guardian",
        "label": "lastGuardianRemovalTime",
        "offset": 0,
        "slot": "7",
        "type": "t_uint256"
      },
      {
        "astId": 904,
        "contract": "contracts/Guardian.sol:Guardian",
        "label": "contractDeployTime",
        "offset": 0,
        "slot": "8",
        "type": "t_uint256"
      },
      {
        "astId": 906,
        "contract": "contracts/Guardian.sol:Guardian",
        "label": "requiredConfirmations",
        "offset": 0,
        "slot": "9",
        "type": "t_uint256"
      },
      {
        "astId": 909,
        "contract": "contracts/Guardian.sol:Guardian",
        "label": "guardians",
        "offset": 0,
        "slot": "10",
        "type": "t_array(t_address)dyn_storage"
      },
      {
        "astId": 336,
        "contract": "contracts/Guardian.sol:Guardian",
        "label": "dailyTransferLimit",
        "offset": 0,
        "slot": "11",
        "type": "t_uint256"
      },
      {
        "astId": 338,
        "contract": "contracts/Guardian.sol:Guardian",
        "label": "tempDailyTransferLimit",
        "offset": 0,
        "slot": "12",
        "type": "t_uint256"
      },
      {
        "astId": 340,
        "contract": "contracts/Guardian.sol:Guardian",
        "label": "lastDailyTransferUpdateRequestTime",
        "offset": 0,
        "slot": "13",
        "type": "t_uint256"
      },
      {
        "astId": 342,
        "contract": "contracts/Guardian.sol:Guardian",
        "label": "dailyTransferLimitUpdateConfirmationTime",
        "offset": 0,
        "slot": "14",
        "type": "t_uint256"
      },
      {
        "astId": 344,
        "contract": "contracts/Guardian.sol:Guardian",
        "label": "isDailyTransferLimitUpdateRequested",
        "offset": 0,
        "slot": "15",
        "type": "t_bool"
      },
      {
        "astId": 348,
        "contract": "contracts/Guardian.sol:Guardian",
        "label": "isConfirmedByGuardian",
        "offset": 0,
        "slot": "16",
        "type": "t_mapping(t_address,t_bool)"
      },
      {
        "astId": 351,
        "contract": "contracts/Guardian.sol:Guardian",
        "label": "priceFeed",
        "offset": 0,
        "slot": "17",
        "type": "t_contract(AggregatorV3Interface)45"
      },
      {
        "astId": 1318,
        "contract": "contracts/Guardian.sol:Guardian",
        "label": "lastOwnerUpdateRequestTime",
        "offset": 0,
        "slot": "18",
        "type": "t_uint256"
      },
      {
        "astId": 1320,
        "contract": "contracts/Guardian.sol:Guardian",
        "label": "ownerUpdateConfirmationTime",
        "offset": 0,
        "slot": "19",
        "type": "t_uint256"
      },
      {
        "astId": 1322,
        "contract": "contracts/Guardian.sol:Guardian",
        "label": "noOfConfirmations",
        "offset": 0,
        "slot": "20",
        "type": "t_uint256"
      },
      {
        "astId": 1324,
        "contract": "contracts/Guardian.sol:Guardian",
        "label": "isOwnerUpdateRequested",
        "offset": 0,
        "slot": "21",
        "type": "t_bool"
      },
      {
        "astId": 1326,
        "contract": "contracts/Guardian.sol:Guardian",
        "label": "tempAddress",
        "offset": 1,
        "slot": "21",
        "type": "t_address"
      },
      {
        "astId": 1330,
        "contract": "contracts/Guardian.sol:Guardian",
        "label": "isOwnershipConfimedByGuardian",
        "offset": 0,
        "slot": "22",
        "type": "t_mapping(t_address,t_bool)"
      }
    ],
    "types": {
      "t_address": {
        "encoding": "inplace",
        "label": "address",
        "numberOfBytes": "20"
      },
      "t_array(t_address)dyn_storage": {
        "base": "t_address",
        "encoding": "dynamic_array",
        "label": "address[]",
        "numberOfBytes": "32"
      },
      "t_bool": {
        "encoding": "inplace",
        "label": "bool",
        "numberOfBytes": "1"
      },
      "t_contract(AggregatorV3Interface)45": {
        "encoding": "inplace",
        "label": "contract AggregatorV3Interface",
        "numberOfBytes": "20"
      },
      "t_mapping(t_address,t_bool)": {
        "encoding": "mapping",
        "key": "t_address",
        "label": "mapping(address => bool)",
        "numberOfBytes": "32",
        "value": "t_bool"
      },
      "t_uint256": {
        "encoding": "inplace",
        "label": "uint256",
        "numberOfBytes": "32"
      }
    }
  }
}