{
  "address": "0xe7f1725E7734CE288F8367e1Bb143E90bb3F0512",
  "abi": [
    {
      "inputs": [
        {
          "internalType": "address",
          "name": "priceFeed",
          "type": "address"
        }
      ],
      "stateMutability": "nonpayable",
      "type": "constructor"
    },
    {
      "inputs": [
        {
          "internalType": "string",
          "name": "location",
          "type": "string"
        },
        {
          "internalType": "address",
          "name": "addr",
          "type": "address"
        }
      ],
      "name": "Error__AddressAlreadyAnOwner",
      "type": "error"
    },
    {
      "inputs": [
        {
          "internalType": "string",
          "name": "location",
          "type": "string"
        },
        {
          "internalType": "address",
          "name": "addr",
          "type": "address"
        }
      ],
      "name": "Error__AddressNotFoundAsGuardian",
      "type": "error"
    },
    {
      "inputs": [
        {
          "internalType": "string",
          "name": "location",
          "type": "string"
        },
        {
          "internalType": "address",
          "name": "guardian",
          "type": "address"
        }
      ],
      "name": "Error__AlreadyConfirmedByGuardian",
      "type": "error"
    },
    {
      "inputs": [
        {
          "internalType": "string",
          "name": "location",
          "type": "string"
        },
        {
          "internalType": "uint256",
          "name": "balance",
          "type": "uint256"
        }
      ],
      "name": "Error__BalanceIsZero",
      "type": "error"
    },
    {
      "inputs": [
        {
          "internalType": "string",
          "name": "location",
          "type": "string"
        }
      ],
      "name": "Error__CanOnlyAddAfterDelayPeriod",
      "type": "error"
    },
    {
      "inputs": [
        {
          "internalType": "string",
          "name": "location",
          "type": "string"
        }
      ],
      "name": "Error__CanOnlyChangeAfterDelayPeriod",
      "type": "error"
    },
    {
      "inputs": [
        {
          "internalType": "string",
          "name": "location",
          "type": "string"
        }
      ],
      "name": "Error__CanOnlyRemoveAfterDelayPeriod",
      "type": "error"
    },
    {
      "inputs": [
        {
          "internalType": "string",
          "name": "location",
          "type": "string"
        },
        {
          "internalType": "uint256",
          "name": "amount",
          "type": "uint256"
        }
      ],
      "name": "Error__DailyTransferLimitExceed",
      "type": "error"
    },
    {
      "inputs": [
        {
          "internalType": "string",
          "name": "location",
          "type": "string"
        }
      ],
      "name": "Error__GuardianDoesNotExist",
      "type": "error"
    },
    {
      "inputs": [
        {
          "internalType": "string",
          "name": "location",
          "type": "string"
        }
      ],
      "name": "Error__GuardiansListIsEmpty",
      "type": "error"
    },
    {
      "inputs": [
        {
          "internalType": "string",
          "name": "location",
          "type": "string"
        },
        {
          "internalType": "uint256",
          "name": "amount",
          "type": "uint256"
        }
      ],
      "name": "Error__InvalidAmount",
      "type": "error"
    },
    {
      "inputs": [
        {
          "internalType": "string",
          "name": "location",
          "type": "string"
        },
        {
          "internalType": "uint256",
          "name": "limit",
          "type": "uint256"
        }
      ],
      "name": "Error__InvalidLimit",
      "type": "error"
    },
    {
      "inputs": [
        {
          "internalType": "string",
          "name": "location",
          "type": "string"
        }
      ],
      "name": "Error__RequestTimeExpired",
      "type": "error"
    },
    {
      "inputs": [
        {
          "internalType": "string",
          "name": "location",
          "type": "string"
        },
        {
          "internalType": "uint256",
          "name": "confirmations",
          "type": "uint256"
        }
      ],
      "name": "Error__RequiredConfirmationsNotMet",
      "type": "error"
    },
    {
      "inputs": [
        {
          "internalType": "string",
          "name": "location",
          "type": "string"
        }
      ],
      "name": "Error__TransactionFailed",
      "type": "error"
    },
    {
      "inputs": [
        {
          "internalType": "string",
          "name": "location",
          "type": "string"
        }
      ],
      "name": "Error__UpdateNotRequested",
      "type": "error"
    },
    {
      "inputs": [
        {
          "internalType": "string",
          "name": "location",
          "type": "string"
        }
      ],
      "name": "Error__UpdateNotRequestedByOwner",
      "type": "error"
    },
    {
      "anonymous": false,
      "inputs": [
        {
          "indexed": true,
          "internalType": "address",
          "name": "previousOwner",
          "type": "address"
        },
        {
          "indexed": true,
          "internalType": "address",
          "name": "newOwner",
          "type": "address"
        }
      ],
      "name": "OwnershipTransferred",
      "type": "event"
    },
    {
      "stateMutability": "payable",
      "type": "fallback"
    },
    {
      "inputs": [
        {
          "internalType": "address",
          "name": "guardian",
          "type": "address"
        }
      ],
      "name": "addGuardian",
      "outputs": [],
      "stateMutability": "nonpayable",
      "type": "function"
    },
    {
      "inputs": [
        {
          "internalType": "address",
          "name": "from",
          "type": "address"
        },
        {
          "internalType": "address",
          "name": "to",
          "type": "address"
        }
      ],
      "name": "changeGuardian",
      "outputs": [],
      "stateMutability": "nonpayable",
      "type": "function"
    },
    {
      "inputs": [],
      "name": "confirmAndUpdate",
      "outputs": [],
      "stateMutability": "nonpayable",
      "type": "function"
    },
    {
      "inputs": [],
      "name": "confirmDailyTransferLimitRequest",
      "outputs": [],
      "stateMutability": "nonpayable",
      "type": "function"
    },
    {
      "inputs": [],
      "name": "confirmUpdateOwnerRequest",
      "outputs": [],
      "stateMutability": "nonpayable",
      "type": "function"
    },
    {
      "inputs": [],
      "name": "getAddGuardianDelay",
      "outputs": [
        {
          "internalType": "uint256",
          "name": "",
          "type": "uint256"
        }
      ],
      "stateMutability": "view",
      "type": "function"
    },
    {
      "inputs": [],
      "name": "getBalance",
      "outputs": [
        {
          "internalType": "uint256",
          "name": "",
          "type": "uint256"
        }
      ],
      "stateMutability": "view",
      "type": "function"
    },
    {
      "inputs": [],
      "name": "getBalanceInUSD",
      "outputs": [
        {
          "internalType": "uint256",
          "name": "",
          "type": "uint256"
        }
      ],
      "stateMutability": "view",
      "type": "function"
    },
    {
      "inputs": [],
      "name": "getChangeGuardianDelay",
      "outputs": [
        {
          "internalType": "uint256",
          "name": "",
          "type": "uint256"
        }
      ],
      "stateMutability": "view",
      "type": "function"
    },
    {
      "inputs": [],
      "name": "getDailyTransferLimit",
      "outputs": [
        {
          "internalType": "uint256",
          "name": "",
          "type": "uint256"
        }
      ],
      "stateMutability": "view",
      "type": "function"
    },
    {
      "inputs": [],
      "name": "getDailyTransferLimitInUSD",
      "outputs": [
        {
          "internalType": "uint256",
          "name": "",
          "type": "uint256"
        }
      ],
      "stateMutability": "view",
      "type": "function"
    },
    {
      "inputs": [],
      "name": "getDailyTransferLimitUpdateConfirmationTime",
      "outputs": [
        {
          "internalType": "uint256",
          "name": "",
          "type": "uint256"
        }
      ],
      "stateMutability": "view",
      "type": "function"
    },
    {
      "inputs": [],
      "name": "getDailyTransferLimitUpdateRequestStatus",
      "outputs": [
        {
          "internalType": "bool",
          "name": "",
          "type": "bool"
        }
      ],
      "stateMutability": "view",
      "type": "function"
    },
    {
      "inputs": [
        {
          "internalType": "address",
          "name": "guardian",
          "type": "address"
        }
      ],
      "name": "getGuardianConfirmationStatus",
      "outputs": [
        {
          "internalType": "bool",
          "name": "",
          "type": "bool"
        }
      ],
      "stateMutability": "view",
      "type": "function"
    },
    {
      "inputs": [],
      "name": "getGuardians",
      "outputs": [
        {
          "internalType": "address[]",
          "name": "",
          "type": "address[]"
        }
      ],
      "stateMutability": "view",
      "type": "function"
    },
    {
      "inputs": [],
      "name": "getIsOwnerUpdateRequested",
      "outputs": [
        {
          "internalType": "bool",
          "name": "",
          "type": "bool"
        }
      ],
      "stateMutability": "view",
      "type": "function"
    },
    {
      "inputs": [
        {
          "internalType": "address",
          "name": "guardian",
          "type": "address"
        }
      ],
      "name": "getIsOwnershipConfimedByGuardian",
      "outputs": [
        {
          "internalType": "bool",
          "name": "",
          "type": "bool"
        }
      ],
      "stateMutability": "view",
      "type": "function"
    },
    {
      "inputs": [],
      "name": "getLastDailyTransferUpdateRequestTime",
      "outputs": [
        {
          "internalType": "uint256",
          "name": "",
          "type": "uint256"
        }
      ],
      "stateMutability": "view",
      "type": "function"
    },
    {
      "inputs": [],
      "name": "getLastGuardianAddTime",
      "outputs": [
        {
          "internalType": "uint256",
          "name": "",
          "type": "uint256"
        }
      ],
      "stateMutability": "view",
      "type": "function"
    },
    {
      "inputs": [],
      "name": "getLastGuardianChangeTime",
      "outputs": [
        {
          "internalType": "uint256",
          "name": "",
          "type": "uint256"
        }
      ],
      "stateMutability": "view",
      "type": "function"
    },
    {
      "inputs": [],
      "name": "getLastGuardianRemovalTime",
      "outputs": [
        {
          "internalType": "uint256",
          "name": "",
          "type": "uint256"
        }
      ],
      "stateMutability": "view",
      "type": "function"
    },
    {
      "inputs": [],
      "name": "getLastOwnerUpdateRequestTime",
      "outputs": [
        {
          "internalType": "uint256",
          "name": "",
          "type": "uint256"
        }
      ],
      "stateMutability": "view",
      "type": "function"
    },
    {
      "inputs": [],
      "name": "getNoOfConfirmations",
      "outputs": [
        {
          "internalType": "uint256",
          "name": "",
          "type": "uint256"
        }
      ],
      "stateMutability": "view",
      "type": "function"
    },
    {
      "inputs": [],
      "name": "getOwnerUpdateConfirmationTime",
      "outputs": [
        {
          "internalType": "uint256",
          "name": "",
          "type": "uint256"
        }
      ],
      "stateMutability": "view",
      "type": "function"
    },
    {
      "inputs": [],
      "name": "getPrice",
      "outputs": [
        {
          "internalType": "uint256",
          "name": "",
          "type": "uint256"
        }
      ],
      "stateMutability": "view",
      "type": "function"
    },
    {
      "inputs": [],
      "name": "getRemoveGuardianDelay",
      "outputs": [
        {
          "internalType": "uint256",
          "name": "",
          "type": "uint256"
        }
      ],
      "stateMutability": "view",
      "type": "function"
    },
    {
      "inputs": [],
      "name": "getRequiredConfirmations",
      "outputs": [
        {
          "internalType": "uint256",
          "name": "",
          "type": "uint256"
        }
      ],
      "stateMutability": "view",
      "type": "function"
    },
    {
      "inputs": [],
      "name": "owner",
      "outputs": [
        {
          "internalType": "address",
          "name": "",
          "type": "address"
        }
      ],
      "stateMutability": "view",
      "type": "function"
    },
    {
      "inputs": [
        {
          "internalType": "address",
          "name": "guardian",
          "type": "address"
        }
      ],
      "name": "removeGuardian",
      "outputs": [],
      "stateMutability": "nonpayable",
      "type": "function"
    },
    {
      "inputs": [],
      "name": "renounceOwnership",
      "outputs": [],
      "stateMutability": "nonpayable",
      "type": "function"
    },
    {
      "inputs": [
        {
          "internalType": "uint256",
          "name": "limit",
          "type": "uint256"
        }
      ],
      "name": "requestToUpdateDailyTransferLimit",
      "outputs": [],
      "stateMutability": "nonpayable",
      "type": "function"
    },
    {
      "inputs": [
        {
          "internalType": "address",
          "name": "newOwnerAddress",
          "type": "address"
        }
      ],
      "name": "requestToUpdateOwner",
      "outputs": [],
      "stateMutability": "nonpayable",
      "type": "function"
    },
    {
      "inputs": [
        {
          "internalType": "address",
          "name": "to",
          "type": "address"
        },
        {
          "internalType": "uint256",
          "name": "amount",
          "type": "uint256"
        }
      ],
      "name": "send",
      "outputs": [],
      "stateMutability": "nonpayable",
      "type": "function"
    },
    {
      "inputs": [
        {
          "internalType": "address",
          "name": "to",
          "type": "address"
        }
      ],
      "name": "sendAll",
      "outputs": [],
      "stateMutability": "nonpayable",
      "type": "function"
    },
    {
      "inputs": [
        {
          "internalType": "address",
          "name": "newOwner",
          "type": "address"
        }
      ],
      "name": "transferOwnership",
      "outputs": [],
      "stateMutability": "nonpayable",
      "type": "function"
    },
    {
      "inputs": [
        {
          "internalType": "address",
          "name": "_priceFeed",
          "type": "address"
        }
      ],
      "name": "updateETHUSDPriceFeed",
      "outputs": [],
      "stateMutability": "nonpayable",
      "type": "function"
    },
    {
      "stateMutability": "payable",
      "type": "receive"
    }
  ],
  "transactionHash": "0xf5b1b4fd169097b19556b06e2f3330d4f99767adb6a8685e357051883940c5af",
  "args": [
    "0x5FbDB2315678afecb367f032d93F642f64180aa3"
  ],
  "numDeployments": 1,
  "solcInputHash": "0ba5f9e2b7a0de3a0453749bb3e01a3e",
  "bytecode": "0x60806040523480156200001157600080fd5b506040516200317938038062003179833981810160405281019062000037919062000233565b80620000586200004c620000fd60201b60201c565b6200010560201b60201c565b6001808190555042600381905550620151806002819055504260058190555062015180600481905550426007819055506203f48060068190555080601060006101000a81548173ffffffffffffffffffffffffffffffffffffffff021916908373ffffffffffffffffffffffffffffffffffffffff160217905550670de0b6b3a7640000600a8190555062015180600d8190555050611c206012819055505062000265565b600033905090565b60008060009054906101000a900473ffffffffffffffffffffffffffffffffffffffff169050816000806101000a81548173ffffffffffffffffffffffffffffffffffffffff021916908373ffffffffffffffffffffffffffffffffffffffff1602179055508173ffffffffffffffffffffffffffffffffffffffff168173ffffffffffffffffffffffffffffffffffffffff167f8be0079c531659141344cd1fd0a4f28419497f9722a3daafe3b4186f6b6457e060405160405180910390a35050565b600080fd5b600073ffffffffffffffffffffffffffffffffffffffff82169050919050565b6000620001fb82620001ce565b9050919050565b6200020d81620001ee565b81146200021957600080fd5b50565b6000815190506200022d8162000202565b92915050565b6000602082840312156200024c576200024b620001c9565b5b60006200025c848285016200021c565b91505092915050565b612f0480620002756000396000f3fe6080604052600436106102135760003560e01c80638da5cb5b11610118578063d0679d34116100a0578063e9316a211161006f578063e9316a2114610729578063ecfba8f514610754578063ef6492491461077f578063f2fde38b146107aa578063fb549788146107d35761021a565b8063d0679d3414610671578063d23773611461069a578063d660c45d146106c3578063daf3ce6a146106ec5761021a565b8063a526d83b116100e7578063a526d83b1461058a578063a85ae377146105b3578063af630ad3146105de578063b9e1c79814610609578063bbe4424a146106465761021a565b80638da5cb5b146104de5780638fc270b7146105095780639204f4771461053457806398d5fdca1461055f5761021a565b80632b28d0cc1161019b5780637388fe861161016a5780637388fe861461041f57806379f9c22f1461044a5780637d09f5dd1461047357806383b40cc91461049e5780638636068c146104c75761021a565b80632b28d0cc14610389578063673d4ec8146103b457806371404156146103df578063715018a6146104085761021a565b806314cbc763116101e257806314cbc763146102c657806315c1bc3e146102f157806324cb76041461031c57806326c886df146103475780632ad2ed901461035e5761021a565b80630665f04b1461021c57806306c4df831461024757806310a0cf171461027257806312065fe01461029b5761021a565b3661021a57005b005b34801561022857600080fd5b506102316107ea565b60405161023e91906125f3565b60405180910390f35b34801561025357600080fd5b5061025c610878565b604051610269919061262e565b60405180910390f35b34801561027e57600080fd5b506102996004803603810190610294919061267a565b610882565b005b3480156102a757600080fd5b506102b0610a61565b6040516102bd919061262e565b60405180910390f35b3480156102d257600080fd5b506102db610a69565b6040516102e8919061262e565b60405180910390f35b3480156102fd57600080fd5b50610306610a73565b604051610313919061262e565b60405180910390f35b34801561032857600080fd5b50610331610a7d565b60405161033e919061262e565b60405180910390f35b34801561035357600080fd5b5061035c610a87565b005b34801561036a57600080fd5b50610373610cab565b604051610380919061262e565b60405180910390f35b34801561039557600080fd5b5061039e610cb5565b6040516103ab919061262e565b60405180910390f35b3480156103c057600080fd5b506103c9610cbf565b6040516103d691906126c2565b60405180910390f35b3480156103eb57600080fd5b506104066004803603810190610401919061267a565b610cd6565b005b34801561041457600080fd5b5061041d610fd1565b005b34801561042b57600080fd5b50610434610fe5565b604051610441919061262e565b60405180910390f35b34801561045657600080fd5b50610471600480360381019061046c919061267a565b610fef565b005b34801561047f57600080fd5b5061048861103b565b604051610495919061262e565b60405180910390f35b3480156104aa57600080fd5b506104c560048036038101906104c091906126dd565b611045565b005b3480156104d357600080fd5b506104dc611269565b005b3480156104ea57600080fd5b506104f36114e4565b604051610500919061272c565b60405180910390f35b34801561051557600080fd5b5061051e61150d565b60405161052b91906126c2565b60405180910390f35b34801561054057600080fd5b50610549611524565b604051610556919061262e565b60405180910390f35b34801561056b57600080fd5b5061057461155e565b604051610581919061262e565b60405180910390f35b34801561059657600080fd5b506105b160048036038101906105ac919061267a565b61160f565b005b3480156105bf57600080fd5b506105c86116ee565b6040516105d5919061262e565b60405180910390f35b3480156105ea57600080fd5b506105f36116f8565b604051610600919061262e565b60405180910390f35b34801561061557600080fd5b50610630600480360381019061062b919061267a565b611702565b60405161063d91906126c2565b60405180910390f35b34801561065257600080fd5b5061065b611758565b604051610668919061262e565b60405180910390f35b34801561067d57600080fd5b5061069860048036038101906106939190612773565b611762565b005b3480156106a657600080fd5b506106c160048036038101906106bc91906127b3565b6118b7565b005b3480156106cf57600080fd5b506106ea60048036038101906106e5919061267a565b611930565b005b3480156106f857600080fd5b50610713600480360381019061070e919061267a565b611a8a565b60405161072091906126c2565b60405180910390f35b34801561073557600080fd5b5061073e611ae0565b60405161074b919061262e565b60405180910390f35b34801561076057600080fd5b50610769611aea565b604051610776919061262e565b60405180910390f35b34801561078b57600080fd5b50610794611af4565b6040516107a1919061262e565b60405180910390f35b3480156107b657600080fd5b506107d160048036038101906107cc919061267a565b611b2c565b005b3480156107df57600080fd5b506107e8611baf565b005b6060600980548060200260200160405190810160405280929190818152602001828054801561086e57602002820191906000526020600020905b8160009054906101000a900473ffffffffffffffffffffffffffffffffffffffff1673ffffffffffffffffffffffffffffffffffffffff1681526020019060010190808311610824575b5050505050905090565b6000601154905090565b61088a6114e4565b73ffffffffffffffffffffffffffffffffffffffff168173ffffffffffffffffffffffffffffffffffffffff16036108f957806040517fa4f2199f0000000000000000000000000000000000000000000000000000000081526004016108f0919061283d565b60405180910390fd5b600060098054905011610941576040517fe9e10a640000000000000000000000000000000000000000000000000000000081526004016109389061286b565b60405180910390fd5b61094a33611e2d565b61098b57336040517f8e8bbab9000000000000000000000000000000000000000000000000000000008152600401610982919061283d565b60405180910390fd5b4260118190555080601460016101000a81548173ffffffffffffffffffffffffffffffffffffffff021916908373ffffffffffffffffffffffffffffffffffffffff1602179055506001601560003373ffffffffffffffffffffffffffffffffffffffff1673ffffffffffffffffffffffffffffffffffffffff16815260200190815260200160002060006101000a81548160ff02191690831515021790555060136000815480929190610a3e906128ba565b91905055506001601460006101000a81548160ff02191690831515021790555050565b600047905090565b6000600654905090565b6000600a54905090565b6000600854905090565b600060098054905011610acf576040517fe9e10a64000000000000000000000000000000000000000000000000000000008152600401610ac69061294e565b60405180910390fd5b600e60009054906101000a900460ff16610b1e576040517fe4363ca3000000000000000000000000000000000000000000000000000000008152600401610b159061294e565b60405180910390fd5b600d54600c54610b2e919061296e565b421115610b7857610b3d611f3c565b6040517f5130ce4e000000000000000000000000000000000000000000000000000000008152600401610b6f9061294e565b60405180910390fd5b600f60003373ffffffffffffffffffffffffffffffffffffffff1673ffffffffffffffffffffffffffffffffffffffff16815260200190815260200160002060009054906101000a900460ff1615610c0757336040517f40b28742000000000000000000000000000000000000000000000000000000008152600401610bfe91906129a2565b60405180910390fd5b610c1033611e2d565b610c5157336040517f8e8bbab9000000000000000000000000000000000000000000000000000000008152600401610c4891906129a2565b60405180910390fd5b6001600f60003373ffffffffffffffffffffffffffffffffffffffff1673ffffffffffffffffffffffffffffffffffffffff16815260200190815260200160002060006101000a81548160ff021916908315150217905550565b6000600754905090565b6000601254905090565b6000601460009054906101000a900460ff16905090565b610cde6120e4565b610ce6612162565b600654600754610cf6919061296e565b421015610d38576040517f2ab71fd6000000000000000000000000000000000000000000000000000000008152600401610d2f90612a1c565b60405180910390fd5b600060098054905011610d80576040517fe9e10a64000000000000000000000000000000000000000000000000000000008152600401610d7790612a1c565b60405180910390fd5b60006009805480602002602001604051908101604052809291908181526020018280548015610e0457602002820191906000526020600020905b8160009054906101000a900473ffffffffffffffffffffffffffffffffffffffff1673ffffffffffffffffffffffffffffffffffffffff1681526020019060010190808311610dba575b50505050509050600060018251610e1b9190612a3c565b67ffffffffffffffff811115610e3457610e33612a70565b5b604051908082528060200260200182016040528015610e625781602001602082028036833780820191505090505b50905060008060005b8451811015610f5d578573ffffffffffffffffffffffffffffffffffffffff16858281518110610e9e57610e9d612a9f565b5b602002602001015173ffffffffffffffffffffffffffffffffffffffff1603610eca5760019150610f4a565b83518114610f4957848181518110610ee557610ee4612a9f565b5b6020026020010151848481518110610f0057610eff612a9f565b5b602002602001019073ffffffffffffffffffffffffffffffffffffffff16908173ffffffffffffffffffffffffffffffffffffffff16815250508280610f45906128ba565b9350505b5b8080610f55906128ba565b915050610e6b565b508015610f87578260099080519060200190610f7a92919061245c565b5042600781905550610fc2565b6040517f47637222000000000000000000000000000000000000000000000000000000008152600401610fb990612a1c565b60405180910390fd5b50505050610fce6121b1565b50565b610fd96120e4565b610fe360006121ba565b565b6000600354905090565b610ff76120e4565b80601060006101000a81548173ffffffffffffffffffffffffffffffffffffffff021916908373ffffffffffffffffffffffffffffffffffffffff16021790555050565b6000600c54905090565b61104d6120e4565b611055612162565b600454600554611065919061296e565b4210156110a7576040517f0e7f7d1500000000000000000000000000000000000000000000000000000000815260040161109e90612a1c565b60405180910390fd5b6000600980548060200260200160405190810160405280929190818152602001828054801561112b57602002820191906000526020600020905b8160009054906101000a900473ffffffffffffffffffffffffffffffffffffffff1673ffffffffffffffffffffffffffffffffffffffff16815260200190600101908083116110e1575b505050505090506000805b82518110156111f6578473ffffffffffffffffffffffffffffffffffffffff1683828151811061116957611168612a9f565b5b602002602001015173ffffffffffffffffffffffffffffffffffffffff16036111e35760019150838382815181106111a4576111a3612a9f565b5b602002602001019073ffffffffffffffffffffffffffffffffffffffff16908173ffffffffffffffffffffffffffffffffffffffff16815250506111f6565b80806111ee906128ba565b915050611136565b50801561122057816009908051906020019061121392919061245c565b504260058190555061125b565b6040517f4763722200000000000000000000000000000000000000000000000000000000815260040161125290612a1c565b60405180910390fd5b50506112656121b1565b5050565b6000600980549050116112b1576040517fe9e10a640000000000000000000000000000000000000000000000000000000081526004016112a89061286b565b60405180910390fd5b601460009054906101000a900460ff16611300576040517f7bd1f7a20000000000000000000000000000000000000000000000000000000081526004016112f79061286b565b60405180910390fd5b601560003373ffffffffffffffffffffffffffffffffffffffff1673ffffffffffffffffffffffffffffffffffffffff16815260200190815260200160002060009054906101000a900460ff161561138f57336040517f40b28742000000000000000000000000000000000000000000000000000000008152600401611386919061283d565b60405180910390fd5b60125460115461139f919061296e565b4211156113e9576113ae61227e565b6040517f5130ce4e0000000000000000000000000000000000000000000000000000000081526004016113e09061286b565b60405180910390fd5b6113f233611e2d565b61143357336040517f8e8bbab900000000000000000000000000000000000000000000000000000000815260040161142a919061283d565b60405180910390fd5b6001601560003373ffffffffffffffffffffffffffffffffffffffff1673ffffffffffffffffffffffffffffffffffffffff16815260200190815260200160002060006101000a81548160ff0219169083151502179055506013600081548092919061149e906128ba565b9190505550600854601354106114e2576114d9601460019054906101000a900473ffffffffffffffffffffffffffffffffffffffff166121ba565b6114e161227e565b5b565b60008060009054906101000a900473ffffffffffffffffffffffffffffffffffffffff16905090565b6000600e60009054906101000a900460ff16905090565b60008061152f61155e565b90506000670de0b6b3a7640000600a548361154a9190612ace565b6115549190612b3f565b9050809250505090565b600080601060009054906101000a900473ffffffffffffffffffffffffffffffffffffffff1673ffffffffffffffffffffffffffffffffffffffff1663feaf968c6040518163ffffffff1660e01b815260040160a060405180830381865afa1580156115ce573d6000803e3d6000fd5b505050506040513d601f19601f820116820180604052508101906115f29190612bfd565b5050509150506402540be400816116099190612c78565b91505090565b6116176120e4565b61161f612162565b60025460035461162f919061296e565b421015611671576040517fdd49edf800000000000000000000000000000000000000000000000000000000815260040161166890612a1c565b60405180910390fd5b6009819080600181540180825580915050600190039060005260206000200160009091909190916101000a81548173ffffffffffffffffffffffffffffffffffffffff021916908373ffffffffffffffffffffffffffffffffffffffff160217905550426003819055506116e361242e565b6116eb6121b1565b50565b6000600254905090565b6000600d54905090565b6000601560008373ffffffffffffffffffffffffffffffffffffffff1673ffffffffffffffffffffffffffffffffffffffff16815260200190815260200160002060009054906101000a900460ff169050919050565b6000601354905090565b61176a6120e4565b611772612162565b600081116117b757806040517fc816f5c80000000000000000000000000000000000000000000000000000000081526004016117ae9190612cf0565b60405180910390fd5b600a548111156117fe57806040517fd8dde22d0000000000000000000000000000000000000000000000000000000081526004016117f59190612cf0565b60405180910390fd5b60008273ffffffffffffffffffffffffffffffffffffffff168260405161182490612d4f565b60006040518083038185875af1925050503d8060008114611861576040519150601f19603f3d011682016040523d82523d6000602084013e611866565b606091505b50509050806118aa576040517f5b0ecddc0000000000000000000000000000000000000000000000000000000081526004016118a19061294e565b60405180910390fd5b506118b36121b1565b5050565b6118bf6120e4565b6000811161190457806040517f60fe2e4f0000000000000000000000000000000000000000000000000000000081526004016118fb9190612cf0565b60405180910390fd5b42600c8190555080600b819055506001600e60006101000a81548160ff02191690831515021790555050565b6119386120e4565b611940612162565b60004790506000811161198a57806040517f25ba08f50000000000000000000000000000000000000000000000000000000081526004016119819190612cf0565b60405180910390fd5b600a548111156119d157806040517fd8dde22d0000000000000000000000000000000000000000000000000000000081526004016119c89190612cf0565b60405180910390fd5b60008273ffffffffffffffffffffffffffffffffffffffff16826040516119f790612d4f565b60006040518083038185875af1925050503d8060008114611a34576040519150601f19603f3d011682016040523d82523d6000602084013e611a39565b606091505b5050905080611a7d576040517f5b0ecddc000000000000000000000000000000000000000000000000000000008152600401611a749061294e565b60405180910390fd5b5050611a876121b1565b50565b6000600f60008373ffffffffffffffffffffffffffffffffffffffff1673ffffffffffffffffffffffffffffffffffffffff16815260200190815260200160002060009054906101000a900460ff169050919050565b6000600554905090565b6000600454905090565b600080611aff61155e565b90506000670de0b6b3a76400004783611b189190612ace565b611b229190612b3f565b9050809250505090565b611b346120e4565b600073ffffffffffffffffffffffffffffffffffffffff168173ffffffffffffffffffffffffffffffffffffffff1603611ba3576040517f08c379a0000000000000000000000000000000000000000000000000000000008152600401611b9a90612dd6565b60405180910390fd5b611bac816121ba565b50565b611bb76120e4565b600060098054905011611bff576040517fe9e10a64000000000000000000000000000000000000000000000000000000008152600401611bf69061294e565b60405180910390fd5b600e60009054906101000a900460ff16611c4e576040517fe4363ca3000000000000000000000000000000000000000000000000000000008152600401611c459061294e565b60405180910390fd5b600d54600c54611c5e919061296e565b421115611ca857611c6d611f3c565b6040517f5130ce4e000000000000000000000000000000000000000000000000000000008152600401611c9f9061294e565b60405180910390fd5b60006009805480602002602001604051908101604052809291908181526020018280548015611d2c57602002820191906000526020600020905b8160009054906101000a900473ffffffffffffffffffffffffffffffffffffffff1673ffffffffffffffffffffffffffffffffffffffff1681526020019060010190808311611ce2575b505050505090506000805b8251811015611dce57600f6000848381518110611d5757611d56612a9f565b5b602002602001015173ffffffffffffffffffffffffffffffffffffffff1673ffffffffffffffffffffffffffffffffffffffff16815260200190815260200160002060009054906101000a900460ff1615611dbb578180611db7906128ba565b9250505b8080611dc6906128ba565b915050611d37565b50600854811015611e18576008546040517f9dd75b3a000000000000000000000000000000000000000000000000000000008152600401611e0f9190612cf0565b60405180910390fd5b600b54600a81905550611e29611f3c565b5050565b6000806009805480602002602001604051908101604052809291908181526020018280548015611eb257602002820191906000526020600020905b8160009054906101000a900473ffffffffffffffffffffffffffffffffffffffff1673ffffffffffffffffffffffffffffffffffffffff1681526020019060010190808311611e68575b5050505050905060005b8151811015611f3057818181518110611ed857611ed7612a9f565b5b602002602001015173ffffffffffffffffffffffffffffffffffffffff168473ffffffffffffffffffffffffffffffffffffffff1603611f1d57600192505050611f37565b8080611f28906128ba565b915050611ebc565b5060009150505b919050565b6000600e60006101000a81548160ff02191690831515021790555060006009805480602002602001604051908101604052809291908181526020018280548015611fdb57602002820191906000526020600020905b8160009054906101000a900473ffffffffffffffffffffffffffffffffffffffff1673ffffffffffffffffffffffffffffffffffffffff1681526020019060010190808311611f91575b5050505050905060005b81518110156120e057600f600083838151811061200557612004612a9f565b5b602002602001015173ffffffffffffffffffffffffffffffffffffffff1673ffffffffffffffffffffffffffffffffffffffff16815260200190815260200160002060009054906101000a900460ff16156120cd576000600f600084848151811061207357612072612a9f565b5b602002602001015173ffffffffffffffffffffffffffffffffffffffff1673ffffffffffffffffffffffffffffffffffffffff16815260200190815260200160002060006101000a81548160ff0219169083151502179055505b80806120d8906128ba565b915050611fe5565b5050565b6120ec612454565b73ffffffffffffffffffffffffffffffffffffffff1661210a6114e4565b73ffffffffffffffffffffffffffffffffffffffff1614612160576040517f08c379a000000000000000000000000000000000000000000000000000000000815260040161215790612e42565b60405180910390fd5b565b6002600154036121a7576040517f08c379a000000000000000000000000000000000000000000000000000000000815260040161219e90612eae565b60405180910390fd5b6002600181905550565b60018081905550565b60008060009054906101000a900473ffffffffffffffffffffffffffffffffffffffff169050816000806101000a81548173ffffffffffffffffffffffffffffffffffffffff021916908373ffffffffffffffffffffffffffffffffffffffff1602179055508173ffffffffffffffffffffffffffffffffffffffff168173ffffffffffffffffffffffffffffffffffffffff167f8be0079c531659141344cd1fd0a4f28419497f9722a3daafe3b4186f6b6457e060405160405180910390a35050565b6000601460006101000a81548160ff02191690831515021790555060006013819055506000600980548060200260200160405190810160405280929190818152602001828054801561232557602002820191906000526020600020905b8160009054906101000a900473ffffffffffffffffffffffffffffffffffffffff1673ffffffffffffffffffffffffffffffffffffffff16815260200190600101908083116122db575b5050505050905060005b815181101561242a576015600083838151811061234f5761234e612a9f565b5b602002602001015173ffffffffffffffffffffffffffffffffffffffff1673ffffffffffffffffffffffffffffffffffffffff16815260200190815260200160002060009054906101000a900460ff1615612417576000601560008484815181106123bd576123bc612a9f565b5b602002602001015173ffffffffffffffffffffffffffffffffffffffff1673ffffffffffffffffffffffffffffffffffffffff16815260200190815260200160002060006101000a81548160ff0219169083151502179055505b8080612422906128ba565b91505061232f565b5050565b600160026009805490506124429190612b3f565b61244c919061296e565b600881905550565b600033905090565b8280548282559060005260206000209081019282156124d5579160200282015b828111156124d45782518260006101000a81548173ffffffffffffffffffffffffffffffffffffffff021916908373ffffffffffffffffffffffffffffffffffffffff1602179055509160200191906001019061247c565b5b5090506124e291906124e6565b5090565b5b808211156124ff5760008160009055506001016124e7565b5090565b600081519050919050565b600082825260208201905092915050565b6000819050602082019050919050565b600073ffffffffffffffffffffffffffffffffffffffff82169050919050565b600061255a8261252f565b9050919050565b61256a8161254f565b82525050565b600061257c8383612561565b60208301905092915050565b6000602082019050919050565b60006125a082612503565b6125aa818561250e565b93506125b58361251f565b8060005b838110156125e65781516125cd8882612570565b97506125d883612588565b9250506001810190506125b9565b5085935050505092915050565b6000602082019050818103600083015261260d8184612595565b905092915050565b6000819050919050565b61262881612615565b82525050565b6000602082019050612643600083018461261f565b92915050565b600080fd5b6126578161254f565b811461266257600080fd5b50565b6000813590506126748161264e565b92915050565b6000602082840312156126905761268f612649565b5b600061269e84828501612665565b91505092915050565b60008115159050919050565b6126bc816126a7565b82525050565b60006020820190506126d760008301846126b3565b92915050565b600080604083850312156126f4576126f3612649565b5b600061270285828601612665565b925050602061271385828601612665565b9150509250929050565b6127268161254f565b82525050565b6000602082019050612741600083018461271d565b92915050565b61275081612615565b811461275b57600080fd5b50565b60008135905061276d81612747565b92915050565b6000806040838503121561278a57612789612649565b5b600061279885828601612665565b92505060206127a98582860161275e565b9150509250929050565b6000602082840312156127c9576127c8612649565b5b60006127d78482850161275e565b91505092915050565b600082825260208201905092915050565b7f4f776e6572736869704d616e6167657200000000000000000000000000000000600082015250565b60006128276010836127e0565b9150612832826127f1565b602082019050919050565b600060408201905081810360008301526128568161281a565b9050612865602083018461271d565b92915050565b600060208201905081810360008301526128848161281a565b9050919050565b7f4e487b7100000000000000000000000000000000000000000000000000000000600052601160045260246000fd5b60006128c582612615565b91507fffffffffffffffffffffffffffffffffffffffffffffffffffffffffffffffff82036128f7576128f661288b565b5b600182019050919050565b7f46756e64734d616e616765720000000000000000000000000000000000000000600082015250565b6000612938600c836127e0565b915061294382612902565b602082019050919050565b600060208201905081810360008301526129678161292b565b9050919050565b600061297982612615565b915061298483612615565b925082820190508082111561299c5761299b61288b565b5b92915050565b600060408201905081810360008301526129bb8161292b565b90506129ca602083018461271d565b92915050565b7f477561726469616e734d616e6167657200000000000000000000000000000000600082015250565b6000612a066010836127e0565b9150612a11826129d0565b602082019050919050565b60006020820190508181036000830152612a35816129f9565b9050919050565b6000612a4782612615565b9150612a5283612615565b9250828203905081811115612a6a57612a6961288b565b5b92915050565b7f4e487b7100000000000000000000000000000000000000000000000000000000600052604160045260246000fd5b7f4e487b7100000000000000000000000000000000000000000000000000000000600052603260045260246000fd5b6000612ad982612615565b9150612ae483612615565b9250828202612af281612615565b91508282048414831517612b0957612b0861288b565b5b5092915050565b7f4e487b7100000000000000000000000000000000000000000000000000000000600052601260045260246000fd5b6000612b4a82612615565b9150612b5583612615565b925082612b6557612b64612b10565b5b828204905092915050565b600069ffffffffffffffffffff82169050919050565b612b8f81612b70565b8114612b9a57600080fd5b50565b600081519050612bac81612b86565b92915050565b6000819050919050565b612bc581612bb2565b8114612bd057600080fd5b50565b600081519050612be281612bbc565b92915050565b600081519050612bf781612747565b92915050565b600080600080600060a08688031215612c1957612c18612649565b5b6000612c2788828901612b9d565b9550506020612c3888828901612bd3565b9450506040612c4988828901612be8565b9350506060612c5a88828901612be8565b9250506080612c6b88828901612b9d565b9150509295509295909350565b6000612c8382612bb2565b9150612c8e83612bb2565b9250828202612c9c81612bb2565b91507f80000000000000000000000000000000000000000000000000000000000000008414600084121615612cd457612cd361288b565b5b8282058414831517612ce957612ce861288b565b5b5092915050565b60006040820190508181036000830152612d098161292b565b9050612d18602083018461261f565b92915050565b600081905092915050565b50565b6000612d39600083612d1e565b9150612d4482612d29565b600082019050919050565b6000612d5a82612d2c565b9150819050919050565b7f4f776e61626c653a206e6577206f776e657220697320746865207a65726f206160008201527f6464726573730000000000000000000000000000000000000000000000000000602082015250565b6000612dc06026836127e0565b9150612dcb82612d64565b604082019050919050565b60006020820190508181036000830152612def81612db3565b9050919050565b7f4f776e61626c653a2063616c6c6572206973206e6f7420746865206f776e6572600082015250565b6000612e2c6020836127e0565b9150612e3782612df6565b602082019050919050565b60006020820190508181036000830152612e5b81612e1f565b9050919050565b7f5265656e7472616e637947756172643a207265656e7472616e742063616c6c00600082015250565b6000612e98601f836127e0565b9150612ea382612e62565b602082019050919050565b60006020820190508181036000830152612ec781612e8b565b905091905056fea2646970667358221220a19fbd80aa2c439528c2ea7c1537c1da91ed005f70b68b989efb0475c9d57bc064736f6c63430008110033",
  "devdoc": {
    "kind": "dev",
    "methods": {
      "owner()": {
        "details": "Returns the address of the current owner."
      },
      "renounceOwnership()": {
        "details": "Leaves the contract without owner. It will not be possible to call `onlyOwner` functions anymore. Can only be called by the current owner. NOTE: Renouncing ownership will leave the contract without an owner, thereby removing any functionality that is only available to the owner."
      },
      "transferOwnership(address)": {
        "details": "Transfers ownership of the contract to a new account (`newOwner`). Can only be called by the current owner."
      }
    },
    "version": 1
  },
  "userdoc": {
    "kind": "user",
    "methods": {},
    "version": 1
  },
  "storageLayout": {
    "storage": [
      {
        "astId": 53,
        "contract": "contracts/Guardian.sol:Guardian",
        "label": "_owner",
        "offset": 0,
        "slot": "0",
        "type": "t_address"
      },
      {
        "astId": 169,
        "contract": "contracts/Guardian.sol:Guardian",
        "label": "_status",
        "offset": 0,
        "slot": "1",
        "type": "t_uint256"
      },
      {
        "astId": 891,
        "contract": "contracts/Guardian.sol:Guardian",
        "label": "addGuardianDelay",
        "offset": 0,
        "slot": "2",
        "type": "t_uint256"
      },
      {
        "astId": 893,
        "contract": "contracts/Guardian.sol:Guardian",
        "label": "lastGuardianAddTime",
        "offset": 0,
        "slot": "3",
        "type": "t_uint256"
      },
      {
        "astId": 895,
        "contract": "contracts/Guardian.sol:Guardian",
        "label": "changeGuardianDelay",
        "offset": 0,
        "slot": "4",
        "type": "t_uint256"
      },
      {
        "astId": 897,
        "contract": "contracts/Guardian.sol:Guardian",
        "label": "lastGuardianChangeTime",
        "offset": 0,
        "slot": "5",
        "type": "t_uint256"
      },
      {
        "astId": 899,
        "contract": "contracts/Guardian.sol:Guardian",
        "label": "removeGuardianDelay",
        "offset": 0,
        "slot": "6",
        "type": "t_uint256"
      },
      {
        "astId": 901,
        "contract": "contracts/Guardian.sol:Guardian",
        "label": "lastGuardianRemovalTime",
        "offset": 0,
        "slot": "7",
        "type": "t_uint256"
      },
      {
        "astId": 903,
        "contract": "contracts/Guardian.sol:Guardian",
        "label": "requiredConfirmations",
        "offset": 0,
        "slot": "8",
        "type": "t_uint256"
      },
      {
        "astId": 906,
        "contract": "contracts/Guardian.sol:Guardian",
        "label": "guardians",
        "offset": 0,
        "slot": "9",
        "type": "t_array(t_address)dyn_storage"
      },
      {
        "astId": 336,
        "contract": "contracts/Guardian.sol:Guardian",
        "label": "dailyTransferLimit",
        "offset": 0,
        "slot": "10",
        "type": "t_uint256"
      },
      {
        "astId": 338,
        "contract": "contracts/Guardian.sol:Guardian",
        "label": "tempDailyTransferLimit",
        "offset": 0,
        "slot": "11",
        "type": "t_uint256"
      },
      {
        "astId": 340,
        "contract": "contracts/Guardian.sol:Guardian",
        "label": "lastDailyTransferUpdateRequestTime",
        "offset": 0,
        "slot": "12",
        "type": "t_uint256"
      },
      {
        "astId": 342,
        "contract": "contracts/Guardian.sol:Guardian",
        "label": "dailyTransferLimitUpdateConfirmationTime",
        "offset": 0,
        "slot": "13",
        "type": "t_uint256"
      },
      {
        "astId": 344,
        "contract": "contracts/Guardian.sol:Guardian",
        "label": "isDailyTransferLimitUpdateRequested",
        "offset": 0,
        "slot": "14",
        "type": "t_bool"
      },
      {
        "astId": 348,
        "contract": "contracts/Guardian.sol:Guardian",
        "label": "isConfirmedByGuardian",
        "offset": 0,
        "slot": "15",
        "type": "t_mapping(t_address,t_bool)"
      },
      {
        "astId": 351,
        "contract": "contracts/Guardian.sol:Guardian",
        "label": "priceFeed",
        "offset": 0,
        "slot": "16",
        "type": "t_contract(AggregatorV3Interface)45"
      },
      {
        "astId": 1295,
        "contract": "contracts/Guardian.sol:Guardian",
        "label": "lastOwnerUpdateRequestTime",
        "offset": 0,
        "slot": "17",
        "type": "t_uint256"
      },
      {
        "astId": 1297,
        "contract": "contracts/Guardian.sol:Guardian",
        "label": "ownerUpdateConfirmationTime",
        "offset": 0,
        "slot": "18",
        "type": "t_uint256"
      },
      {
        "astId": 1299,
        "contract": "contracts/Guardian.sol:Guardian",
        "label": "noOfConfirmations",
        "offset": 0,
        "slot": "19",
        "type": "t_uint256"
      },
      {
        "astId": 1301,
        "contract": "contracts/Guardian.sol:Guardian",
        "label": "isOwnerUpdateRequested",
        "offset": 0,
        "slot": "20",
        "type": "t_bool"
      },
      {
        "astId": 1303,
        "contract": "contracts/Guardian.sol:Guardian",
        "label": "tempAddress",
        "offset": 1,
        "slot": "20",
        "type": "t_address"
      },
      {
        "astId": 1307,
        "contract": "contracts/Guardian.sol:Guardian",
        "label": "isOwnershipConfimedByGuardian",
        "offset": 0,
        "slot": "21",
        "type": "t_mapping(t_address,t_bool)"
      }
    ],
    "types": {
      "t_address": {
        "encoding": "inplace",
        "label": "address",
        "numberOfBytes": "20"
      },
      "t_array(t_address)dyn_storage": {
        "base": "t_address",
        "encoding": "dynamic_array",
        "label": "address[]",
        "numberOfBytes": "32"
      },
      "t_bool": {
        "encoding": "inplace",
        "label": "bool",
        "numberOfBytes": "1"
      },
      "t_contract(AggregatorV3Interface)45": {
        "encoding": "inplace",
        "label": "contract AggregatorV3Interface",
        "numberOfBytes": "20"
      },
      "t_mapping(t_address,t_bool)": {
        "encoding": "mapping",
        "key": "t_address",
        "label": "mapping(address => bool)",
        "numberOfBytes": "32",
        "value": "t_bool"
      },
      "t_uint256": {
        "encoding": "inplace",
        "label": "uint256",
        "numberOfBytes": "32"
      }
    }
  }
}