{
  "address": "0xe7f1725E7734CE288F8367e1Bb143E90bb3F0512",
  "abi": [
    {
      "inputs": [
        {
          "internalType": "address",
          "name": "priceFeed",
          "type": "address"
        }
      ],
      "stateMutability": "nonpayable",
      "type": "constructor"
    },
    {
      "inputs": [
        {
          "internalType": "string",
          "name": "location",
          "type": "string"
        },
        {
          "internalType": "address",
          "name": "addr",
          "type": "address"
        }
      ],
      "name": "Error__AddressAlreadyAnOwner",
      "type": "error"
    },
    {
      "inputs": [
        {
          "internalType": "string",
          "name": "location",
          "type": "string"
        },
        {
          "internalType": "address",
          "name": "addr",
          "type": "address"
        }
      ],
      "name": "Error__AddressNotFoundAsGuardian",
      "type": "error"
    },
    {
      "inputs": [
        {
          "internalType": "string",
          "name": "location",
          "type": "string"
        },
        {
          "internalType": "address",
          "name": "guardian",
          "type": "address"
        }
      ],
      "name": "Error__AlreadyConfirmedByGuardian",
      "type": "error"
    },
    {
      "inputs": [
        {
          "internalType": "string",
          "name": "location",
          "type": "string"
        },
        {
          "internalType": "uint256",
          "name": "balance",
          "type": "uint256"
        }
      ],
      "name": "Error__BalanceIsZero",
      "type": "error"
    },
    {
      "inputs": [
        {
          "internalType": "string",
          "name": "location",
          "type": "string"
        }
      ],
      "name": "Error__CanOnlyAddAfterDelayPeriod",
      "type": "error"
    },
    {
      "inputs": [
        {
          "internalType": "string",
          "name": "location",
          "type": "string"
        }
      ],
      "name": "Error__CanOnlyChangeAfterDelayPeriod",
      "type": "error"
    },
    {
      "inputs": [
        {
          "internalType": "string",
          "name": "location",
          "type": "string"
        }
      ],
      "name": "Error__CanOnlyRemoveAfterDelayPeriod",
      "type": "error"
    },
    {
      "inputs": [
        {
          "internalType": "string",
          "name": "location",
          "type": "string"
        },
        {
          "internalType": "uint256",
          "name": "amount",
          "type": "uint256"
        }
      ],
      "name": "Error__DailyTransferLimitExceed",
      "type": "error"
    },
    {
      "inputs": [
        {
          "internalType": "string",
          "name": "location",
          "type": "string"
        }
      ],
      "name": "Error__GuardianDoesNotExist",
      "type": "error"
    },
    {
      "inputs": [
        {
          "internalType": "string",
          "name": "location",
          "type": "string"
        }
      ],
      "name": "Error__GuardiansListIsEmpty",
      "type": "error"
    },
    {
      "inputs": [
        {
          "internalType": "string",
          "name": "location",
          "type": "string"
        },
        {
          "internalType": "uint256",
          "name": "amount",
          "type": "uint256"
        }
      ],
      "name": "Error__InvalidAmount",
      "type": "error"
    },
    {
      "inputs": [
        {
          "internalType": "string",
          "name": "location",
          "type": "string"
        },
        {
          "internalType": "uint256",
          "name": "limit",
          "type": "uint256"
        }
      ],
      "name": "Error__InvalidLimit",
      "type": "error"
    },
    {
      "inputs": [
        {
          "internalType": "string",
          "name": "location",
          "type": "string"
        }
      ],
      "name": "Error__RequestTimeExpired",
      "type": "error"
    },
    {
      "inputs": [
        {
          "internalType": "string",
          "name": "location",
          "type": "string"
        },
        {
          "internalType": "uint256",
          "name": "confirmations",
          "type": "uint256"
        }
      ],
      "name": "Error__RequiredConfirmationsNotMet",
      "type": "error"
    },
    {
      "inputs": [
        {
          "internalType": "string",
          "name": "location",
          "type": "string"
        }
      ],
      "name": "Error__TransactionFailed",
      "type": "error"
    },
    {
      "inputs": [
        {
          "internalType": "string",
          "name": "location",
          "type": "string"
        }
      ],
      "name": "Error__UpdateNotRequested",
      "type": "error"
    },
    {
      "inputs": [
        {
          "internalType": "string",
          "name": "location",
          "type": "string"
        }
      ],
      "name": "Error__UpdateNotRequestedByOwner",
      "type": "error"
    },
    {
      "anonymous": false,
      "inputs": [
        {
          "indexed": true,
          "internalType": "address",
          "name": "previousOwner",
          "type": "address"
        },
        {
          "indexed": true,
          "internalType": "address",
          "name": "newOwner",
          "type": "address"
        }
      ],
      "name": "OwnershipTransferred",
      "type": "event"
    },
    {
      "stateMutability": "payable",
      "type": "fallback"
    },
    {
      "inputs": [
        {
          "internalType": "address",
          "name": "guardian",
          "type": "address"
        }
      ],
      "name": "addGuardian",
      "outputs": [],
      "stateMutability": "nonpayable",
      "type": "function"
    },
    {
      "inputs": [
        {
          "internalType": "address",
          "name": "from",
          "type": "address"
        },
        {
          "internalType": "address",
          "name": "to",
          "type": "address"
        }
      ],
      "name": "changeGuardian",
      "outputs": [],
      "stateMutability": "nonpayable",
      "type": "function"
    },
    {
      "inputs": [],
      "name": "confirmAndUpdate",
      "outputs": [],
      "stateMutability": "nonpayable",
      "type": "function"
    },
    {
      "inputs": [],
      "name": "confirmDailyTransferLimitRequest",
      "outputs": [],
      "stateMutability": "nonpayable",
      "type": "function"
    },
    {
      "inputs": [],
      "name": "confirmUpdateOwnerRequest",
      "outputs": [],
      "stateMutability": "nonpayable",
      "type": "function"
    },
    {
      "inputs": [],
      "name": "getAddGuardianDelay",
      "outputs": [
        {
          "internalType": "uint256",
          "name": "",
          "type": "uint256"
        }
      ],
      "stateMutability": "view",
      "type": "function"
    },
    {
      "inputs": [],
      "name": "getBalance",
      "outputs": [
        {
          "internalType": "uint256",
          "name": "",
          "type": "uint256"
        }
      ],
      "stateMutability": "view",
      "type": "function"
    },
    {
      "inputs": [],
      "name": "getBalanceInUSD",
      "outputs": [
        {
          "internalType": "uint256",
          "name": "",
          "type": "uint256"
        }
      ],
      "stateMutability": "view",
      "type": "function"
    },
    {
      "inputs": [],
      "name": "getChangeGuardianDelay",
      "outputs": [
        {
          "internalType": "uint256",
          "name": "",
          "type": "uint256"
        }
      ],
      "stateMutability": "view",
      "type": "function"
    },
    {
      "inputs": [],
      "name": "getDailyTransferLimit",
      "outputs": [
        {
          "internalType": "uint256",
          "name": "",
          "type": "uint256"
        }
      ],
      "stateMutability": "view",
      "type": "function"
    },
    {
      "inputs": [],
      "name": "getDailyTransferLimitInUSD",
      "outputs": [
        {
          "internalType": "uint256",
          "name": "",
          "type": "uint256"
        }
      ],
      "stateMutability": "view",
      "type": "function"
    },
    {
      "inputs": [],
      "name": "getDailyTransferLimitUpdateConfirmationTime",
      "outputs": [
        {
          "internalType": "uint256",
          "name": "",
          "type": "uint256"
        }
      ],
      "stateMutability": "view",
      "type": "function"
    },
    {
      "inputs": [],
      "name": "getDailyTransferLimitUpdateRequestStatus",
      "outputs": [
        {
          "internalType": "bool",
          "name": "",
          "type": "bool"
        }
      ],
      "stateMutability": "view",
      "type": "function"
    },
    {
      "inputs": [
        {
          "internalType": "address",
          "name": "guardian",
          "type": "address"
        }
      ],
      "name": "getGuardianConfirmationStatus",
      "outputs": [
        {
          "internalType": "bool",
          "name": "",
          "type": "bool"
        }
      ],
      "stateMutability": "view",
      "type": "function"
    },
    {
      "inputs": [],
      "name": "getGuardians",
      "outputs": [
        {
          "internalType": "address[]",
          "name": "",
          "type": "address[]"
        }
      ],
      "stateMutability": "view",
      "type": "function"
    },
    {
      "inputs": [],
      "name": "getIsOwnerUpdateRequested",
      "outputs": [
        {
          "internalType": "bool",
          "name": "",
          "type": "bool"
        }
      ],
      "stateMutability": "view",
      "type": "function"
    },
    {
      "inputs": [
        {
          "internalType": "address",
          "name": "guardian",
          "type": "address"
        }
      ],
      "name": "getIsOwnershipConfimedByGuardian",
      "outputs": [
        {
          "internalType": "bool",
          "name": "",
          "type": "bool"
        }
      ],
      "stateMutability": "view",
      "type": "function"
    },
    {
      "inputs": [],
      "name": "getLastDailyTransferUpdateRequestTime",
      "outputs": [
        {
          "internalType": "uint256",
          "name": "",
          "type": "uint256"
        }
      ],
      "stateMutability": "view",
      "type": "function"
    },
    {
      "inputs": [],
      "name": "getLastGuardianAddTime",
      "outputs": [
        {
          "internalType": "uint256",
          "name": "",
          "type": "uint256"
        }
      ],
      "stateMutability": "view",
      "type": "function"
    },
    {
      "inputs": [],
      "name": "getLastGuardianChangeTime",
      "outputs": [
        {
          "internalType": "uint256",
          "name": "",
          "type": "uint256"
        }
      ],
      "stateMutability": "view",
      "type": "function"
    },
    {
      "inputs": [],
      "name": "getLastGuardianRemovalTime",
      "outputs": [
        {
          "internalType": "uint256",
          "name": "",
          "type": "uint256"
        }
      ],
      "stateMutability": "view",
      "type": "function"
    },
    {
      "inputs": [],
      "name": "getLastOwnerUpdateRequestTime",
      "outputs": [
        {
          "internalType": "uint256",
          "name": "",
          "type": "uint256"
        }
      ],
      "stateMutability": "view",
      "type": "function"
    },
    {
      "inputs": [],
      "name": "getNoOfConfirmations",
      "outputs": [
        {
          "internalType": "uint256",
          "name": "",
          "type": "uint256"
        }
      ],
      "stateMutability": "view",
      "type": "function"
    },
    {
      "inputs": [],
      "name": "getOwnerUpdateConfirmationTime",
      "outputs": [
        {
          "internalType": "uint256",
          "name": "",
          "type": "uint256"
        }
      ],
      "stateMutability": "view",
      "type": "function"
    },
    {
      "inputs": [],
      "name": "getPrice",
      "outputs": [
        {
          "internalType": "uint256",
          "name": "",
          "type": "uint256"
        }
      ],
      "stateMutability": "view",
      "type": "function"
    },
    {
      "inputs": [],
      "name": "getRemoveGuardianDelay",
      "outputs": [
        {
          "internalType": "uint256",
          "name": "",
          "type": "uint256"
        }
      ],
      "stateMutability": "view",
      "type": "function"
    },
    {
      "inputs": [],
      "name": "getRequiredConfirmations",
      "outputs": [
        {
          "internalType": "uint256",
          "name": "",
          "type": "uint256"
        }
      ],
      "stateMutability": "view",
      "type": "function"
    },
    {
      "inputs": [],
      "name": "owner",
      "outputs": [
        {
          "internalType": "address",
          "name": "",
          "type": "address"
        }
      ],
      "stateMutability": "view",
      "type": "function"
    },
    {
      "inputs": [
        {
          "internalType": "address",
          "name": "guardian",
          "type": "address"
        }
      ],
      "name": "removeGuardian",
      "outputs": [],
      "stateMutability": "nonpayable",
      "type": "function"
    },
    {
      "inputs": [],
      "name": "renounceOwnership",
      "outputs": [],
      "stateMutability": "nonpayable",
      "type": "function"
    },
    {
      "inputs": [
        {
          "internalType": "uint256",
          "name": "limit",
          "type": "uint256"
        }
      ],
      "name": "requestToUpdateDailyTransferLimit",
      "outputs": [],
      "stateMutability": "nonpayable",
      "type": "function"
    },
    {
      "inputs": [
        {
          "internalType": "address",
          "name": "newOwnerAddress",
          "type": "address"
        }
      ],
      "name": "requestToUpdateOwner",
      "outputs": [],
      "stateMutability": "nonpayable",
      "type": "function"
    },
    {
      "inputs": [],
      "name": "resetDailyTransferLimitVariables",
      "outputs": [],
      "stateMutability": "nonpayable",
      "type": "function"
    },
    {
      "inputs": [
        {
          "internalType": "address",
          "name": "to",
          "type": "address"
        },
        {
          "internalType": "uint256",
          "name": "amount",
          "type": "uint256"
        }
      ],
      "name": "send",
      "outputs": [],
      "stateMutability": "nonpayable",
      "type": "function"
    },
    {
      "inputs": [
        {
          "internalType": "address",
          "name": "to",
          "type": "address"
        }
      ],
      "name": "sendAll",
      "outputs": [],
      "stateMutability": "nonpayable",
      "type": "function"
    },
    {
      "inputs": [
        {
          "internalType": "address",
          "name": "newOwner",
          "type": "address"
        }
      ],
      "name": "transferOwnership",
      "outputs": [],
      "stateMutability": "nonpayable",
      "type": "function"
    },
    {
      "inputs": [
        {
          "internalType": "address",
          "name": "_priceFeed",
          "type": "address"
        }
      ],
      "name": "updateETHUSDPriceFeed",
      "outputs": [],
      "stateMutability": "nonpayable",
      "type": "function"
    },
    {
      "stateMutability": "payable",
      "type": "receive"
    }
  ],
  "transactionHash": "0x8fd4441bf80b1c6d445ec5dca0476a9778f04b362d3491a583240498ba3a0a2d",
  "args": [
    "0x5FbDB2315678afecb367f032d93F642f64180aa3"
  ],
  "numDeployments": 1,
  "solcInputHash": "5663d0a9e23a4064898987f68c828397",
  "bytecode": "0x60806040523480156200001157600080fd5b50604051620031d3380380620031d383398181016040528101906200003791906200023a565b80620000586200004c6200010460201b60201c565b6200010c60201b60201c565b600180819055504260088190555042600381905550620151806002819055504260058190555062015180600481905550426007819055506203f48060068190555080601160006101000a81548173ffffffffffffffffffffffffffffffffffffffff021916908373ffffffffffffffffffffffffffffffffffffffff160217905550670de0b6b3a7640000600b8190555062015180600e8190555050611c20601381905550506200026c565b600033905090565b60008060009054906101000a900473ffffffffffffffffffffffffffffffffffffffff169050816000806101000a81548173ffffffffffffffffffffffffffffffffffffffff021916908373ffffffffffffffffffffffffffffffffffffffff1602179055508173ffffffffffffffffffffffffffffffffffffffff168173ffffffffffffffffffffffffffffffffffffffff167f8be0079c531659141344cd1fd0a4f28419497f9722a3daafe3b4186f6b6457e060405160405180910390a35050565b600080fd5b600073ffffffffffffffffffffffffffffffffffffffff82169050919050565b60006200020282620001d5565b9050919050565b6200021481620001f5565b81146200022057600080fd5b50565b600081519050620002348162000209565b92915050565b600060208284031215620002535762000252620001d0565b5b6000620002638482850162000223565b91505092915050565b612f57806200027c6000396000f3fe60806040526004361061021e5760003560e01c80638636068c11610123578063bbe4424a116100ab578063e9316a211161006f578063e9316a211461074b578063ecfba8f514610776578063ef649249146107a1578063f2fde38b146107cc578063fb549788146107f557610225565b8063bbe4424a14610668578063d0679d3414610693578063d2377361146106bc578063d660c45d146106e5578063daf3ce6a1461070e57610225565b806398d5fdca116100f257806398d5fdca14610581578063a526d83b146105ac578063a85ae377146105d5578063af630ad314610600578063b9e1c7981461062b57610225565b80638636068c146104e95780638da5cb5b146105005780638fc270b71461052b5780639204f4771461055657610225565b80632ad2ed90116101a6578063715018a611610175578063715018a61461042a5780637388fe861461044157806379f9c22f1461046c5780637d09f5dd1461049557806383b40cc9146104c057610225565b80632ad2ed90146103805780632b28d0cc146103ab578063673d4ec8146103d6578063714041561461040157610225565b806312065fe0116101ed57806312065fe0146102bd57806314cbc763146102e857806315c1bc3e1461031357806324cb76041461033e57806326c886df1461036957610225565b80630665f04b1461022757806306c4df83146102525780630ea52f0f1461027d57806310a0cf171461029457610225565b3661022557005b005b34801561023357600080fd5b5061023c61080c565b6040516102499190612646565b60405180910390f35b34801561025e57600080fd5b5061026761089a565b6040516102749190612681565b60405180910390f35b34801561028957600080fd5b506102926108a4565b005b3480156102a057600080fd5b506102bb60048036038101906102b691906126cd565b610a54565b005b3480156102c957600080fd5b506102d2610c33565b6040516102df9190612681565b60405180910390f35b3480156102f457600080fd5b506102fd610c3b565b60405161030a9190612681565b60405180910390f35b34801561031f57600080fd5b50610328610c45565b6040516103359190612681565b60405180910390f35b34801561034a57600080fd5b50610353610c4f565b6040516103609190612681565b60405180910390f35b34801561037557600080fd5b5061037e610c59565b005b34801561038c57600080fd5b50610395610e75565b6040516103a29190612681565b60405180910390f35b3480156103b757600080fd5b506103c0610e92565b6040516103cd9190612681565b60405180910390f35b3480156103e257600080fd5b506103eb610e9c565b6040516103f89190612715565b60405180910390f35b34801561040d57600080fd5b50610428600480360381019061042391906126cd565b610eb3565b005b34801561043657600080fd5b5061043f6111ae565b005b34801561044d57600080fd5b506104566111c2565b6040516104639190612681565b60405180910390f35b34801561047857600080fd5b50610493600480360381019061048e91906126cd565b6111df565b005b3480156104a157600080fd5b506104aa61122b565b6040516104b79190612681565b60405180910390f35b3480156104cc57600080fd5b506104e760048036038101906104e29190612730565b611235565b005b3480156104f557600080fd5b506104fe611459565b005b34801561050c57600080fd5b506105156116d4565b604051610522919061277f565b60405180910390f35b34801561053757600080fd5b506105406116fd565b60405161054d9190612715565b60405180910390f35b34801561056257600080fd5b5061056b611714565b6040516105789190612681565b60405180910390f35b34801561058d57600080fd5b5061059661174e565b6040516105a39190612681565b60405180910390f35b3480156105b857600080fd5b506105d360048036038101906105ce91906126cd565b6117ff565b005b3480156105e157600080fd5b506105ea6118de565b6040516105f79190612681565b60405180910390f35b34801561060c57600080fd5b506106156118e8565b6040516106229190612681565b60405180910390f35b34801561063757600080fd5b50610652600480360381019061064d91906126cd565b6118f2565b60405161065f9190612715565b60405180910390f35b34801561067457600080fd5b5061067d611948565b60405161068a9190612681565b60405180910390f35b34801561069f57600080fd5b506106ba60048036038101906106b591906127c6565b611952565b005b3480156106c857600080fd5b506106e360048036038101906106de9190612806565b611aa7565b005b3480156106f157600080fd5b5061070c600480360381019061070791906126cd565b611b20565b005b34801561071a57600080fd5b50610735600480360381019061073091906126cd565b611c7a565b6040516107429190612715565b60405180910390f35b34801561075757600080fd5b50610760611cd0565b60405161076d9190612681565b60405180910390f35b34801561078257600080fd5b5061078b611ced565b6040516107989190612681565b60405180910390f35b3480156107ad57600080fd5b506107b6611cf7565b6040516107c39190612681565b60405180910390f35b3480156107d857600080fd5b506107f360048036038101906107ee91906126cd565b611d2f565b005b34801561080157600080fd5b5061080a611db2565b005b6060600a80548060200260200160405190810160405280929190818152602001828054801561089057602002820191906000526020600020905b8160009054906101000a900473ffffffffffffffffffffffffffffffffffffffff1673ffffffffffffffffffffffffffffffffffffffff1681526020019060010190808311610846575b5050505050905090565b6000601254905090565b6108ac612028565b6000600f60006101000a81548160ff0219169083151502179055506000600a80548060200260200160405190810160405280929190818152602001828054801561094b57602002820191906000526020600020905b8160009054906101000a900473ffffffffffffffffffffffffffffffffffffffff1673ffffffffffffffffffffffffffffffffffffffff1681526020019060010190808311610901575b5050505050905060005b8151811015610a50576010600083838151811061097557610974612833565b5b602002602001015173ffffffffffffffffffffffffffffffffffffffff1673ffffffffffffffffffffffffffffffffffffffff16815260200190815260200160002060009054906101000a900460ff1615610a3d576000601060008484815181106109e3576109e2612833565b5b602002602001015173ffffffffffffffffffffffffffffffffffffffff1673ffffffffffffffffffffffffffffffffffffffff16815260200190815260200160002060006101000a81548160ff0219169083151502179055505b8080610a4890612891565b915050610955565b5050565b610a5c6116d4565b73ffffffffffffffffffffffffffffffffffffffff168173ffffffffffffffffffffffffffffffffffffffff1603610acb57806040517fa4f2199f000000000000000000000000000000000000000000000000000000008152600401610ac29190612936565b60405180910390fd5b6000600a8054905011610b13576040517fe9e10a64000000000000000000000000000000000000000000000000000000008152600401610b0a90612964565b60405180910390fd5b610b1c336120a6565b610b5d57336040517f8e8bbab9000000000000000000000000000000000000000000000000000000008152600401610b549190612936565b60405180910390fd5b4260128190555080601560016101000a81548173ffffffffffffffffffffffffffffffffffffffff021916908373ffffffffffffffffffffffffffffffffffffffff1602179055506001601660003373ffffffffffffffffffffffffffffffffffffffff1673ffffffffffffffffffffffffffffffffffffffff16815260200190815260200160002060006101000a81548160ff02191690831515021790555060146000815480929190610c1090612891565b91905055506001601560006101000a81548160ff02191690831515021790555050565b600047905090565b6000600654905090565b6000600b54905090565b6000600954905090565b6000600a8054905011610ca1576040517fe9e10a64000000000000000000000000000000000000000000000000000000008152600401610c98906129d0565b60405180910390fd5b600f60009054906101000a900460ff16610cf0576040517fe4363ca3000000000000000000000000000000000000000000000000000000008152600401610ce7906129d0565b60405180910390fd5b600e54600d54610d0091906129f0565b421115610d42576040517f5130ce4e000000000000000000000000000000000000000000000000000000008152600401610d39906129d0565b60405180910390fd5b601060003373ffffffffffffffffffffffffffffffffffffffff1673ffffffffffffffffffffffffffffffffffffffff16815260200190815260200160002060009054906101000a900460ff1615610dd157336040517f40b28742000000000000000000000000000000000000000000000000000000008152600401610dc89190612a24565b60405180910390fd5b610dda336120a6565b610e1b57336040517f8e8bbab9000000000000000000000000000000000000000000000000000000008152600401610e129190612a24565b60405180910390fd5b6001601060003373ffffffffffffffffffffffffffffffffffffffff1673ffffffffffffffffffffffffffffffffffffffff16815260200190815260200160002060006101000a81548160ff021916908315150217905550565b600060085460075414610e8a57600754610e8d565b60005b905090565b6000601354905090565b6000601560009054906101000a900460ff16905090565b610ebb612028565b610ec36121b5565b600654600754610ed391906129f0565b421015610f15576040517f2ab71fd6000000000000000000000000000000000000000000000000000000008152600401610f0c90612a9e565b60405180910390fd5b6000600a8054905011610f5d576040517fe9e10a64000000000000000000000000000000000000000000000000000000008152600401610f5490612a9e565b60405180910390fd5b610f66816120a6565b610fa5576040517f47637222000000000000000000000000000000000000000000000000000000008152600401610f9c90612a9e565b60405180910390fd5b6000600a80548060200260200160405190810160405280929190818152602001828054801561102957602002820191906000526020600020905b8160009054906101000a900473ffffffffffffffffffffffffffffffffffffffff1673ffffffffffffffffffffffffffffffffffffffff1681526020019060010190808311610fdf575b505050505090506000600182516110409190612abe565b67ffffffffffffffff81111561105957611058612af2565b5b6040519080825280602002602001820160405280156110875781602001602082028036833780820191505090505b50905060008060005b8451811015611179578573ffffffffffffffffffffffffffffffffffffffff168582815181106110c3576110c2612833565b5b602002602001015173ffffffffffffffffffffffffffffffffffffffff16036110ef5760019150611166565b84818151811061110257611101612833565b5b602002602001015184848151811061111d5761111c612833565b5b602002602001019073ffffffffffffffffffffffffffffffffffffffff16908173ffffffffffffffffffffffffffffffffffffffff1681525050828061116290612891565b9350505b808061117190612891565b915050611090565b50801561119f5782600a90805190602001906111969291906124af565b50426007819055505b505050506111ab612204565b50565b6111b6612028565b6111c0600061220d565b565b6000600854600354146111d7576003546111da565b60005b905090565b6111e7612028565b80601160006101000a81548173ffffffffffffffffffffffffffffffffffffffff021916908373ffffffffffffffffffffffffffffffffffffffff16021790555050565b6000600d54905090565b61123d612028565b6112456121b5565b60045460055461125591906129f0565b421015611297576040517f0e7f7d1500000000000000000000000000000000000000000000000000000000815260040161128e90612a9e565b60405180910390fd5b6000600a80548060200260200160405190810160405280929190818152602001828054801561131b57602002820191906000526020600020905b8160009054906101000a900473ffffffffffffffffffffffffffffffffffffffff1673ffffffffffffffffffffffffffffffffffffffff16815260200190600101908083116112d1575b505050505090506000805b82518110156113e6578473ffffffffffffffffffffffffffffffffffffffff1683828151811061135957611358612833565b5b602002602001015173ffffffffffffffffffffffffffffffffffffffff16036113d357600191508383828151811061139457611393612833565b5b602002602001019073ffffffffffffffffffffffffffffffffffffffff16908173ffffffffffffffffffffffffffffffffffffffff16815250506113e6565b80806113de90612891565b915050611326565b5080156114105781600a90805190602001906114039291906124af565b504260058190555061144b565b6040517f4763722200000000000000000000000000000000000000000000000000000000815260040161144290612a9e565b60405180910390fd5b5050611455612204565b5050565b6000600a80549050116114a1576040517fe9e10a6400000000000000000000000000000000000000000000000000000000815260040161149890612964565b60405180910390fd5b601560009054906101000a900460ff166114f0576040517f7bd1f7a20000000000000000000000000000000000000000000000000000000081526004016114e790612964565b60405180910390fd5b601660003373ffffffffffffffffffffffffffffffffffffffff1673ffffffffffffffffffffffffffffffffffffffff16815260200190815260200160002060009054906101000a900460ff161561157f57336040517f40b287420000000000000000000000000000000000000000000000000000000081526004016115769190612936565b60405180910390fd5b60135460125461158f91906129f0565b4211156115d95761159e6122d1565b6040517f5130ce4e0000000000000000000000000000000000000000000000000000000081526004016115d090612964565b60405180910390fd5b6115e2336120a6565b61162357336040517f8e8bbab900000000000000000000000000000000000000000000000000000000815260040161161a9190612936565b60405180910390fd5b6001601660003373ffffffffffffffffffffffffffffffffffffffff1673ffffffffffffffffffffffffffffffffffffffff16815260200190815260200160002060006101000a81548160ff0219169083151502179055506014600081548092919061168e90612891565b9190505550600954601454106116d2576116c9601560019054906101000a900473ffffffffffffffffffffffffffffffffffffffff1661220d565b6116d16122d1565b5b565b60008060009054906101000a900473ffffffffffffffffffffffffffffffffffffffff16905090565b6000600f60009054906101000a900460ff16905090565b60008061171f61174e565b90506000670de0b6b3a7640000600b548361173a9190612b21565b6117449190612b92565b9050809250505090565b600080601160009054906101000a900473ffffffffffffffffffffffffffffffffffffffff1673ffffffffffffffffffffffffffffffffffffffff1663feaf968c6040518163ffffffff1660e01b815260040160a060405180830381865afa1580156117be573d6000803e3d6000fd5b505050506040513d601f19601f820116820180604052508101906117e29190612c50565b5050509150506402540be400816117f99190612ccb565b91505090565b611807612028565b61180f6121b5565b60025460035461181f91906129f0565b421015611861576040517fdd49edf800000000000000000000000000000000000000000000000000000000815260040161185890612a9e565b60405180910390fd5b600a819080600181540180825580915050600190039060005260206000200160009091909190916101000a81548173ffffffffffffffffffffffffffffffffffffffff021916908373ffffffffffffffffffffffffffffffffffffffff160217905550426003819055506118d3612481565b6118db612204565b50565b6000600254905090565b6000600e54905090565b6000601660008373ffffffffffffffffffffffffffffffffffffffff1673ffffffffffffffffffffffffffffffffffffffff16815260200190815260200160002060009054906101000a900460ff169050919050565b6000601454905090565b61195a612028565b6119626121b5565b600081116119a757806040517fc816f5c800000000000000000000000000000000000000000000000000000000815260040161199e9190612d43565b60405180910390fd5b600b548111156119ee57806040517fd8dde22d0000000000000000000000000000000000000000000000000000000081526004016119e59190612d43565b60405180910390fd5b60008273ffffffffffffffffffffffffffffffffffffffff1682604051611a1490612da2565b60006040518083038185875af1925050503d8060008114611a51576040519150601f19603f3d011682016040523d82523d6000602084013e611a56565b606091505b5050905080611a9a576040517f5b0ecddc000000000000000000000000000000000000000000000000000000008152600401611a91906129d0565b60405180910390fd5b50611aa3612204565b5050565b611aaf612028565b60008111611af457806040517f60fe2e4f000000000000000000000000000000000000000000000000000000008152600401611aeb9190612d43565b60405180910390fd5b42600d8190555080600c819055506001600f60006101000a81548160ff02191690831515021790555050565b611b28612028565b611b306121b5565b600047905060008111611b7a57806040517f25ba08f5000000000000000000000000000000000000000000000000000000008152600401611b719190612d43565b60405180910390fd5b600b54811115611bc157806040517fd8dde22d000000000000000000000000000000000000000000000000000000008152600401611bb89190612d43565b60405180910390fd5b60008273ffffffffffffffffffffffffffffffffffffffff1682604051611be790612da2565b60006040518083038185875af1925050503d8060008114611c24576040519150601f19603f3d011682016040523d82523d6000602084013e611c29565b606091505b5050905080611c6d576040517f5b0ecddc000000000000000000000000000000000000000000000000000000008152600401611c64906129d0565b60405180910390fd5b5050611c77612204565b50565b6000601060008373ffffffffffffffffffffffffffffffffffffffff1673ffffffffffffffffffffffffffffffffffffffff16815260200190815260200160002060009054906101000a900460ff169050919050565b600060085460055414611ce557600554611ce8565b60005b905090565b6000600454905090565b600080611d0261174e565b90506000670de0b6b3a76400004783611d1b9190612b21565b611d259190612b92565b9050809250505090565b611d37612028565b600073ffffffffffffffffffffffffffffffffffffffff168173ffffffffffffffffffffffffffffffffffffffff1603611da6576040517f08c379a0000000000000000000000000000000000000000000000000000000008152600401611d9d90612e29565b60405180910390fd5b611daf8161220d565b50565b611dba612028565b6000600a8054905011611e02576040517fe9e10a64000000000000000000000000000000000000000000000000000000008152600401611df9906129d0565b60405180910390fd5b600f60009054906101000a900460ff16611e51576040517fe4363ca3000000000000000000000000000000000000000000000000000000008152600401611e48906129d0565b60405180910390fd5b600e54600d54611e6191906129f0565b421115611ea3576040517f5130ce4e000000000000000000000000000000000000000000000000000000008152600401611e9a906129d0565b60405180910390fd5b6000600a805480602002602001604051908101604052809291908181526020018280548015611f2757602002820191906000526020600020905b8160009054906101000a900473ffffffffffffffffffffffffffffffffffffffff1673ffffffffffffffffffffffffffffffffffffffff1681526020019060010190808311611edd575b505050505090506000805b8251811015611fc95760106000848381518110611f5257611f51612833565b5b602002602001015173ffffffffffffffffffffffffffffffffffffffff1673ffffffffffffffffffffffffffffffffffffffff16815260200190815260200160002060009054906101000a900460ff1615611fb6578180611fb290612891565b9250505b8080611fc190612891565b915050611f32565b50600954811015612013576009546040517f9dd75b3a00000000000000000000000000000000000000000000000000000000815260040161200a9190612d43565b60405180910390fd5b600c54600b819055506120246108a4565b5050565b6120306124a7565b73ffffffffffffffffffffffffffffffffffffffff1661204e6116d4565b73ffffffffffffffffffffffffffffffffffffffff16146120a4576040517f08c379a000000000000000000000000000000000000000000000000000000000815260040161209b90612e95565b60405180910390fd5b565b600080600a80548060200260200160405190810160405280929190818152602001828054801561212b57602002820191906000526020600020905b8160009054906101000a900473ffffffffffffffffffffffffffffffffffffffff1673ffffffffffffffffffffffffffffffffffffffff16815260200190600101908083116120e1575b5050505050905060005b81518110156121a95781818151811061215157612150612833565b5b602002602001015173ffffffffffffffffffffffffffffffffffffffff168473ffffffffffffffffffffffffffffffffffffffff1603612196576001925050506121b0565b80806121a190612891565b915050612135565b5060009150505b919050565b6002600154036121fa576040517f08c379a00000000000000000000000000000000000000000000000000000000081526004016121f190612f01565b60405180910390fd5b6002600181905550565b60018081905550565b60008060009054906101000a900473ffffffffffffffffffffffffffffffffffffffff169050816000806101000a81548173ffffffffffffffffffffffffffffffffffffffff021916908373ffffffffffffffffffffffffffffffffffffffff1602179055508173ffffffffffffffffffffffffffffffffffffffff168173ffffffffffffffffffffffffffffffffffffffff167f8be0079c531659141344cd1fd0a4f28419497f9722a3daafe3b4186f6b6457e060405160405180910390a35050565b6000601560006101000a81548160ff02191690831515021790555060006014819055506000600a80548060200260200160405190810160405280929190818152602001828054801561237857602002820191906000526020600020905b8160009054906101000a900473ffffffffffffffffffffffffffffffffffffffff1673ffffffffffffffffffffffffffffffffffffffff168152602001906001019080831161232e575b5050505050905060005b815181101561247d57601660008383815181106123a2576123a1612833565b5b602002602001015173ffffffffffffffffffffffffffffffffffffffff1673ffffffffffffffffffffffffffffffffffffffff16815260200190815260200160002060009054906101000a900460ff161561246a576000601660008484815181106124105761240f612833565b5b602002602001015173ffffffffffffffffffffffffffffffffffffffff1673ffffffffffffffffffffffffffffffffffffffff16815260200190815260200160002060006101000a81548160ff0219169083151502179055505b808061247590612891565b915050612382565b5050565b60016002600a805490506124959190612b92565b61249f91906129f0565b600981905550565b600033905090565b828054828255906000526020600020908101928215612528579160200282015b828111156125275782518260006101000a81548173ffffffffffffffffffffffffffffffffffffffff021916908373ffffffffffffffffffffffffffffffffffffffff160217905550916020019190600101906124cf565b5b5090506125359190612539565b5090565b5b8082111561255257600081600090555060010161253a565b5090565b600081519050919050565b600082825260208201905092915050565b6000819050602082019050919050565b600073ffffffffffffffffffffffffffffffffffffffff82169050919050565b60006125ad82612582565b9050919050565b6125bd816125a2565b82525050565b60006125cf83836125b4565b60208301905092915050565b6000602082019050919050565b60006125f382612556565b6125fd8185612561565b935061260883612572565b8060005b8381101561263957815161262088826125c3565b975061262b836125db565b92505060018101905061260c565b5085935050505092915050565b6000602082019050818103600083015261266081846125e8565b905092915050565b6000819050919050565b61267b81612668565b82525050565b60006020820190506126966000830184612672565b92915050565b600080fd5b6126aa816125a2565b81146126b557600080fd5b50565b6000813590506126c7816126a1565b92915050565b6000602082840312156126e3576126e261269c565b5b60006126f1848285016126b8565b91505092915050565b60008115159050919050565b61270f816126fa565b82525050565b600060208201905061272a6000830184612706565b92915050565b600080604083850312156127475761274661269c565b5b6000612755858286016126b8565b9250506020612766858286016126b8565b9150509250929050565b612779816125a2565b82525050565b60006020820190506127946000830184612770565b92915050565b6127a381612668565b81146127ae57600080fd5b50565b6000813590506127c08161279a565b92915050565b600080604083850312156127dd576127dc61269c565b5b60006127eb858286016126b8565b92505060206127fc858286016127b1565b9150509250929050565b60006020828403121561281c5761281b61269c565b5b600061282a848285016127b1565b91505092915050565b7f4e487b7100000000000000000000000000000000000000000000000000000000600052603260045260246000fd5b7f4e487b7100000000000000000000000000000000000000000000000000000000600052601160045260246000fd5b600061289c82612668565b91507fffffffffffffffffffffffffffffffffffffffffffffffffffffffffffffffff82036128ce576128cd612862565b5b600182019050919050565b600082825260208201905092915050565b7f4f776e6572736869704d616e6167657200000000000000000000000000000000600082015250565b60006129206010836128d9565b915061292b826128ea565b602082019050919050565b6000604082019050818103600083015261294f81612913565b905061295e6020830184612770565b92915050565b6000602082019050818103600083015261297d81612913565b9050919050565b7f46756e64734d616e616765720000000000000000000000000000000000000000600082015250565b60006129ba600c836128d9565b91506129c582612984565b602082019050919050565b600060208201905081810360008301526129e9816129ad565b9050919050565b60006129fb82612668565b9150612a0683612668565b9250828201905080821115612a1e57612a1d612862565b5b92915050565b60006040820190508181036000830152612a3d816129ad565b9050612a4c6020830184612770565b92915050565b7f477561726469616e734d616e6167657200000000000000000000000000000000600082015250565b6000612a886010836128d9565b9150612a9382612a52565b602082019050919050565b60006020820190508181036000830152612ab781612a7b565b9050919050565b6000612ac982612668565b9150612ad483612668565b9250828203905081811115612aec57612aeb612862565b5b92915050565b7f4e487b7100000000000000000000000000000000000000000000000000000000600052604160045260246000fd5b6000612b2c82612668565b9150612b3783612668565b9250828202612b4581612668565b91508282048414831517612b5c57612b5b612862565b5b5092915050565b7f4e487b7100000000000000000000000000000000000000000000000000000000600052601260045260246000fd5b6000612b9d82612668565b9150612ba883612668565b925082612bb857612bb7612b63565b5b828204905092915050565b600069ffffffffffffffffffff82169050919050565b612be281612bc3565b8114612bed57600080fd5b50565b600081519050612bff81612bd9565b92915050565b6000819050919050565b612c1881612c05565b8114612c2357600080fd5b50565b600081519050612c3581612c0f565b92915050565b600081519050612c4a8161279a565b92915050565b600080600080600060a08688031215612c6c57612c6b61269c565b5b6000612c7a88828901612bf0565b9550506020612c8b88828901612c26565b9450506040612c9c88828901612c3b565b9350506060612cad88828901612c3b565b9250506080612cbe88828901612bf0565b9150509295509295909350565b6000612cd682612c05565b9150612ce183612c05565b9250828202612cef81612c05565b91507f80000000000000000000000000000000000000000000000000000000000000008414600084121615612d2757612d26612862565b5b8282058414831517612d3c57612d3b612862565b5b5092915050565b60006040820190508181036000830152612d5c816129ad565b9050612d6b6020830184612672565b92915050565b600081905092915050565b50565b6000612d8c600083612d71565b9150612d9782612d7c565b600082019050919050565b6000612dad82612d7f565b9150819050919050565b7f4f776e61626c653a206e6577206f776e657220697320746865207a65726f206160008201527f6464726573730000000000000000000000000000000000000000000000000000602082015250565b6000612e136026836128d9565b9150612e1e82612db7565b604082019050919050565b60006020820190508181036000830152612e4281612e06565b9050919050565b7f4f776e61626c653a2063616c6c6572206973206e6f7420746865206f776e6572600082015250565b6000612e7f6020836128d9565b9150612e8a82612e49565b602082019050919050565b60006020820190508181036000830152612eae81612e72565b9050919050565b7f5265656e7472616e637947756172643a207265656e7472616e742063616c6c00600082015250565b6000612eeb601f836128d9565b9150612ef682612eb5565b602082019050919050565b60006020820190508181036000830152612f1a81612ede565b905091905056fea2646970667358221220e1f36ea838ca0716c8df01b52c78968b9dc61055e1d8a81d40b136609f902b6464736f6c63430008110033",
  "devdoc": {
    "kind": "dev",
    "methods": {
      "owner()": {
        "details": "Returns the address of the current owner."
      },
      "renounceOwnership()": {
        "details": "Leaves the contract without owner. It will not be possible to call `onlyOwner` functions anymore. Can only be called by the current owner. NOTE: Renouncing ownership will leave the contract without an owner, thereby removing any functionality that is only available to the owner."
      },
      "transferOwnership(address)": {
        "details": "Transfers ownership of the contract to a new account (`newOwner`). Can only be called by the current owner."
      }
    },
    "version": 1
  },
  "userdoc": {
    "kind": "user",
    "methods": {},
    "version": 1
  },
  "storageLayout": {
    "storage": [
      {
        "astId": 53,
        "contract": "contracts/Guardian.sol:Guardian",
        "label": "_owner",
        "offset": 0,
        "slot": "0",
        "type": "t_address"
      },
      {
        "astId": 169,
        "contract": "contracts/Guardian.sol:Guardian",
        "label": "_status",
        "offset": 0,
        "slot": "1",
        "type": "t_uint256"
      },
      {
        "astId": 888,
        "contract": "contracts/Guardian.sol:Guardian",
        "label": "addGuardianDelay",
        "offset": 0,
        "slot": "2",
        "type": "t_uint256"
      },
      {
        "astId": 890,
        "contract": "contracts/Guardian.sol:Guardian",
        "label": "lastGuardianAddTime",
        "offset": 0,
        "slot": "3",
        "type": "t_uint256"
      },
      {
        "astId": 892,
        "contract": "contracts/Guardian.sol:Guardian",
        "label": "changeGuardianDelay",
        "offset": 0,
        "slot": "4",
        "type": "t_uint256"
      },
      {
        "astId": 894,
        "contract": "contracts/Guardian.sol:Guardian",
        "label": "lastGuardianChangeTime",
        "offset": 0,
        "slot": "5",
        "type": "t_uint256"
      },
      {
        "astId": 896,
        "contract": "contracts/Guardian.sol:Guardian",
        "label": "removeGuardianDelay",
        "offset": 0,
        "slot": "6",
        "type": "t_uint256"
      },
      {
        "astId": 898,
        "contract": "contracts/Guardian.sol:Guardian",
        "label": "lastGuardianRemovalTime",
        "offset": 0,
        "slot": "7",
        "type": "t_uint256"
      },
      {
        "astId": 900,
        "contract": "contracts/Guardian.sol:Guardian",
        "label": "contractDeployTime",
        "offset": 0,
        "slot": "8",
        "type": "t_uint256"
      },
      {
        "astId": 902,
        "contract": "contracts/Guardian.sol:Guardian",
        "label": "requiredConfirmations",
        "offset": 0,
        "slot": "9",
        "type": "t_uint256"
      },
      {
        "astId": 905,
        "contract": "contracts/Guardian.sol:Guardian",
        "label": "guardians",
        "offset": 0,
        "slot": "10",
        "type": "t_array(t_address)dyn_storage"
      },
      {
        "astId": 336,
        "contract": "contracts/Guardian.sol:Guardian",
        "label": "dailyTransferLimit",
        "offset": 0,
        "slot": "11",
        "type": "t_uint256"
      },
      {
        "astId": 338,
        "contract": "contracts/Guardian.sol:Guardian",
        "label": "tempDailyTransferLimit",
        "offset": 0,
        "slot": "12",
        "type": "t_uint256"
      },
      {
        "astId": 340,
        "contract": "contracts/Guardian.sol:Guardian",
        "label": "lastDailyTransferUpdateRequestTime",
        "offset": 0,
        "slot": "13",
        "type": "t_uint256"
      },
      {
        "astId": 342,
        "contract": "contracts/Guardian.sol:Guardian",
        "label": "dailyTransferLimitUpdateConfirmationTime",
        "offset": 0,
        "slot": "14",
        "type": "t_uint256"
      },
      {
        "astId": 344,
        "contract": "contracts/Guardian.sol:Guardian",
        "label": "isDailyTransferLimitUpdateRequested",
        "offset": 0,
        "slot": "15",
        "type": "t_bool"
      },
      {
        "astId": 348,
        "contract": "contracts/Guardian.sol:Guardian",
        "label": "isConfirmedByGuardian",
        "offset": 0,
        "slot": "16",
        "type": "t_mapping(t_address,t_bool)"
      },
      {
        "astId": 351,
        "contract": "contracts/Guardian.sol:Guardian",
        "label": "priceFeed",
        "offset": 0,
        "slot": "17",
        "type": "t_contract(AggregatorV3Interface)45"
      },
      {
        "astId": 1314,
        "contract": "contracts/Guardian.sol:Guardian",
        "label": "lastOwnerUpdateRequestTime",
        "offset": 0,
        "slot": "18",
        "type": "t_uint256"
      },
      {
        "astId": 1316,
        "contract": "contracts/Guardian.sol:Guardian",
        "label": "ownerUpdateConfirmationTime",
        "offset": 0,
        "slot": "19",
        "type": "t_uint256"
      },
      {
        "astId": 1318,
        "contract": "contracts/Guardian.sol:Guardian",
        "label": "noOfConfirmations",
        "offset": 0,
        "slot": "20",
        "type": "t_uint256"
      },
      {
        "astId": 1320,
        "contract": "contracts/Guardian.sol:Guardian",
        "label": "isOwnerUpdateRequested",
        "offset": 0,
        "slot": "21",
        "type": "t_bool"
      },
      {
        "astId": 1322,
        "contract": "contracts/Guardian.sol:Guardian",
        "label": "tempAddress",
        "offset": 1,
        "slot": "21",
        "type": "t_address"
      },
      {
        "astId": 1326,
        "contract": "contracts/Guardian.sol:Guardian",
        "label": "isOwnershipConfimedByGuardian",
        "offset": 0,
        "slot": "22",
        "type": "t_mapping(t_address,t_bool)"
      }
    ],
    "types": {
      "t_address": {
        "encoding": "inplace",
        "label": "address",
        "numberOfBytes": "20"
      },
      "t_array(t_address)dyn_storage": {
        "base": "t_address",
        "encoding": "dynamic_array",
        "label": "address[]",
        "numberOfBytes": "32"
      },
      "t_bool": {
        "encoding": "inplace",
        "label": "bool",
        "numberOfBytes": "1"
      },
      "t_contract(AggregatorV3Interface)45": {
        "encoding": "inplace",
        "label": "contract AggregatorV3Interface",
        "numberOfBytes": "20"
      },
      "t_mapping(t_address,t_bool)": {
        "encoding": "mapping",
        "key": "t_address",
        "label": "mapping(address => bool)",
        "numberOfBytes": "32",
        "value": "t_bool"
      },
      "t_uint256": {
        "encoding": "inplace",
        "label": "uint256",
        "numberOfBytes": "32"
      }
    }
  }
}