{
  "address": "0xe7f1725E7734CE288F8367e1Bb143E90bb3F0512",
  "abi": [
    {
      "inputs": [
        {
          "internalType": "address",
          "name": "priceFeed",
          "type": "address"
        }
      ],
      "stateMutability": "nonpayable",
      "type": "constructor"
    },
    {
      "inputs": [
        {
          "internalType": "string",
          "name": "location",
          "type": "string"
        },
        {
          "internalType": "address",
          "name": "addr",
          "type": "address"
        }
      ],
      "name": "Error__AddressAlreadyAnOwner",
      "type": "error"
    },
    {
      "inputs": [
        {
          "internalType": "string",
          "name": "location",
          "type": "string"
        },
        {
          "internalType": "address",
          "name": "addr",
          "type": "address"
        }
      ],
      "name": "Error__AddressNotFoundAsGuardian",
      "type": "error"
    },
    {
      "inputs": [
        {
          "internalType": "string",
          "name": "location",
          "type": "string"
        },
        {
          "internalType": "address",
          "name": "guardian",
          "type": "address"
        }
      ],
      "name": "Error__AlreadyConfirmedByGuardian",
      "type": "error"
    },
    {
      "inputs": [
        {
          "internalType": "string",
          "name": "location",
          "type": "string"
        },
        {
          "internalType": "uint256",
          "name": "balance",
          "type": "uint256"
        }
      ],
      "name": "Error__BalanceIsZero",
      "type": "error"
    },
    {
      "inputs": [
        {
          "internalType": "string",
          "name": "location",
          "type": "string"
        }
      ],
      "name": "Error__CanOnlyAddAfterDelayPeriod",
      "type": "error"
    },
    {
      "inputs": [
        {
          "internalType": "string",
          "name": "location",
          "type": "string"
        }
      ],
      "name": "Error__CanOnlyChangeAfterDelayPeriod",
      "type": "error"
    },
    {
      "inputs": [
        {
          "internalType": "string",
          "name": "location",
          "type": "string"
        }
      ],
      "name": "Error__CanOnlyRemoveAfterDelayPeriod",
      "type": "error"
    },
    {
      "inputs": [
        {
          "internalType": "string",
          "name": "location",
          "type": "string"
        },
        {
          "internalType": "uint256",
          "name": "amount",
          "type": "uint256"
        }
      ],
      "name": "Error__DailyTransferLimitExceed",
      "type": "error"
    },
    {
      "inputs": [
        {
          "internalType": "string",
          "name": "location",
          "type": "string"
        }
      ],
      "name": "Error__GuardianDoesNotExist",
      "type": "error"
    },
    {
      "inputs": [
        {
          "internalType": "string",
          "name": "location",
          "type": "string"
        }
      ],
      "name": "Error__GuardiansListIsEmpty",
      "type": "error"
    },
    {
      "inputs": [
        {
          "internalType": "string",
          "name": "location",
          "type": "string"
        },
        {
          "internalType": "uint256",
          "name": "amount",
          "type": "uint256"
        }
      ],
      "name": "Error__InvalidAmount",
      "type": "error"
    },
    {
      "inputs": [
        {
          "internalType": "string",
          "name": "location",
          "type": "string"
        },
        {
          "internalType": "uint256",
          "name": "limit",
          "type": "uint256"
        }
      ],
      "name": "Error__InvalidLimit",
      "type": "error"
    },
    {
      "inputs": [
        {
          "internalType": "string",
          "name": "location",
          "type": "string"
        }
      ],
      "name": "Error__RequestTimeExpired",
      "type": "error"
    },
    {
      "inputs": [
        {
          "internalType": "string",
          "name": "location",
          "type": "string"
        },
        {
          "internalType": "uint256",
          "name": "confirmations",
          "type": "uint256"
        }
      ],
      "name": "Error__RequiredConfirmationsNotMet",
      "type": "error"
    },
    {
      "inputs": [
        {
          "internalType": "string",
          "name": "location",
          "type": "string"
        }
      ],
      "name": "Error__TransactionFailed",
      "type": "error"
    },
    {
      "inputs": [
        {
          "internalType": "string",
          "name": "location",
          "type": "string"
        }
      ],
      "name": "Error__UpdateNotRequested",
      "type": "error"
    },
    {
      "inputs": [
        {
          "internalType": "string",
          "name": "location",
          "type": "string"
        }
      ],
      "name": "Error__UpdateNotRequestedByOwner",
      "type": "error"
    },
    {
      "anonymous": false,
      "inputs": [
        {
          "indexed": true,
          "internalType": "address",
          "name": "previousOwner",
          "type": "address"
        },
        {
          "indexed": true,
          "internalType": "address",
          "name": "newOwner",
          "type": "address"
        }
      ],
      "name": "OwnershipTransferred",
      "type": "event"
    },
    {
      "stateMutability": "payable",
      "type": "fallback"
    },
    {
      "inputs": [
        {
          "internalType": "address",
          "name": "guardian",
          "type": "address"
        }
      ],
      "name": "addGuardian",
      "outputs": [],
      "stateMutability": "nonpayable",
      "type": "function"
    },
    {
      "inputs": [
        {
          "internalType": "address",
          "name": "from",
          "type": "address"
        },
        {
          "internalType": "address",
          "name": "to",
          "type": "address"
        }
      ],
      "name": "changeGuardian",
      "outputs": [],
      "stateMutability": "nonpayable",
      "type": "function"
    },
    {
      "inputs": [],
      "name": "confirmAndUpdate",
      "outputs": [],
      "stateMutability": "nonpayable",
      "type": "function"
    },
    {
      "inputs": [],
      "name": "confirmDailyTransferLimitRequest",
      "outputs": [],
      "stateMutability": "nonpayable",
      "type": "function"
    },
    {
      "inputs": [],
      "name": "confirmUpdateOwnerRequest",
      "outputs": [],
      "stateMutability": "nonpayable",
      "type": "function"
    },
    {
      "inputs": [],
      "name": "getAddGuardianDelay",
      "outputs": [
        {
          "internalType": "uint256",
          "name": "",
          "type": "uint256"
        }
      ],
      "stateMutability": "view",
      "type": "function"
    },
    {
      "inputs": [],
      "name": "getBalance",
      "outputs": [
        {
          "internalType": "uint256",
          "name": "",
          "type": "uint256"
        }
      ],
      "stateMutability": "view",
      "type": "function"
    },
    {
      "inputs": [],
      "name": "getBalanceInUSD",
      "outputs": [
        {
          "internalType": "uint256",
          "name": "",
          "type": "uint256"
        }
      ],
      "stateMutability": "view",
      "type": "function"
    },
    {
      "inputs": [],
      "name": "getChangeGuardianDelay",
      "outputs": [
        {
          "internalType": "uint256",
          "name": "",
          "type": "uint256"
        }
      ],
      "stateMutability": "view",
      "type": "function"
    },
    {
      "inputs": [],
      "name": "getDailyTransferLimit",
      "outputs": [
        {
          "internalType": "uint256",
          "name": "",
          "type": "uint256"
        }
      ],
      "stateMutability": "view",
      "type": "function"
    },
    {
      "inputs": [],
      "name": "getDailyTransferLimitInUSD",
      "outputs": [
        {
          "internalType": "uint256",
          "name": "",
          "type": "uint256"
        }
      ],
      "stateMutability": "view",
      "type": "function"
    },
    {
      "inputs": [],
      "name": "getDailyTransferLimitUpdateConfirmationTime",
      "outputs": [
        {
          "internalType": "uint256",
          "name": "",
          "type": "uint256"
        }
      ],
      "stateMutability": "view",
      "type": "function"
    },
    {
      "inputs": [],
      "name": "getDailyTransferLimitUpdateRequestStatus",
      "outputs": [
        {
          "internalType": "bool",
          "name": "",
          "type": "bool"
        }
      ],
      "stateMutability": "view",
      "type": "function"
    },
    {
      "inputs": [
        {
          "internalType": "address",
          "name": "guardian",
          "type": "address"
        }
      ],
      "name": "getGuardianConfirmationStatus",
      "outputs": [
        {
          "internalType": "bool",
          "name": "",
          "type": "bool"
        }
      ],
      "stateMutability": "view",
      "type": "function"
    },
    {
      "inputs": [],
      "name": "getGuardians",
      "outputs": [
        {
          "internalType": "address[]",
          "name": "",
          "type": "address[]"
        }
      ],
      "stateMutability": "view",
      "type": "function"
    },
    {
      "inputs": [],
      "name": "getIsOwnerUpdateRequested",
      "outputs": [
        {
          "internalType": "bool",
          "name": "",
          "type": "bool"
        }
      ],
      "stateMutability": "view",
      "type": "function"
    },
    {
      "inputs": [
        {
          "internalType": "address",
          "name": "guardian",
          "type": "address"
        }
      ],
      "name": "getIsOwnershipConfimedByGuardian",
      "outputs": [
        {
          "internalType": "bool",
          "name": "",
          "type": "bool"
        }
      ],
      "stateMutability": "view",
      "type": "function"
    },
    {
      "inputs": [],
      "name": "getLastDailyTransferUpdateRequestTime",
      "outputs": [
        {
          "internalType": "uint256",
          "name": "",
          "type": "uint256"
        }
      ],
      "stateMutability": "view",
      "type": "function"
    },
    {
      "inputs": [],
      "name": "getLastGuardianAddTime",
      "outputs": [
        {
          "internalType": "uint256",
          "name": "",
          "type": "uint256"
        }
      ],
      "stateMutability": "view",
      "type": "function"
    },
    {
      "inputs": [],
      "name": "getLastGuardianChangeTime",
      "outputs": [
        {
          "internalType": "uint256",
          "name": "",
          "type": "uint256"
        }
      ],
      "stateMutability": "view",
      "type": "function"
    },
    {
      "inputs": [],
      "name": "getLastGuardianRemovalTime",
      "outputs": [
        {
          "internalType": "uint256",
          "name": "",
          "type": "uint256"
        }
      ],
      "stateMutability": "view",
      "type": "function"
    },
    {
      "inputs": [],
      "name": "getLastOwnerUpdateRequestTime",
      "outputs": [
        {
          "internalType": "uint256",
          "name": "",
          "type": "uint256"
        }
      ],
      "stateMutability": "view",
      "type": "function"
    },
    {
      "inputs": [],
      "name": "getNoOfConfirmations",
      "outputs": [
        {
          "internalType": "uint256",
          "name": "",
          "type": "uint256"
        }
      ],
      "stateMutability": "view",
      "type": "function"
    },
    {
      "inputs": [],
      "name": "getOwnerUpdateConfirmationTime",
      "outputs": [
        {
          "internalType": "uint256",
          "name": "",
          "type": "uint256"
        }
      ],
      "stateMutability": "view",
      "type": "function"
    },
    {
      "inputs": [],
      "name": "getPrice",
      "outputs": [
        {
          "internalType": "uint256",
          "name": "",
          "type": "uint256"
        }
      ],
      "stateMutability": "view",
      "type": "function"
    },
    {
      "inputs": [],
      "name": "getRemoveGuardianDelay",
      "outputs": [
        {
          "internalType": "uint256",
          "name": "",
          "type": "uint256"
        }
      ],
      "stateMutability": "view",
      "type": "function"
    },
    {
      "inputs": [],
      "name": "getRequiredConfirmations",
      "outputs": [
        {
          "internalType": "uint256",
          "name": "",
          "type": "uint256"
        }
      ],
      "stateMutability": "view",
      "type": "function"
    },
    {
      "inputs": [],
      "name": "owner",
      "outputs": [
        {
          "internalType": "address",
          "name": "",
          "type": "address"
        }
      ],
      "stateMutability": "view",
      "type": "function"
    },
    {
      "inputs": [
        {
          "internalType": "address",
          "name": "guardian",
          "type": "address"
        }
      ],
      "name": "removeGuardian",
      "outputs": [],
      "stateMutability": "nonpayable",
      "type": "function"
    },
    {
      "inputs": [],
      "name": "renounceOwnership",
      "outputs": [],
      "stateMutability": "nonpayable",
      "type": "function"
    },
    {
      "inputs": [
        {
          "internalType": "uint256",
          "name": "limit",
          "type": "uint256"
        }
      ],
      "name": "requestToUpdateDailyTransferLimit",
      "outputs": [],
      "stateMutability": "nonpayable",
      "type": "function"
    },
    {
      "inputs": [
        {
          "internalType": "address",
          "name": "newOwnerAddress",
          "type": "address"
        }
      ],
      "name": "requestToUpdateOwner",
      "outputs": [],
      "stateMutability": "nonpayable",
      "type": "function"
    },
    {
      "inputs": [],
      "name": "resetDailyTransferLimitVariables",
      "outputs": [],
      "stateMutability": "nonpayable",
      "type": "function"
    },
    {
      "inputs": [],
      "name": "resetOwnershipVariables",
      "outputs": [],
      "stateMutability": "nonpayable",
      "type": "function"
    },
    {
      "inputs": [
        {
          "internalType": "address",
          "name": "to",
          "type": "address"
        },
        {
          "internalType": "uint256",
          "name": "amount",
          "type": "uint256"
        }
      ],
      "name": "send",
      "outputs": [],
      "stateMutability": "nonpayable",
      "type": "function"
    },
    {
      "inputs": [
        {
          "internalType": "address",
          "name": "to",
          "type": "address"
        }
      ],
      "name": "sendAll",
      "outputs": [],
      "stateMutability": "nonpayable",
      "type": "function"
    },
    {
      "inputs": [
        {
          "internalType": "address",
          "name": "newOwner",
          "type": "address"
        }
      ],
      "name": "transferOwnership",
      "outputs": [],
      "stateMutability": "nonpayable",
      "type": "function"
    },
    {
      "inputs": [
        {
          "internalType": "address",
          "name": "_priceFeed",
          "type": "address"
        }
      ],
      "name": "updateETHUSDPriceFeed",
      "outputs": [],
      "stateMutability": "nonpayable",
      "type": "function"
    },
    {
      "stateMutability": "payable",
      "type": "receive"
    }
  ],
  "transactionHash": "0x5c740bdf2780eefcbc46ddb985188170c5025e812572f7d0a5cbbe7181760f3d",
  "args": [
    "0x5FbDB2315678afecb367f032d93F642f64180aa3"
  ],
  "numDeployments": 1,
  "solcInputHash": "90352e9b40ab06e213a9ced7ed628914",
  "bytecode": "0x60806040523480156200001157600080fd5b50604051620031f5380380620031f583398181016040528101906200003791906200023a565b80620000586200004c6200010460201b60201c565b6200010c60201b60201c565b600180819055504260088190555042600381905550620151806002819055504260058190555062015180600481905550426007819055506203f48060068190555080601160006101000a81548173ffffffffffffffffffffffffffffffffffffffff021916908373ffffffffffffffffffffffffffffffffffffffff160217905550670de0b6b3a7640000600b8190555062015180600e8190555050611c20601381905550506200026c565b600033905090565b60008060009054906101000a900473ffffffffffffffffffffffffffffffffffffffff169050816000806101000a81548173ffffffffffffffffffffffffffffffffffffffff021916908373ffffffffffffffffffffffffffffffffffffffff1602179055508173ffffffffffffffffffffffffffffffffffffffff168173ffffffffffffffffffffffffffffffffffffffff167f8be0079c531659141344cd1fd0a4f28419497f9722a3daafe3b4186f6b6457e060405160405180910390a35050565b600080fd5b600073ffffffffffffffffffffffffffffffffffffffff82169050919050565b60006200020282620001d5565b9050919050565b6200021481620001f5565b81146200022057600080fd5b50565b600081519050620002348162000209565b92915050565b600060208284031215620002535762000252620001d0565b5b6000620002638482850162000223565b91505092915050565b612f79806200027c6000396000f3fe6080604052600436106102295760003560e01c80638da5cb5b11610123578063d0679d34116100ab578063e9316a211161006f578063e9316a211461076d578063ecfba8f514610798578063ef649249146107c3578063f2fde38b146107ee578063fb5497881461081757610230565b8063d0679d341461069e578063d2377361146106c7578063d644d7f9146106f0578063d660c45d14610707578063daf3ce6a1461073057610230565b8063a526d83b116100f2578063a526d83b146105b7578063a85ae377146105e0578063af630ad31461060b578063b9e1c79814610636578063bbe4424a1461067357610230565b80638da5cb5b1461050b5780638fc270b7146105365780639204f4771461056157806398d5fdca1461058c57610230565b80632ad2ed90116101b15780637388fe86116101755780637388fe861461044c57806379f9c22f146104775780637d09f5dd146104a057806383b40cc9146104cb5780638636068c146104f457610230565b80632ad2ed901461038b5780632b28d0cc146103b6578063673d4ec8146103e1578063714041561461040c578063715018a61461043557610230565b806312065fe0116101f857806312065fe0146102c857806314cbc763146102f357806315c1bc3e1461031e57806324cb76041461034957806326c886df1461037457610230565b80630665f04b1461023257806306c4df831461025d5780630ea52f0f1461028857806310a0cf171461029f57610230565b3661023057005b005b34801561023e57600080fd5b5061024761082e565b6040516102549190612668565b60405180910390f35b34801561026957600080fd5b506102726108bc565b60405161027f91906126a3565b60405180910390f35b34801561029457600080fd5b5061029d6108c6565b005b3480156102ab57600080fd5b506102c660048036038101906102c191906126ef565b610a76565b005b3480156102d457600080fd5b506102dd610c55565b6040516102ea91906126a3565b60405180910390f35b3480156102ff57600080fd5b50610308610c5d565b60405161031591906126a3565b60405180910390f35b34801561032a57600080fd5b50610333610c67565b60405161034091906126a3565b60405180910390f35b34801561035557600080fd5b5061035e610c71565b60405161036b91906126a3565b60405180910390f35b34801561038057600080fd5b50610389610c7b565b005b34801561039757600080fd5b506103a0610e97565b6040516103ad91906126a3565b60405180910390f35b3480156103c257600080fd5b506103cb610eb4565b6040516103d891906126a3565b60405180910390f35b3480156103ed57600080fd5b506103f6610ebe565b6040516104039190612737565b60405180910390f35b34801561041857600080fd5b50610433600480360381019061042e91906126ef565b610ed5565b005b34801561044157600080fd5b5061044a6111d0565b005b34801561045857600080fd5b506104616111e4565b60405161046e91906126a3565b60405180910390f35b34801561048357600080fd5b5061049e600480360381019061049991906126ef565b611201565b005b3480156104ac57600080fd5b506104b561124d565b6040516104c291906126a3565b60405180910390f35b3480156104d757600080fd5b506104f260048036038101906104ed9190612752565b611257565b005b34801561050057600080fd5b5061050961147b565b005b34801561051757600080fd5b506105206116f6565b60405161052d91906127a1565b60405180910390f35b34801561054257600080fd5b5061054b61171f565b6040516105589190612737565b60405180910390f35b34801561056d57600080fd5b50610576611736565b60405161058391906126a3565b60405180910390f35b34801561059857600080fd5b506105a1611770565b6040516105ae91906126a3565b60405180910390f35b3480156105c357600080fd5b506105de60048036038101906105d991906126ef565b611821565b005b3480156105ec57600080fd5b506105f5611900565b60405161060291906126a3565b60405180910390f35b34801561061757600080fd5b5061062061190a565b60405161062d91906126a3565b60405180910390f35b34801561064257600080fd5b5061065d600480360381019061065891906126ef565b611914565b60405161066a9190612737565b60405180910390f35b34801561067f57600080fd5b5061068861196a565b60405161069591906126a3565b60405180910390f35b3480156106aa57600080fd5b506106c560048036038101906106c091906127e8565b611974565b005b3480156106d357600080fd5b506106ee60048036038101906106e99190612828565b611ac9565b005b3480156106fc57600080fd5b50610705611b42565b005b34801561071357600080fd5b5061072e600480360381019061072991906126ef565b611cf2565b005b34801561073c57600080fd5b50610757600480360381019061075291906126ef565b611e4c565b6040516107649190612737565b60405180910390f35b34801561077957600080fd5b50610782611ea2565b60405161078f91906126a3565b60405180910390f35b3480156107a457600080fd5b506107ad611ebf565b6040516107ba91906126a3565b60405180910390f35b3480156107cf57600080fd5b506107d8611ec9565b6040516107e591906126a3565b60405180910390f35b3480156107fa57600080fd5b50610815600480360381019061081091906126ef565b611f01565b005b34801561082357600080fd5b5061082c611f84565b005b6060600a8054806020026020016040519081016040528092919081815260200182805480156108b257602002820191906000526020600020905b8160009054906101000a900473ffffffffffffffffffffffffffffffffffffffff1673ffffffffffffffffffffffffffffffffffffffff1681526020019060010190808311610868575b5050505050905090565b6000601254905090565b6108ce6121fa565b6000600f60006101000a81548160ff0219169083151502179055506000600a80548060200260200160405190810160405280929190818152602001828054801561096d57602002820191906000526020600020905b8160009054906101000a900473ffffffffffffffffffffffffffffffffffffffff1673ffffffffffffffffffffffffffffffffffffffff1681526020019060010190808311610923575b5050505050905060005b8151811015610a72576010600083838151811061099757610996612855565b5b602002602001015173ffffffffffffffffffffffffffffffffffffffff1673ffffffffffffffffffffffffffffffffffffffff16815260200190815260200160002060009054906101000a900460ff1615610a5f57600060106000848481518110610a0557610a04612855565b5b602002602001015173ffffffffffffffffffffffffffffffffffffffff1673ffffffffffffffffffffffffffffffffffffffff16815260200190815260200160002060006101000a81548160ff0219169083151502179055505b8080610a6a906128b3565b915050610977565b5050565b610a7e6116f6565b73ffffffffffffffffffffffffffffffffffffffff168173ffffffffffffffffffffffffffffffffffffffff1603610aed57806040517fa4f2199f000000000000000000000000000000000000000000000000000000008152600401610ae49190612958565b60405180910390fd5b6000600a8054905011610b35576040517fe9e10a64000000000000000000000000000000000000000000000000000000008152600401610b2c90612986565b60405180910390fd5b610b3e33612278565b610b7f57336040517f8e8bbab9000000000000000000000000000000000000000000000000000000008152600401610b769190612958565b60405180910390fd5b4260128190555080601560016101000a81548173ffffffffffffffffffffffffffffffffffffffff021916908373ffffffffffffffffffffffffffffffffffffffff1602179055506001601660003373ffffffffffffffffffffffffffffffffffffffff1673ffffffffffffffffffffffffffffffffffffffff16815260200190815260200160002060006101000a81548160ff02191690831515021790555060146000815480929190610c32906128b3565b91905055506001601560006101000a81548160ff02191690831515021790555050565b600047905090565b6000600654905090565b6000600b54905090565b6000600954905090565b6000600a8054905011610cc3576040517fe9e10a64000000000000000000000000000000000000000000000000000000008152600401610cba906129f2565b60405180910390fd5b600f60009054906101000a900460ff16610d12576040517fe4363ca3000000000000000000000000000000000000000000000000000000008152600401610d09906129f2565b60405180910390fd5b600e54600d54610d229190612a12565b421115610d64576040517f5130ce4e000000000000000000000000000000000000000000000000000000008152600401610d5b906129f2565b60405180910390fd5b601060003373ffffffffffffffffffffffffffffffffffffffff1673ffffffffffffffffffffffffffffffffffffffff16815260200190815260200160002060009054906101000a900460ff1615610df357336040517f40b28742000000000000000000000000000000000000000000000000000000008152600401610dea9190612a46565b60405180910390fd5b610dfc33612278565b610e3d57336040517f8e8bbab9000000000000000000000000000000000000000000000000000000008152600401610e349190612a46565b60405180910390fd5b6001601060003373ffffffffffffffffffffffffffffffffffffffff1673ffffffffffffffffffffffffffffffffffffffff16815260200190815260200160002060006101000a81548160ff021916908315150217905550565b600060085460075414610eac57600754610eaf565b60005b905090565b6000601354905090565b6000601560009054906101000a900460ff16905090565b610edd6121fa565b610ee5612387565b600654600754610ef59190612a12565b421015610f37576040517f2ab71fd6000000000000000000000000000000000000000000000000000000008152600401610f2e90612ac0565b60405180910390fd5b6000600a8054905011610f7f576040517fe9e10a64000000000000000000000000000000000000000000000000000000008152600401610f7690612ac0565b60405180910390fd5b610f8881612278565b610fc7576040517f47637222000000000000000000000000000000000000000000000000000000008152600401610fbe90612ac0565b60405180910390fd5b6000600a80548060200260200160405190810160405280929190818152602001828054801561104b57602002820191906000526020600020905b8160009054906101000a900473ffffffffffffffffffffffffffffffffffffffff1673ffffffffffffffffffffffffffffffffffffffff1681526020019060010190808311611001575b505050505090506000600182516110629190612ae0565b67ffffffffffffffff81111561107b5761107a612b14565b5b6040519080825280602002602001820160405280156110a95781602001602082028036833780820191505090505b50905060008060005b845181101561119b578573ffffffffffffffffffffffffffffffffffffffff168582815181106110e5576110e4612855565b5b602002602001015173ffffffffffffffffffffffffffffffffffffffff16036111115760019150611188565b84818151811061112457611123612855565b5b602002602001015184848151811061113f5761113e612855565b5b602002602001019073ffffffffffffffffffffffffffffffffffffffff16908173ffffffffffffffffffffffffffffffffffffffff16815250508280611184906128b3565b9350505b8080611193906128b3565b9150506110b2565b5080156111c15782600a90805190602001906111b89291906124d1565b50426007819055505b505050506111cd6123d6565b50565b6111d86121fa565b6111e260006123df565b565b6000600854600354146111f9576003546111fc565b60005b905090565b6112096121fa565b80601160006101000a81548173ffffffffffffffffffffffffffffffffffffffff021916908373ffffffffffffffffffffffffffffffffffffffff16021790555050565b6000600d54905090565b61125f6121fa565b611267612387565b6004546005546112779190612a12565b4210156112b9576040517f0e7f7d150000000000000000000000000000000000000000000000000000000081526004016112b090612ac0565b60405180910390fd5b6000600a80548060200260200160405190810160405280929190818152602001828054801561133d57602002820191906000526020600020905b8160009054906101000a900473ffffffffffffffffffffffffffffffffffffffff1673ffffffffffffffffffffffffffffffffffffffff16815260200190600101908083116112f3575b505050505090506000805b8251811015611408578473ffffffffffffffffffffffffffffffffffffffff1683828151811061137b5761137a612855565b5b602002602001015173ffffffffffffffffffffffffffffffffffffffff16036113f55760019150838382815181106113b6576113b5612855565b5b602002602001019073ffffffffffffffffffffffffffffffffffffffff16908173ffffffffffffffffffffffffffffffffffffffff1681525050611408565b8080611400906128b3565b915050611348565b5080156114325781600a90805190602001906114259291906124d1565b504260058190555061146d565b6040517f4763722200000000000000000000000000000000000000000000000000000000815260040161146490612ac0565b60405180910390fd5b50506114776123d6565b5050565b6000600a80549050116114c3576040517fe9e10a640000000000000000000000000000000000000000000000000000000081526004016114ba90612986565b60405180910390fd5b601560009054906101000a900460ff16611512576040517f7bd1f7a200000000000000000000000000000000000000000000000000000000815260040161150990612986565b60405180910390fd5b601660003373ffffffffffffffffffffffffffffffffffffffff1673ffffffffffffffffffffffffffffffffffffffff16815260200190815260200160002060009054906101000a900460ff16156115a157336040517f40b287420000000000000000000000000000000000000000000000000000000081526004016115989190612958565b60405180910390fd5b6013546012546115b19190612a12565b4211156115fb576115c0611b42565b6040517f5130ce4e0000000000000000000000000000000000000000000000000000000081526004016115f290612986565b60405180910390fd5b61160433612278565b61164557336040517f8e8bbab900000000000000000000000000000000000000000000000000000000815260040161163c9190612958565b60405180910390fd5b6001601660003373ffffffffffffffffffffffffffffffffffffffff1673ffffffffffffffffffffffffffffffffffffffff16815260200190815260200160002060006101000a81548160ff021916908315150217905550601460008154809291906116b0906128b3565b9190505550600954601454106116f4576116eb601560019054906101000a900473ffffffffffffffffffffffffffffffffffffffff166123df565b6116f3611b42565b5b565b60008060009054906101000a900473ffffffffffffffffffffffffffffffffffffffff16905090565b6000600f60009054906101000a900460ff16905090565b600080611741611770565b90506000670de0b6b3a7640000600b548361175c9190612b43565b6117669190612bb4565b9050809250505090565b600080601160009054906101000a900473ffffffffffffffffffffffffffffffffffffffff1673ffffffffffffffffffffffffffffffffffffffff1663feaf968c6040518163ffffffff1660e01b815260040160a060405180830381865afa1580156117e0573d6000803e3d6000fd5b505050506040513d601f19601f820116820180604052508101906118049190612c72565b5050509150506402540be4008161181b9190612ced565b91505090565b6118296121fa565b611831612387565b6002546003546118419190612a12565b421015611883576040517fdd49edf800000000000000000000000000000000000000000000000000000000815260040161187a90612ac0565b60405180910390fd5b600a819080600181540180825580915050600190039060005260206000200160009091909190916101000a81548173ffffffffffffffffffffffffffffffffffffffff021916908373ffffffffffffffffffffffffffffffffffffffff160217905550426003819055506118f56124a3565b6118fd6123d6565b50565b6000600254905090565b6000600e54905090565b6000601660008373ffffffffffffffffffffffffffffffffffffffff1673ffffffffffffffffffffffffffffffffffffffff16815260200190815260200160002060009054906101000a900460ff169050919050565b6000601454905090565b61197c6121fa565b611984612387565b600081116119c957806040517fc816f5c80000000000000000000000000000000000000000000000000000000081526004016119c09190612d65565b60405180910390fd5b600b54811115611a1057806040517fd8dde22d000000000000000000000000000000000000000000000000000000008152600401611a079190612d65565b60405180910390fd5b60008273ffffffffffffffffffffffffffffffffffffffff1682604051611a3690612dc4565b60006040518083038185875af1925050503d8060008114611a73576040519150601f19603f3d011682016040523d82523d6000602084013e611a78565b606091505b5050905080611abc576040517f5b0ecddc000000000000000000000000000000000000000000000000000000008152600401611ab3906129f2565b60405180910390fd5b50611ac56123d6565b5050565b611ad16121fa565b60008111611b1657806040517f60fe2e4f000000000000000000000000000000000000000000000000000000008152600401611b0d9190612d65565b60405180910390fd5b42600d8190555080600c819055506001600f60006101000a81548160ff02191690831515021790555050565b6000601560006101000a81548160ff02191690831515021790555060006014819055506000600a805480602002602001604051908101604052809291908181526020018280548015611be957602002820191906000526020600020905b8160009054906101000a900473ffffffffffffffffffffffffffffffffffffffff1673ffffffffffffffffffffffffffffffffffffffff1681526020019060010190808311611b9f575b5050505050905060005b8151811015611cee5760166000838381518110611c1357611c12612855565b5b602002602001015173ffffffffffffffffffffffffffffffffffffffff1673ffffffffffffffffffffffffffffffffffffffff16815260200190815260200160002060009054906101000a900460ff1615611cdb57600060166000848481518110611c8157611c80612855565b5b602002602001015173ffffffffffffffffffffffffffffffffffffffff1673ffffffffffffffffffffffffffffffffffffffff16815260200190815260200160002060006101000a81548160ff0219169083151502179055505b8080611ce6906128b3565b915050611bf3565b5050565b611cfa6121fa565b611d02612387565b600047905060008111611d4c57806040517f25ba08f5000000000000000000000000000000000000000000000000000000008152600401611d439190612d65565b60405180910390fd5b600b54811115611d9357806040517fd8dde22d000000000000000000000000000000000000000000000000000000008152600401611d8a9190612d65565b60405180910390fd5b60008273ffffffffffffffffffffffffffffffffffffffff1682604051611db990612dc4565b60006040518083038185875af1925050503d8060008114611df6576040519150601f19603f3d011682016040523d82523d6000602084013e611dfb565b606091505b5050905080611e3f576040517f5b0ecddc000000000000000000000000000000000000000000000000000000008152600401611e36906129f2565b60405180910390fd5b5050611e496123d6565b50565b6000601060008373ffffffffffffffffffffffffffffffffffffffff1673ffffffffffffffffffffffffffffffffffffffff16815260200190815260200160002060009054906101000a900460ff169050919050565b600060085460055414611eb757600554611eba565b60005b905090565b6000600454905090565b600080611ed4611770565b90506000670de0b6b3a76400004783611eed9190612b43565b611ef79190612bb4565b9050809250505090565b611f096121fa565b600073ffffffffffffffffffffffffffffffffffffffff168173ffffffffffffffffffffffffffffffffffffffff1603611f78576040517f08c379a0000000000000000000000000000000000000000000000000000000008152600401611f6f90612e4b565b60405180910390fd5b611f81816123df565b50565b611f8c6121fa565b6000600a8054905011611fd4576040517fe9e10a64000000000000000000000000000000000000000000000000000000008152600401611fcb906129f2565b60405180910390fd5b600f60009054906101000a900460ff16612023576040517fe4363ca300000000000000000000000000000000000000000000000000000000815260040161201a906129f2565b60405180910390fd5b600e54600d546120339190612a12565b421115612075576040517f5130ce4e00000000000000000000000000000000000000000000000000000000815260040161206c906129f2565b60405180910390fd5b6000600a8054806020026020016040519081016040528092919081815260200182805480156120f957602002820191906000526020600020905b8160009054906101000a900473ffffffffffffffffffffffffffffffffffffffff1673ffffffffffffffffffffffffffffffffffffffff16815260200190600101908083116120af575b505050505090506000805b825181101561219b576010600084838151811061212457612123612855565b5b602002602001015173ffffffffffffffffffffffffffffffffffffffff1673ffffffffffffffffffffffffffffffffffffffff16815260200190815260200160002060009054906101000a900460ff1615612188578180612184906128b3565b9250505b8080612193906128b3565b915050612104565b506009548110156121e5576009546040517f9dd75b3a0000000000000000000000000000000000000000000000000000000081526004016121dc9190612d65565b60405180910390fd5b600c54600b819055506121f66108c6565b5050565b6122026124c9565b73ffffffffffffffffffffffffffffffffffffffff166122206116f6565b73ffffffffffffffffffffffffffffffffffffffff1614612276576040517f08c379a000000000000000000000000000000000000000000000000000000000815260040161226d90612eb7565b60405180910390fd5b565b600080600a8054806020026020016040519081016040528092919081815260200182805480156122fd57602002820191906000526020600020905b8160009054906101000a900473ffffffffffffffffffffffffffffffffffffffff1673ffffffffffffffffffffffffffffffffffffffff16815260200190600101908083116122b3575b5050505050905060005b815181101561237b5781818151811061232357612322612855565b5b602002602001015173ffffffffffffffffffffffffffffffffffffffff168473ffffffffffffffffffffffffffffffffffffffff160361236857600192505050612382565b8080612373906128b3565b915050612307565b5060009150505b919050565b6002600154036123cc576040517f08c379a00000000000000000000000000000000000000000000000000000000081526004016123c390612f23565b60405180910390fd5b6002600181905550565b60018081905550565b60008060009054906101000a900473ffffffffffffffffffffffffffffffffffffffff169050816000806101000a81548173ffffffffffffffffffffffffffffffffffffffff021916908373ffffffffffffffffffffffffffffffffffffffff1602179055508173ffffffffffffffffffffffffffffffffffffffff168173ffffffffffffffffffffffffffffffffffffffff167f8be0079c531659141344cd1fd0a4f28419497f9722a3daafe3b4186f6b6457e060405160405180910390a35050565b60016002600a805490506124b79190612bb4565b6124c19190612a12565b600981905550565b600033905090565b82805482825590600052602060002090810192821561254a579160200282015b828111156125495782518260006101000a81548173ffffffffffffffffffffffffffffffffffffffff021916908373ffffffffffffffffffffffffffffffffffffffff160217905550916020019190600101906124f1565b5b509050612557919061255b565b5090565b5b8082111561257457600081600090555060010161255c565b5090565b600081519050919050565b600082825260208201905092915050565b6000819050602082019050919050565b600073ffffffffffffffffffffffffffffffffffffffff82169050919050565b60006125cf826125a4565b9050919050565b6125df816125c4565b82525050565b60006125f183836125d6565b60208301905092915050565b6000602082019050919050565b600061261582612578565b61261f8185612583565b935061262a83612594565b8060005b8381101561265b57815161264288826125e5565b975061264d836125fd565b92505060018101905061262e565b5085935050505092915050565b60006020820190508181036000830152612682818461260a565b905092915050565b6000819050919050565b61269d8161268a565b82525050565b60006020820190506126b86000830184612694565b92915050565b600080fd5b6126cc816125c4565b81146126d757600080fd5b50565b6000813590506126e9816126c3565b92915050565b600060208284031215612705576127046126be565b5b6000612713848285016126da565b91505092915050565b60008115159050919050565b6127318161271c565b82525050565b600060208201905061274c6000830184612728565b92915050565b60008060408385031215612769576127686126be565b5b6000612777858286016126da565b9250506020612788858286016126da565b9150509250929050565b61279b816125c4565b82525050565b60006020820190506127b66000830184612792565b92915050565b6127c58161268a565b81146127d057600080fd5b50565b6000813590506127e2816127bc565b92915050565b600080604083850312156127ff576127fe6126be565b5b600061280d858286016126da565b925050602061281e858286016127d3565b9150509250929050565b60006020828403121561283e5761283d6126be565b5b600061284c848285016127d3565b91505092915050565b7f4e487b7100000000000000000000000000000000000000000000000000000000600052603260045260246000fd5b7f4e487b7100000000000000000000000000000000000000000000000000000000600052601160045260246000fd5b60006128be8261268a565b91507fffffffffffffffffffffffffffffffffffffffffffffffffffffffffffffffff82036128f0576128ef612884565b5b600182019050919050565b600082825260208201905092915050565b7f4f776e6572736869704d616e6167657200000000000000000000000000000000600082015250565b60006129426010836128fb565b915061294d8261290c565b602082019050919050565b6000604082019050818103600083015261297181612935565b90506129806020830184612792565b92915050565b6000602082019050818103600083015261299f81612935565b9050919050565b7f46756e64734d616e616765720000000000000000000000000000000000000000600082015250565b60006129dc600c836128fb565b91506129e7826129a6565b602082019050919050565b60006020820190508181036000830152612a0b816129cf565b9050919050565b6000612a1d8261268a565b9150612a288361268a565b9250828201905080821115612a4057612a3f612884565b5b92915050565b60006040820190508181036000830152612a5f816129cf565b9050612a6e6020830184612792565b92915050565b7f477561726469616e734d616e6167657200000000000000000000000000000000600082015250565b6000612aaa6010836128fb565b9150612ab582612a74565b602082019050919050565b60006020820190508181036000830152612ad981612a9d565b9050919050565b6000612aeb8261268a565b9150612af68361268a565b9250828203905081811115612b0e57612b0d612884565b5b92915050565b7f4e487b7100000000000000000000000000000000000000000000000000000000600052604160045260246000fd5b6000612b4e8261268a565b9150612b598361268a565b9250828202612b678161268a565b91508282048414831517612b7e57612b7d612884565b5b5092915050565b7f4e487b7100000000000000000000000000000000000000000000000000000000600052601260045260246000fd5b6000612bbf8261268a565b9150612bca8361268a565b925082612bda57612bd9612b85565b5b828204905092915050565b600069ffffffffffffffffffff82169050919050565b612c0481612be5565b8114612c0f57600080fd5b50565b600081519050612c2181612bfb565b92915050565b6000819050919050565b612c3a81612c27565b8114612c4557600080fd5b50565b600081519050612c5781612c31565b92915050565b600081519050612c6c816127bc565b92915050565b600080600080600060a08688031215612c8e57612c8d6126be565b5b6000612c9c88828901612c12565b9550506020612cad88828901612c48565b9450506040612cbe88828901612c5d565b9350506060612ccf88828901612c5d565b9250506080612ce088828901612c12565b9150509295509295909350565b6000612cf882612c27565b9150612d0383612c27565b9250828202612d1181612c27565b91507f80000000000000000000000000000000000000000000000000000000000000008414600084121615612d4957612d48612884565b5b8282058414831517612d5e57612d5d612884565b5b5092915050565b60006040820190508181036000830152612d7e816129cf565b9050612d8d6020830184612694565b92915050565b600081905092915050565b50565b6000612dae600083612d93565b9150612db982612d9e565b600082019050919050565b6000612dcf82612da1565b9150819050919050565b7f4f776e61626c653a206e6577206f776e657220697320746865207a65726f206160008201527f6464726573730000000000000000000000000000000000000000000000000000602082015250565b6000612e356026836128fb565b9150612e4082612dd9565b604082019050919050565b60006020820190508181036000830152612e6481612e28565b9050919050565b7f4f776e61626c653a2063616c6c6572206973206e6f7420746865206f776e6572600082015250565b6000612ea16020836128fb565b9150612eac82612e6b565b602082019050919050565b60006020820190508181036000830152612ed081612e94565b9050919050565b7f5265656e7472616e637947756172643a207265656e7472616e742063616c6c00600082015250565b6000612f0d601f836128fb565b9150612f1882612ed7565b602082019050919050565b60006020820190508181036000830152612f3c81612f00565b905091905056fea2646970667358221220656e64a050e40158263ccf31487a6da84572cf2c47393b9a967d735f3249e7d464736f6c63430008110033",
  "devdoc": {
    "kind": "dev",
    "methods": {
      "owner()": {
        "details": "Returns the address of the current owner."
      },
      "renounceOwnership()": {
        "details": "Leaves the contract without owner. It will not be possible to call `onlyOwner` functions anymore. Can only be called by the current owner. NOTE: Renouncing ownership will leave the contract without an owner, thereby removing any functionality that is only available to the owner."
      },
      "transferOwnership(address)": {
        "details": "Transfers ownership of the contract to a new account (`newOwner`). Can only be called by the current owner."
      }
    },
    "version": 1
  },
  "userdoc": {
    "kind": "user",
    "methods": {},
    "version": 1
  },
  "storageLayout": {
    "storage": [
      {
        "astId": 53,
        "contract": "contracts/Guardian.sol:Guardian",
        "label": "_owner",
        "offset": 0,
        "slot": "0",
        "type": "t_address"
      },
      {
        "astId": 169,
        "contract": "contracts/Guardian.sol:Guardian",
        "label": "_status",
        "offset": 0,
        "slot": "1",
        "type": "t_uint256"
      },
      {
        "astId": 888,
        "contract": "contracts/Guardian.sol:Guardian",
        "label": "addGuardianDelay",
        "offset": 0,
        "slot": "2",
        "type": "t_uint256"
      },
      {
        "astId": 890,
        "contract": "contracts/Guardian.sol:Guardian",
        "label": "lastGuardianAddTime",
        "offset": 0,
        "slot": "3",
        "type": "t_uint256"
      },
      {
        "astId": 892,
        "contract": "contracts/Guardian.sol:Guardian",
        "label": "changeGuardianDelay",
        "offset": 0,
        "slot": "4",
        "type": "t_uint256"
      },
      {
        "astId": 894,
        "contract": "contracts/Guardian.sol:Guardian",
        "label": "lastGuardianChangeTime",
        "offset": 0,
        "slot": "5",
        "type": "t_uint256"
      },
      {
        "astId": 896,
        "contract": "contracts/Guardian.sol:Guardian",
        "label": "removeGuardianDelay",
        "offset": 0,
        "slot": "6",
        "type": "t_uint256"
      },
      {
        "astId": 898,
        "contract": "contracts/Guardian.sol:Guardian",
        "label": "lastGuardianRemovalTime",
        "offset": 0,
        "slot": "7",
        "type": "t_uint256"
      },
      {
        "astId": 900,
        "contract": "contracts/Guardian.sol:Guardian",
        "label": "contractDeployTime",
        "offset": 0,
        "slot": "8",
        "type": "t_uint256"
      },
      {
        "astId": 902,
        "contract": "contracts/Guardian.sol:Guardian",
        "label": "requiredConfirmations",
        "offset": 0,
        "slot": "9",
        "type": "t_uint256"
      },
      {
        "astId": 905,
        "contract": "contracts/Guardian.sol:Guardian",
        "label": "guardians",
        "offset": 0,
        "slot": "10",
        "type": "t_array(t_address)dyn_storage"
      },
      {
        "astId": 336,
        "contract": "contracts/Guardian.sol:Guardian",
        "label": "dailyTransferLimit",
        "offset": 0,
        "slot": "11",
        "type": "t_uint256"
      },
      {
        "astId": 338,
        "contract": "contracts/Guardian.sol:Guardian",
        "label": "tempDailyTransferLimit",
        "offset": 0,
        "slot": "12",
        "type": "t_uint256"
      },
      {
        "astId": 340,
        "contract": "contracts/Guardian.sol:Guardian",
        "label": "lastDailyTransferUpdateRequestTime",
        "offset": 0,
        "slot": "13",
        "type": "t_uint256"
      },
      {
        "astId": 342,
        "contract": "contracts/Guardian.sol:Guardian",
        "label": "dailyTransferLimitUpdateConfirmationTime",
        "offset": 0,
        "slot": "14",
        "type": "t_uint256"
      },
      {
        "astId": 344,
        "contract": "contracts/Guardian.sol:Guardian",
        "label": "isDailyTransferLimitUpdateRequested",
        "offset": 0,
        "slot": "15",
        "type": "t_bool"
      },
      {
        "astId": 348,
        "contract": "contracts/Guardian.sol:Guardian",
        "label": "isConfirmedByGuardian",
        "offset": 0,
        "slot": "16",
        "type": "t_mapping(t_address,t_bool)"
      },
      {
        "astId": 351,
        "contract": "contracts/Guardian.sol:Guardian",
        "label": "priceFeed",
        "offset": 0,
        "slot": "17",
        "type": "t_contract(AggregatorV3Interface)45"
      },
      {
        "astId": 1314,
        "contract": "contracts/Guardian.sol:Guardian",
        "label": "lastOwnerUpdateRequestTime",
        "offset": 0,
        "slot": "18",
        "type": "t_uint256"
      },
      {
        "astId": 1316,
        "contract": "contracts/Guardian.sol:Guardian",
        "label": "ownerUpdateConfirmationTime",
        "offset": 0,
        "slot": "19",
        "type": "t_uint256"
      },
      {
        "astId": 1318,
        "contract": "contracts/Guardian.sol:Guardian",
        "label": "noOfConfirmations",
        "offset": 0,
        "slot": "20",
        "type": "t_uint256"
      },
      {
        "astId": 1320,
        "contract": "contracts/Guardian.sol:Guardian",
        "label": "isOwnerUpdateRequested",
        "offset": 0,
        "slot": "21",
        "type": "t_bool"
      },
      {
        "astId": 1322,
        "contract": "contracts/Guardian.sol:Guardian",
        "label": "tempAddress",
        "offset": 1,
        "slot": "21",
        "type": "t_address"
      },
      {
        "astId": 1326,
        "contract": "contracts/Guardian.sol:Guardian",
        "label": "isOwnershipConfimedByGuardian",
        "offset": 0,
        "slot": "22",
        "type": "t_mapping(t_address,t_bool)"
      }
    ],
    "types": {
      "t_address": {
        "encoding": "inplace",
        "label": "address",
        "numberOfBytes": "20"
      },
      "t_array(t_address)dyn_storage": {
        "base": "t_address",
        "encoding": "dynamic_array",
        "label": "address[]",
        "numberOfBytes": "32"
      },
      "t_bool": {
        "encoding": "inplace",
        "label": "bool",
        "numberOfBytes": "1"
      },
      "t_contract(AggregatorV3Interface)45": {
        "encoding": "inplace",
        "label": "contract AggregatorV3Interface",
        "numberOfBytes": "20"
      },
      "t_mapping(t_address,t_bool)": {
        "encoding": "mapping",
        "key": "t_address",
        "label": "mapping(address => bool)",
        "numberOfBytes": "32",
        "value": "t_bool"
      },
      "t_uint256": {
        "encoding": "inplace",
        "label": "uint256",
        "numberOfBytes": "32"
      }
    }
  }
}