{
  "address": "0xf09aAD61b1DF0F37D4bFA8e6ae71942819eAfde3",
  "abi": [
    {
      "inputs": [
        {
          "internalType": "address",
          "name": "_priceFeed",
          "type": "address"
        }
      ],
      "stateMutability": "nonpayable",
      "type": "constructor"
    },
    {
      "inputs": [
        {
          "internalType": "address",
          "name": "caller",
          "type": "address"
        }
      ],
      "name": "GuardianFactory__AddressNotFoundAsGuardian",
      "type": "error"
    },
    {
      "inputs": [],
      "name": "GuardianFactory__OwnerContractNotFound",
      "type": "error"
    },
    {
      "inputs": [],
      "name": "GuardianFactory__WalletAlreadyExist",
      "type": "error"
    },
    {
      "stateMutability": "payable",
      "type": "fallback"
    },
    {
      "inputs": [],
      "name": "createWallet",
      "outputs": [],
      "stateMutability": "nonpayable",
      "type": "function"
    },
    {
      "inputs": [
        {
          "internalType": "address",
          "name": "ownerAddress",
          "type": "address"
        }
      ],
      "name": "getContractAddressByGuardian",
      "outputs": [
        {
          "internalType": "address",
          "name": "",
          "type": "address"
        }
      ],
      "stateMutability": "view",
      "type": "function"
    },
    {
      "inputs": [],
      "name": "getWallet",
      "outputs": [
        {
          "internalType": "address",
          "name": "",
          "type": "address"
        }
      ],
      "stateMutability": "view",
      "type": "function"
    },
    {
      "inputs": [],
      "name": "getWalletsLength",
      "outputs": [
        {
          "internalType": "uint256",
          "name": "",
          "type": "uint256"
        }
      ],
      "stateMutability": "view",
      "type": "function"
    },
    {
      "inputs": [
        {
          "internalType": "address",
          "name": "contractAddress",
          "type": "address"
        },
        {
          "internalType": "address",
          "name": "newOwner",
          "type": "address"
        }
      ],
      "name": "updateWalletOwner",
      "outputs": [],
      "stateMutability": "nonpayable",
      "type": "function"
    },
    {
      "inputs": [
        {
          "internalType": "uint256",
          "name": "",
          "type": "uint256"
        }
      ],
      "name": "wallets",
      "outputs": [
        {
          "internalType": "address",
          "name": "owner",
          "type": "address"
        },
        {
          "internalType": "address",
          "name": "contractAddress",
          "type": "address"
        }
      ],
      "stateMutability": "view",
      "type": "function"
    },
    {
      "stateMutability": "payable",
      "type": "receive"
    }
  ],
  "transactionHash": "0xf5155a3cc0fa0bf9da9acd871276e3dbc84b42dd7a25836622f54beb160083d8",
  "args": [
    "0xD4a33860578De61DBAbDc8BFdb98FD742fA7028e"
  ],
  "numDeployments": 1,
  "solcInputHash": "ffd7eab0822d057a8662d95196674fc9",
  "bytecode": "0x60806040523480156200001157600080fd5b5060405162004509380380620045098339818101604052810190620000379190620000e9565b80600160006101000a81548173ffffffffffffffffffffffffffffffffffffffff021916908373ffffffffffffffffffffffffffffffffffffffff160217905550506200011b565b600080fd5b600073ffffffffffffffffffffffffffffffffffffffff82169050919050565b6000620000b18262000084565b9050919050565b620000c381620000a4565b8114620000cf57600080fd5b50565b600081519050620000e381620000b8565b92915050565b6000602082840312156200010257620001016200007f565b5b60006200011284828501620000d2565b91505092915050565b6143de806200012b6000396000f3fe608060405260043610620000615760003560e01c806311ebbf24146200006b578063132996041462000085578063358e1d0b14620000b55780637ad71f7214620000e3578063e37f14681462000128578063f327de80146200016c5762000069565b366200006957005b005b3480156200007857600080fd5b50620000836200019c565b005b3480156200009257600080fd5b506200009d6200044c565b604051620000ac919062000c63565b60405180910390f35b348015620000c257600080fd5b50620000e16004803603810190620000db919062000cb6565b62000605565b005b348015620000f057600080fd5b506200010f600480360381019062000109919062000d38565b620008a0565b6040516200011f92919062000d6a565b60405180910390f35b3480156200013557600080fd5b506200015460048036038101906200014e919062000d97565b62000915565b60405162000163919062000c63565b60405180910390f35b3480156200017957600080fd5b506200018462000c04565b60405162000193919062000dda565b60405180910390f35b600073ffffffffffffffffffffffffffffffffffffffff16620001be6200044c565b73ffffffffffffffffffffffffffffffffffffffff16146200020c576040517f28b8324400000000000000000000000000000000000000000000000000000000815260040160405180910390fd5b6000600160009054906101000a900473ffffffffffffffffffffffffffffffffffffffff1630604051620002409062000c10565b6200024d92919062000d6a565b604051809103906000f0801580156200026a573d6000803e3d6000fd5b5090508073ffffffffffffffffffffffffffffffffffffffff1663f2fde38b336040518263ffffffff1660e01b8152600401620002a8919062000c63565b600060405180830381600087803b158015620002c357600080fd5b505af1158015620002d8573d6000803e3d6000fd5b50505050600060405180604001604052808373ffffffffffffffffffffffffffffffffffffffff16638da5cb5b6040518163ffffffff1660e01b8152600401602060405180830381865afa15801562000335573d6000803e3d6000fd5b505050506040513d601f19601f820116820180604052508101906200035b919062000e0e565b73ffffffffffffffffffffffffffffffffffffffff1681526020018373ffffffffffffffffffffffffffffffffffffffff16815250908060018154018082558091505060019003906000526020600020906002020160009091909190915060008201518160000160006101000a81548173ffffffffffffffffffffffffffffffffffffffff021916908373ffffffffffffffffffffffffffffffffffffffff16021790555060208201518160010160006101000a81548173ffffffffffffffffffffffffffffffffffffffff021916908373ffffffffffffffffffffffffffffffffffffffff160217905550505050565b6000806000805480602002602001604051908101604052809291908181526020016000905b828210156200055157838290600052602060002090600202016040518060400160405290816000820160009054906101000a900473ffffffffffffffffffffffffffffffffffffffff1673ffffffffffffffffffffffffffffffffffffffff1673ffffffffffffffffffffffffffffffffffffffff1681526020016001820160009054906101000a900473ffffffffffffffffffffffffffffffffffffffff1673ffffffffffffffffffffffffffffffffffffffff1673ffffffffffffffffffffffffffffffffffffffff16815250508152602001906001019062000471565b50505050905060005b8151811015620005fb578181815181106200057a576200057962000e40565b5b60200260200101516000015173ffffffffffffffffffffffffffffffffffffffff163373ffffffffffffffffffffffffffffffffffffffff1603620005e557818181518110620005cf57620005ce62000e40565b5b6020026020010151602001519250505062000602565b8080620005f29062000e9e565b9150506200055a565b5060009150505b90565b600080805480602002602001604051908101604052809291908181526020016000905b828210156200070857838290600052602060002090600202016040518060400160405290816000820160009054906101000a900473ffffffffffffffffffffffffffffffffffffffff1673ffffffffffffffffffffffffffffffffffffffff1673ffffffffffffffffffffffffffffffffffffffff1681526020016001820160009054906101000a900473ffffffffffffffffffffffffffffffffffffffff1673ffffffffffffffffffffffffffffffffffffffff1673ffffffffffffffffffffffffffffffffffffffff16815250508152602001906001019062000628565b50505050905060005b81518110156200089a5781818151811062000731576200073062000e40565b5b60200260200101516020015173ffffffffffffffffffffffffffffffffffffffff168473ffffffffffffffffffffffffffffffffffffffff1603620008845760008490508373ffffffffffffffffffffffffffffffffffffffff168173ffffffffffffffffffffffffffffffffffffffff16638da5cb5b6040518163ffffffff1660e01b8152600401602060405180830381865afa158015620007d8573d6000803e3d6000fd5b505050506040513d601f19601f82011682018060405250810190620007fe919062000e0e565b73ffffffffffffffffffffffffffffffffffffffff16036200088257836000838154811062000832576200083162000e40565b5b906000526020600020906002020160000160006101000a81548173ffffffffffffffffffffffffffffffffffffffff021916908373ffffffffffffffffffffffffffffffffffffffff1602179055505b505b8080620008919062000e9e565b91505062000711565b50505050565b60008181548110620008b157600080fd5b90600052602060002090600202016000915090508060000160009054906101000a900473ffffffffffffffffffffffffffffffffffffffff16908060010160009054906101000a900473ffffffffffffffffffffffffffffffffffffffff16905082565b6000806000805480602002602001604051908101604052809291908181526020016000905b8282101562000a1a57838290600052602060002090600202016040518060400160405290816000820160009054906101000a900473ffffffffffffffffffffffffffffffffffffffff1673ffffffffffffffffffffffffffffffffffffffff1673ffffffffffffffffffffffffffffffffffffffff1681526020016001820160009054906101000a900473ffffffffffffffffffffffffffffffffffffffff1673ffffffffffffffffffffffffffffffffffffffff1673ffffffffffffffffffffffffffffffffffffffff1681525050815260200190600101906200093a565b505050509050600080600090505b825181101562000ac25782818151811062000a485762000a4762000e40565b5b60200260200101516000015173ffffffffffffffffffffffffffffffffffffffff168573ffffffffffffffffffffffffffffffffffffffff160362000aac5782818151811062000a9d5762000a9c62000e40565b5b60200260200101516020015191505b808062000ab99062000e9e565b91505062000a28565b50600073ffffffffffffffffffffffffffffffffffffffff168173ffffffffffffffffffffffffffffffffffffffff160362000b2a576040517fc0dc1df900000000000000000000000000000000000000000000000000000000815260040160405180910390fd5b60008190508073ffffffffffffffffffffffffffffffffffffffff16633a38d056336040518263ffffffff1660e01b815260040162000b6a919062000c63565b602060405180830381865afa15801562000b88573d6000803e3d6000fd5b505050506040513d601f19601f8201168201806040525081019062000bae919062000f28565b1562000bc05781935050505062000bff565b336040517f1e1d1c5300000000000000000000000000000000000000000000000000000000815260040162000bf6919062000c63565b60405180910390fd5b919050565b60008080549050905090565b61344e8062000f5b83390190565b600073ffffffffffffffffffffffffffffffffffffffff82169050919050565b600062000c4b8262000c1e565b9050919050565b62000c5d8162000c3e565b82525050565b600060208201905062000c7a600083018462000c52565b92915050565b600080fd5b62000c908162000c3e565b811462000c9c57600080fd5b50565b60008135905062000cb08162000c85565b92915050565b6000806040838503121562000cd05762000ccf62000c80565b5b600062000ce08582860162000c9f565b925050602062000cf38582860162000c9f565b9150509250929050565b6000819050919050565b62000d128162000cfd565b811462000d1e57600080fd5b50565b60008135905062000d328162000d07565b92915050565b60006020828403121562000d515762000d5062000c80565b5b600062000d618482850162000d21565b91505092915050565b600060408201905062000d81600083018562000c52565b62000d90602083018462000c52565b9392505050565b60006020828403121562000db05762000daf62000c80565b5b600062000dc08482850162000c9f565b91505092915050565b62000dd48162000cfd565b82525050565b600060208201905062000df1600083018462000dc9565b92915050565b60008151905062000e088162000c85565b92915050565b60006020828403121562000e275762000e2662000c80565b5b600062000e378482850162000df7565b91505092915050565b7f4e487b7100000000000000000000000000000000000000000000000000000000600052603260045260246000fd5b7f4e487b7100000000000000000000000000000000000000000000000000000000600052601160045260246000fd5b600062000eab8262000cfd565b91507fffffffffffffffffffffffffffffffffffffffffffffffffffffffffffffffff820362000ee05762000edf62000e6f565b5b600182019050919050565b60008115159050919050565b62000f028162000eeb565b811462000f0e57600080fd5b50565b60008151905062000f228162000ef7565b92915050565b60006020828403121562000f415762000f4062000c80565b5b600062000f518482850162000f11565b9150509291505056fe60806040523480156200001157600080fd5b506040516200344e3803806200344e83398181016040528101906200003791906200027e565b8082620000596200004d6200014860201b60201c565b6200015060201b60201c565b600180819055504260088190555042600381905550620151806002819055504260058190555062015180600481905550426007819055506203f48060068190555080601160006101000a81548173ffffffffffffffffffffffffffffffffffffffff021916908373ffffffffffffffffffffffffffffffffffffffff160217905550670de0b6b3a7640000600b8190555062015180600e8190555050611c2060138190555080601660006101000a81548173ffffffffffffffffffffffffffffffffffffffff021916908373ffffffffffffffffffffffffffffffffffffffff160217905550505050620002c5565b600033905090565b60008060009054906101000a900473ffffffffffffffffffffffffffffffffffffffff169050816000806101000a81548173ffffffffffffffffffffffffffffffffffffffff021916908373ffffffffffffffffffffffffffffffffffffffff1602179055508173ffffffffffffffffffffffffffffffffffffffff168173ffffffffffffffffffffffffffffffffffffffff167f8be0079c531659141344cd1fd0a4f28419497f9722a3daafe3b4186f6b6457e060405160405180910390a35050565b600080fd5b600073ffffffffffffffffffffffffffffffffffffffff82169050919050565b6000620002468262000219565b9050919050565b620002588162000239565b81146200026457600080fd5b50565b60008151905062000278816200024d565b92915050565b6000806040838503121562000298576200029762000214565b5b6000620002a88582860162000267565b9250506020620002bb8582860162000267565b9150509250929050565b61317980620002d56000396000f3fe60806040526004361061024a5760003560e01c806383b40cc911610139578063bbe4424a116100b6578063daf3ce6a1161007a578063daf3ce6a146107e4578063e9316a2114610821578063ecfba8f51461084c578063ef64924914610877578063f2fde38b146108a2578063fb549788146108cb57610251565b8063bbe4424a14610727578063d0679d3414610752578063d23773611461077b578063d644d7f9146107a4578063d660c45d146107bb57610251565b806398d5fdca116100fd57806398d5fdca14610640578063a526d83b1461066b578063a85ae37714610694578063af630ad3146106bf578063b9e1c798146106ea57610251565b806383b40cc91461057f5780638636068c146105a85780638da5cb5b146105bf5780638fc270b7146105ea5780639204f4771461061557610251565b80632ad2ed90116101c7578063715018a61161018b578063715018a6146104be5780637388fe86146104d557806379f9c22f146105005780637d09f5dd1461052957806382e717f71461055457610251565b80632ad2ed90146103d75780632b28d0cc146104025780633a38d0561461042d578063673d4ec81461046a578063714041561461049557610251565b806312065fe01161020e57806312065fe01461031457806314cbc7631461033f57806315c1bc3e1461036a57806324cb76041461039557806326c886df146103c057610251565b80630665f04b1461025357806306c4df831461027e5780630ea52f0f146102a95780630f0f30b2146102c057806310a0cf17146102eb57610251565b3661025157005b005b34801561025f57600080fd5b506102686108e2565b604051610275919061283f565b60405180910390f35b34801561028a57600080fd5b50610293610970565b6040516102a0919061287a565b60405180910390f35b3480156102b557600080fd5b506102be61097a565b005b3480156102cc57600080fd5b506102d5610b2a565b6040516102e291906128a4565b60405180910390f35b3480156102f757600080fd5b50610312600480360381019061030d91906128f0565b610b54565b005b34801561032057600080fd5b50610329610d33565b604051610336919061287a565b60405180910390f35b34801561034b57600080fd5b50610354610d3b565b604051610361919061287a565b60405180910390f35b34801561037657600080fd5b5061037f610d45565b60405161038c919061287a565b60405180910390f35b3480156103a157600080fd5b506103aa610d4f565b6040516103b7919061287a565b60405180910390f35b3480156103cc57600080fd5b506103d5610d59565b005b3480156103e357600080fd5b506103ec610f75565b6040516103f9919061287a565b60405180910390f35b34801561040e57600080fd5b50610417610f92565b604051610424919061287a565b60405180910390f35b34801561043957600080fd5b50610454600480360381019061044f91906128f0565b610f9c565b6040516104619190612938565b60405180910390f35b34801561047657600080fd5b5061047f6110ab565b60405161048c9190612938565b60405180910390f35b3480156104a157600080fd5b506104bc60048036038101906104b791906128f0565b6110c2565b005b3480156104ca57600080fd5b506104d36113bd565b005b3480156104e157600080fd5b506104ea6113d1565b6040516104f7919061287a565b60405180910390f35b34801561050c57600080fd5b50610527600480360381019061052291906128f0565b6113ee565b005b34801561053557600080fd5b5061053e61143a565b60405161054b919061287a565b60405180910390f35b34801561056057600080fd5b50610569611444565b604051610576919061287a565b60405180910390f35b34801561058b57600080fd5b506105a660048036038101906105a19190612953565b61144a565b005b3480156105b457600080fd5b506105bd61166e565b005b3480156105cb57600080fd5b506105d4611992565b6040516105e191906128a4565b60405180910390f35b3480156105f657600080fd5b506105ff6119bb565b60405161060c9190612938565b60405180910390f35b34801561062157600080fd5b5061062a6119d2565b604051610637919061287a565b60405180910390f35b34801561064c57600080fd5b50610655611a0c565b604051610662919061287a565b60405180910390f35b34801561067757600080fd5b50610692600480360381019061068d91906128f0565b611abd565b005b3480156106a057600080fd5b506106a9611b9c565b6040516106b6919061287a565b60405180910390f35b3480156106cb57600080fd5b506106d4611ba6565b6040516106e1919061287a565b60405180910390f35b3480156106f657600080fd5b50610711600480360381019061070c91906128f0565b611bb0565b60405161071e9190612938565b60405180910390f35b34801561073357600080fd5b5061073c611c06565b604051610749919061287a565b60405180910390f35b34801561075e57600080fd5b50610779600480360381019061077491906129bf565b611c10565b005b34801561078757600080fd5b506107a2600480360381019061079d91906129ff565b611d65565b005b3480156107b057600080fd5b506107b9611dde565b005b3480156107c757600080fd5b506107e260048036038101906107dd91906128f0565b611fd8565b005b3480156107f057600080fd5b5061080b600480360381019061080691906128f0565b612132565b6040516108189190612938565b60405180910390f35b34801561082d57600080fd5b50610836612188565b604051610843919061287a565b60405180910390f35b34801561085857600080fd5b506108616121a5565b60405161086e919061287a565b60405180910390f35b34801561088357600080fd5b5061088c6121af565b604051610899919061287a565b60405180910390f35b3480156108ae57600080fd5b506108c960048036038101906108c491906128f0565b6121e7565b005b3480156108d757600080fd5b506108e061226a565b005b6060600a80548060200260200160405190810160405280929190818152602001828054801561096657602002820191906000526020600020905b8160009054906101000a900473ffffffffffffffffffffffffffffffffffffffff1673ffffffffffffffffffffffffffffffffffffffff168152602001906001019080831161091c575b5050505050905090565b6000601254905090565b6109826124e0565b6000600f60006101000a81548160ff0219169083151502179055506000600a805480602002602001604051908101604052809291908181526020018280548015610a2157602002820191906000526020600020905b8160009054906101000a900473ffffffffffffffffffffffffffffffffffffffff1673ffffffffffffffffffffffffffffffffffffffff16815260200190600101908083116109d7575b5050505050905060005b8151811015610b265760106000838381518110610a4b57610a4a612a2c565b5b602002602001015173ffffffffffffffffffffffffffffffffffffffff1673ffffffffffffffffffffffffffffffffffffffff16815260200190815260200160002060009054906101000a900460ff1615610b1357600060106000848481518110610ab957610ab8612a2c565b5b602002602001015173ffffffffffffffffffffffffffffffffffffffff1673ffffffffffffffffffffffffffffffffffffffff16815260200190815260200160002060006101000a81548160ff0219169083151502179055505b8080610b1e90612a8a565b915050610a2b565b5050565b6000601160009054906101000a900473ffffffffffffffffffffffffffffffffffffffff16905090565b610b5c611992565b73ffffffffffffffffffffffffffffffffffffffff168173ffffffffffffffffffffffffffffffffffffffff1603610bcb57806040517fa4f2199f000000000000000000000000000000000000000000000000000000008152600401610bc29190612b2f565b60405180910390fd5b6000600a8054905011610c13576040517fe9e10a64000000000000000000000000000000000000000000000000000000008152600401610c0a90612b5d565b60405180910390fd5b610c1c33610f9c565b610c5d57336040517f8e8bbab9000000000000000000000000000000000000000000000000000000008152600401610c549190612b2f565b60405180910390fd5b4260128190555080601560016101000a81548173ffffffffffffffffffffffffffffffffffffffff021916908373ffffffffffffffffffffffffffffffffffffffff1602179055506001601760003373ffffffffffffffffffffffffffffffffffffffff1673ffffffffffffffffffffffffffffffffffffffff16815260200190815260200160002060006101000a81548160ff02191690831515021790555060146000815480929190610d1090612a8a565b91905055506001601560006101000a81548160ff02191690831515021790555050565b600047905090565b6000600654905090565b6000600b54905090565b6000600954905090565b6000600a8054905011610da1576040517fe9e10a64000000000000000000000000000000000000000000000000000000008152600401610d9890612bc9565b60405180910390fd5b600f60009054906101000a900460ff16610df0576040517fe4363ca3000000000000000000000000000000000000000000000000000000008152600401610de790612bc9565b60405180910390fd5b600e54600d54610e009190612be9565b421115610e42576040517f5130ce4e000000000000000000000000000000000000000000000000000000008152600401610e3990612bc9565b60405180910390fd5b601060003373ffffffffffffffffffffffffffffffffffffffff1673ffffffffffffffffffffffffffffffffffffffff16815260200190815260200160002060009054906101000a900460ff1615610ed157336040517f40b28742000000000000000000000000000000000000000000000000000000008152600401610ec89190612c1d565b60405180910390fd5b610eda33610f9c565b610f1b57336040517f8e8bbab9000000000000000000000000000000000000000000000000000000008152600401610f129190612c1d565b60405180910390fd5b6001601060003373ffffffffffffffffffffffffffffffffffffffff1673ffffffffffffffffffffffffffffffffffffffff16815260200190815260200160002060006101000a81548160ff021916908315150217905550565b600060085460075414610f8a57600754610f8d565b60005b905090565b6000601354905090565b600080600a80548060200260200160405190810160405280929190818152602001828054801561102157602002820191906000526020600020905b8160009054906101000a900473ffffffffffffffffffffffffffffffffffffffff1673ffffffffffffffffffffffffffffffffffffffff1681526020019060010190808311610fd7575b5050505050905060005b815181101561109f5781818151811061104757611046612a2c565b5b602002602001015173ffffffffffffffffffffffffffffffffffffffff168473ffffffffffffffffffffffffffffffffffffffff160361108c576001925050506110a6565b808061109790612a8a565b91505061102b565b5060009150505b919050565b6000601560009054906101000a900460ff16905090565b6110ca6124e0565b6110d261255e565b6006546007546110e29190612be9565b421015611124576040517f2ab71fd600000000000000000000000000000000000000000000000000000000815260040161111b90612c97565b60405180910390fd5b6000600a805490501161116c576040517fe9e10a6400000000000000000000000000000000000000000000000000000000815260040161116390612c97565b60405180910390fd5b61117581610f9c565b6111b4576040517f476372220000000000000000000000000000000000000000000000000000000081526004016111ab90612c97565b60405180910390fd5b6000600a80548060200260200160405190810160405280929190818152602001828054801561123857602002820191906000526020600020905b8160009054906101000a900473ffffffffffffffffffffffffffffffffffffffff1673ffffffffffffffffffffffffffffffffffffffff16815260200190600101908083116111ee575b5050505050905060006001825161124f9190612cb7565b67ffffffffffffffff81111561126857611267612ceb565b5b6040519080825280602002602001820160405280156112965781602001602082028036833780820191505090505b50905060008060005b8451811015611388578573ffffffffffffffffffffffffffffffffffffffff168582815181106112d2576112d1612a2c565b5b602002602001015173ffffffffffffffffffffffffffffffffffffffff16036112fe5760019150611375565b84818151811061131157611310612a2c565b5b602002602001015184848151811061132c5761132b612a2c565b5b602002602001019073ffffffffffffffffffffffffffffffffffffffff16908173ffffffffffffffffffffffffffffffffffffffff1681525050828061137190612a8a565b9350505b808061138090612a8a565b91505061129f565b5080156113ae5782600a90805190602001906113a59291906126a8565b50426007819055505b505050506113ba6125ad565b50565b6113c56124e0565b6113cf60006125b6565b565b6000600854600354146113e6576003546113e9565b60005b905090565b6113f66124e0565b80601160006101000a81548173ffffffffffffffffffffffffffffffffffffffff021916908373ffffffffffffffffffffffffffffffffffffffff16021790555050565b6000600d54905090565b60095481565b6114526124e0565b61145a61255e565b60045460055461146a9190612be9565b4210156114ac576040517f0e7f7d150000000000000000000000000000000000000000000000000000000081526004016114a390612c97565b60405180910390fd5b6000600a80548060200260200160405190810160405280929190818152602001828054801561153057602002820191906000526020600020905b8160009054906101000a900473ffffffffffffffffffffffffffffffffffffffff1673ffffffffffffffffffffffffffffffffffffffff16815260200190600101908083116114e6575b505050505090506000805b82518110156115fb578473ffffffffffffffffffffffffffffffffffffffff1683828151811061156e5761156d612a2c565b5b602002602001015173ffffffffffffffffffffffffffffffffffffffff16036115e85760019150838382815181106115a9576115a8612a2c565b5b602002602001019073ffffffffffffffffffffffffffffffffffffffff16908173ffffffffffffffffffffffffffffffffffffffff16815250506115fb565b80806115f390612a8a565b91505061153b565b5080156116255781600a90805190602001906116189291906126a8565b5042600581905550611660565b6040517f4763722200000000000000000000000000000000000000000000000000000000815260040161165790612c97565b60405180910390fd5b505061166a6125ad565b5050565b6000600a80549050116116b6576040517fe9e10a640000000000000000000000000000000000000000000000000000000081526004016116ad90612b5d565b60405180910390fd5b601560009054906101000a900460ff16611705576040517f7bd1f7a20000000000000000000000000000000000000000000000000000000081526004016116fc90612b5d565b60405180910390fd5b601760003373ffffffffffffffffffffffffffffffffffffffff1673ffffffffffffffffffffffffffffffffffffffff16815260200190815260200160002060009054906101000a900460ff161561179457336040517f40b2874200000000000000000000000000000000000000000000000000000000815260040161178b9190612b2f565b60405180910390fd5b6013546012546117a49190612be9565b4211156117e6576040517f5130ce4e0000000000000000000000000000000000000000000000000000000081526004016117dd90612b5d565b60405180910390fd5b6117ef33610f9c565b61183057336040517f8e8bbab90000000000000000000000000000000000000000000000000000000081526004016118279190612b2f565b60405180910390fd5b6001601760003373ffffffffffffffffffffffffffffffffffffffff1673ffffffffffffffffffffffffffffffffffffffff16815260200190815260200160002060006101000a81548160ff0219169083151502179055506014600081548092919061189b90612a8a565b919050555060095460145410611990576118d6601560019054906101000a900473ffffffffffffffffffffffffffffffffffffffff166125b6565b601660009054906101000a900473ffffffffffffffffffffffffffffffffffffffff1673ffffffffffffffffffffffffffffffffffffffff1663358e1d0b30601560019054906101000a900473ffffffffffffffffffffffffffffffffffffffff166040518363ffffffff1660e01b8152600401611955929190612d1a565b600060405180830381600087803b15801561196f57600080fd5b505af1158015611983573d6000803e3d6000fd5b5050505061198f611dde565b5b565b60008060009054906101000a900473ffffffffffffffffffffffffffffffffffffffff16905090565b6000600f60009054906101000a900460ff16905090565b6000806119dd611a0c565b90506000670de0b6b3a7640000600b54836119f89190612d43565b611a029190612db4565b9050809250505090565b600080601160009054906101000a900473ffffffffffffffffffffffffffffffffffffffff1673ffffffffffffffffffffffffffffffffffffffff1663feaf968c6040518163ffffffff1660e01b815260040160a060405180830381865afa158015611a7c573d6000803e3d6000fd5b505050506040513d601f19601f82011682018060405250810190611aa09190612e72565b5050509150506402540be40081611ab79190612eed565b91505090565b611ac56124e0565b611acd61255e565b600254600354611add9190612be9565b421015611b1f576040517fdd49edf8000000000000000000000000000000000000000000000000000000008152600401611b1690612c97565b60405180910390fd5b600a819080600181540180825580915050600190039060005260206000200160009091909190916101000a81548173ffffffffffffffffffffffffffffffffffffffff021916908373ffffffffffffffffffffffffffffffffffffffff16021790555042600381905550611b9161267a565b611b996125ad565b50565b6000600254905090565b6000600e54905090565b6000601760008373ffffffffffffffffffffffffffffffffffffffff1673ffffffffffffffffffffffffffffffffffffffff16815260200190815260200160002060009054906101000a900460ff169050919050565b6000601454905090565b611c186124e0565b611c2061255e565b60008111611c6557806040517fc816f5c8000000000000000000000000000000000000000000000000000000008152600401611c5c9190612f65565b60405180910390fd5b600b54811115611cac57806040517fd8dde22d000000000000000000000000000000000000000000000000000000008152600401611ca39190612f65565b60405180910390fd5b60008273ffffffffffffffffffffffffffffffffffffffff1682604051611cd290612fc4565b60006040518083038185875af1925050503d8060008114611d0f576040519150601f19603f3d011682016040523d82523d6000602084013e611d14565b606091505b5050905080611d58576040517f5b0ecddc000000000000000000000000000000000000000000000000000000008152600401611d4f90612bc9565b60405180910390fd5b50611d616125ad565b5050565b611d6d6124e0565b60008111611db257806040517f60fe2e4f000000000000000000000000000000000000000000000000000000008152600401611da99190612f65565b60405180910390fd5b42600d8190555080600c819055506001600f60006101000a81548160ff02191690831515021790555050565b611de733610f9c565b611e2857336040517f8e8bbab9000000000000000000000000000000000000000000000000000000008152600401611e1f9190612b2f565b60405180910390fd5b6000601560006101000a81548160ff02191690831515021790555060006014819055506000600a805480602002602001604051908101604052809291908181526020018280548015611ecf57602002820191906000526020600020905b8160009054906101000a900473ffffffffffffffffffffffffffffffffffffffff1673ffffffffffffffffffffffffffffffffffffffff1681526020019060010190808311611e85575b5050505050905060005b8151811015611fd45760176000838381518110611ef957611ef8612a2c565b5b602002602001015173ffffffffffffffffffffffffffffffffffffffff1673ffffffffffffffffffffffffffffffffffffffff16815260200190815260200160002060009054906101000a900460ff1615611fc157600060176000848481518110611f6757611f66612a2c565b5b602002602001015173ffffffffffffffffffffffffffffffffffffffff1673ffffffffffffffffffffffffffffffffffffffff16815260200190815260200160002060006101000a81548160ff0219169083151502179055505b8080611fcc90612a8a565b915050611ed9565b5050565b611fe06124e0565b611fe861255e565b60004790506000811161203257806040517f25ba08f50000000000000000000000000000000000000000000000000000000081526004016120299190612f65565b60405180910390fd5b600b5481111561207957806040517fd8dde22d0000000000000000000000000000000000000000000000000000000081526004016120709190612f65565b60405180910390fd5b60008273ffffffffffffffffffffffffffffffffffffffff168260405161209f90612fc4565b60006040518083038185875af1925050503d80600081146120dc576040519150601f19603f3d011682016040523d82523d6000602084013e6120e1565b606091505b5050905080612125576040517f5b0ecddc00000000000000000000000000000000000000000000000000000000815260040161211c90612bc9565b60405180910390fd5b505061212f6125ad565b50565b6000601060008373ffffffffffffffffffffffffffffffffffffffff1673ffffffffffffffffffffffffffffffffffffffff16815260200190815260200160002060009054906101000a900460ff169050919050565b60006008546005541461219d576005546121a0565b60005b905090565b6000600454905090565b6000806121ba611a0c565b90506000670de0b6b3a764000047836121d39190612d43565b6121dd9190612db4565b9050809250505090565b6121ef6124e0565b600073ffffffffffffffffffffffffffffffffffffffff168173ffffffffffffffffffffffffffffffffffffffff160361225e576040517f08c379a00000000000000000000000000000000000000000000000000000000081526004016122559061304b565b60405180910390fd5b612267816125b6565b50565b6122726124e0565b6000600a80549050116122ba576040517fe9e10a640000000000000000000000000000000000000000000000000000000081526004016122b190612bc9565b60405180910390fd5b600f60009054906101000a900460ff16612309576040517fe4363ca300000000000000000000000000000000000000000000000000000000815260040161230090612bc9565b60405180910390fd5b600e54600d546123199190612be9565b42111561235b576040517f5130ce4e00000000000000000000000000000000000000000000000000000000815260040161235290612bc9565b60405180910390fd5b6000600a8054806020026020016040519081016040528092919081815260200182805480156123df57602002820191906000526020600020905b8160009054906101000a900473ffffffffffffffffffffffffffffffffffffffff1673ffffffffffffffffffffffffffffffffffffffff1681526020019060010190808311612395575b505050505090506000805b8251811015612481576010600084838151811061240a57612409612a2c565b5b602002602001015173ffffffffffffffffffffffffffffffffffffffff1673ffffffffffffffffffffffffffffffffffffffff16815260200190815260200160002060009054906101000a900460ff161561246e57818061246a90612a8a565b9250505b808061247990612a8a565b9150506123ea565b506009548110156124cb576009546040517f9dd75b3a0000000000000000000000000000000000000000000000000000000081526004016124c29190612f65565b60405180910390fd5b600c54600b819055506124dc61097a565b5050565b6124e86126a0565b73ffffffffffffffffffffffffffffffffffffffff16612506611992565b73ffffffffffffffffffffffffffffffffffffffff161461255c576040517f08c379a0000000000000000000000000000000000000000000000000000000008152600401612553906130b7565b60405180910390fd5b565b6002600154036125a3576040517f08c379a000000000000000000000000000000000000000000000000000000000815260040161259a90613123565b60405180910390fd5b6002600181905550565b60018081905550565b60008060009054906101000a900473ffffffffffffffffffffffffffffffffffffffff169050816000806101000a81548173ffffffffffffffffffffffffffffffffffffffff021916908373ffffffffffffffffffffffffffffffffffffffff1602179055508173ffffffffffffffffffffffffffffffffffffffff168173ffffffffffffffffffffffffffffffffffffffff167f8be0079c531659141344cd1fd0a4f28419497f9722a3daafe3b4186f6b6457e060405160405180910390a35050565b60016002600a8054905061268e9190612db4565b6126989190612be9565b600981905550565b600033905090565b828054828255906000526020600020908101928215612721579160200282015b828111156127205782518260006101000a81548173ffffffffffffffffffffffffffffffffffffffff021916908373ffffffffffffffffffffffffffffffffffffffff160217905550916020019190600101906126c8565b5b50905061272e9190612732565b5090565b5b8082111561274b576000816000905550600101612733565b5090565b600081519050919050565b600082825260208201905092915050565b6000819050602082019050919050565b600073ffffffffffffffffffffffffffffffffffffffff82169050919050565b60006127a68261277b565b9050919050565b6127b68161279b565b82525050565b60006127c883836127ad565b60208301905092915050565b6000602082019050919050565b60006127ec8261274f565b6127f6818561275a565b93506128018361276b565b8060005b8381101561283257815161281988826127bc565b9750612824836127d4565b925050600181019050612805565b5085935050505092915050565b6000602082019050818103600083015261285981846127e1565b905092915050565b6000819050919050565b61287481612861565b82525050565b600060208201905061288f600083018461286b565b92915050565b61289e8161279b565b82525050565b60006020820190506128b96000830184612895565b92915050565b600080fd5b6128cd8161279b565b81146128d857600080fd5b50565b6000813590506128ea816128c4565b92915050565b600060208284031215612906576129056128bf565b5b6000612914848285016128db565b91505092915050565b60008115159050919050565b6129328161291d565b82525050565b600060208201905061294d6000830184612929565b92915050565b6000806040838503121561296a576129696128bf565b5b6000612978858286016128db565b9250506020612989858286016128db565b9150509250929050565b61299c81612861565b81146129a757600080fd5b50565b6000813590506129b981612993565b92915050565b600080604083850312156129d6576129d56128bf565b5b60006129e4858286016128db565b92505060206129f5858286016129aa565b9150509250929050565b600060208284031215612a1557612a146128bf565b5b6000612a23848285016129aa565b91505092915050565b7f4e487b7100000000000000000000000000000000000000000000000000000000600052603260045260246000fd5b7f4e487b7100000000000000000000000000000000000000000000000000000000600052601160045260246000fd5b6000612a9582612861565b91507fffffffffffffffffffffffffffffffffffffffffffffffffffffffffffffffff8203612ac757612ac6612a5b565b5b600182019050919050565b600082825260208201905092915050565b7f4f776e6572736869704d616e6167657200000000000000000000000000000000600082015250565b6000612b19601083612ad2565b9150612b2482612ae3565b602082019050919050565b60006040820190508181036000830152612b4881612b0c565b9050612b576020830184612895565b92915050565b60006020820190508181036000830152612b7681612b0c565b9050919050565b7f46756e64734d616e616765720000000000000000000000000000000000000000600082015250565b6000612bb3600c83612ad2565b9150612bbe82612b7d565b602082019050919050565b60006020820190508181036000830152612be281612ba6565b9050919050565b6000612bf482612861565b9150612bff83612861565b9250828201905080821115612c1757612c16612a5b565b5b92915050565b60006040820190508181036000830152612c3681612ba6565b9050612c456020830184612895565b92915050565b7f477561726469616e734d616e6167657200000000000000000000000000000000600082015250565b6000612c81601083612ad2565b9150612c8c82612c4b565b602082019050919050565b60006020820190508181036000830152612cb081612c74565b9050919050565b6000612cc282612861565b9150612ccd83612861565b9250828203905081811115612ce557612ce4612a5b565b5b92915050565b7f4e487b7100000000000000000000000000000000000000000000000000000000600052604160045260246000fd5b6000604082019050612d2f6000830185612895565b612d3c6020830184612895565b9392505050565b6000612d4e82612861565b9150612d5983612861565b9250828202612d6781612861565b91508282048414831517612d7e57612d7d612a5b565b5b5092915050565b7f4e487b7100000000000000000000000000000000000000000000000000000000600052601260045260246000fd5b6000612dbf82612861565b9150612dca83612861565b925082612dda57612dd9612d85565b5b828204905092915050565b600069ffffffffffffffffffff82169050919050565b612e0481612de5565b8114612e0f57600080fd5b50565b600081519050612e2181612dfb565b92915050565b6000819050919050565b612e3a81612e27565b8114612e4557600080fd5b50565b600081519050612e5781612e31565b92915050565b600081519050612e6c81612993565b92915050565b600080600080600060a08688031215612e8e57612e8d6128bf565b5b6000612e9c88828901612e12565b9550506020612ead88828901612e48565b9450506040612ebe88828901612e5d565b9350506060612ecf88828901612e5d565b9250506080612ee088828901612e12565b9150509295509295909350565b6000612ef882612e27565b9150612f0383612e27565b9250828202612f1181612e27565b91507f80000000000000000000000000000000000000000000000000000000000000008414600084121615612f4957612f48612a5b565b5b8282058414831517612f5e57612f5d612a5b565b5b5092915050565b60006040820190508181036000830152612f7e81612ba6565b9050612f8d602083018461286b565b92915050565b600081905092915050565b50565b6000612fae600083612f93565b9150612fb982612f9e565b600082019050919050565b6000612fcf82612fa1565b9150819050919050565b7f4f776e61626c653a206e6577206f776e657220697320746865207a65726f206160008201527f6464726573730000000000000000000000000000000000000000000000000000602082015250565b6000613035602683612ad2565b915061304082612fd9565b604082019050919050565b6000602082019050818103600083015261306481613028565b9050919050565b7f4f776e61626c653a2063616c6c6572206973206e6f7420746865206f776e6572600082015250565b60006130a1602083612ad2565b91506130ac8261306b565b602082019050919050565b600060208201905081810360008301526130d081613094565b9050919050565b7f5265656e7472616e637947756172643a207265656e7472616e742063616c6c00600082015250565b600061310d601f83612ad2565b9150613118826130d7565b602082019050919050565b6000602082019050818103600083015261313c81613100565b905091905056fea26469706673582212205889bcc8602d40c2977c566ae2b54b003e5a025affd2d17240f68ebf1348cb7064736f6c63430008110033a2646970667358221220a3c4d40439c71dcd9f1621e11d4bbfba48443ebf18fcd301459ac316e0ce62d064736f6c63430008110033",
  "devdoc": {
    "kind": "dev",
    "methods": {},
    "version": 1
  },
  "userdoc": {
    "kind": "user",
    "methods": {},
    "version": 1
  },
  "storageLayout": {
    "storage": [
      {
        "astId": 913,
        "contract": "contracts/GuardianFactory.sol:GuardianFactory",
        "label": "wallets",
        "offset": 0,
        "slot": "0",
        "type": "t_array(t_struct(Wallet)909_storage)dyn_storage"
      },
      {
        "astId": 916,
        "contract": "contracts/GuardianFactory.sol:GuardianFactory",
        "label": "priceFeed",
        "offset": 0,
        "slot": "1",
        "type": "t_contract(AggregatorV3Interface)45"
      }
    ],
    "types": {
      "t_address": {
        "encoding": "inplace",
        "label": "address",
        "numberOfBytes": "20"
      },
      "t_array(t_struct(Wallet)909_storage)dyn_storage": {
        "base": "t_struct(Wallet)909_storage",
        "encoding": "dynamic_array",
        "label": "struct GuardianFactory.Wallet[]",
        "numberOfBytes": "32"
      },
      "t_contract(AggregatorV3Interface)45": {
        "encoding": "inplace",
        "label": "contract AggregatorV3Interface",
        "numberOfBytes": "20"
      },
      "t_struct(Wallet)909_storage": {
        "encoding": "inplace",
        "label": "struct GuardianFactory.Wallet",
        "members": [
          {
            "astId": 906,
            "contract": "contracts/GuardianFactory.sol:GuardianFactory",
            "label": "owner",
            "offset": 0,
            "slot": "0",
            "type": "t_address"
          },
          {
            "astId": 908,
            "contract": "contracts/GuardianFactory.sol:GuardianFactory",
            "label": "contractAddress",
            "offset": 0,
            "slot": "1",
            "type": "t_address"
          }
        ],
        "numberOfBytes": "64"
      }
    }
  }
}